{
  "_format": "hh-sol-artifact-1",
  "contractName": "Mock721",
  "sourceName": "contracts/mocks/Mock721.sol",
  "abi": [
    {
      "inputs": [],
      "stateMutability": "nonpayable",
      "type": "constructor"
    },
    {
      "anonymous": false,
      "inputs": [
        {
          "indexed": true,
          "internalType": "address",
          "name": "owner",
          "type": "address"
        },
        {
          "indexed": true,
          "internalType": "address",
          "name": "approved",
          "type": "address"
        },
        {
          "indexed": true,
          "internalType": "uint256",
          "name": "tokenId",
          "type": "uint256"
        }
      ],
      "name": "Approval",
      "type": "event"
    },
    {
      "anonymous": false,
      "inputs": [
        {
          "indexed": true,
          "internalType": "address",
          "name": "owner",
          "type": "address"
        },
        {
          "indexed": true,
          "internalType": "address",
          "name": "operator",
          "type": "address"
        },
        {
          "indexed": false,
          "internalType": "bool",
          "name": "approved",
          "type": "bool"
        }
      ],
      "name": "ApprovalForAll",
      "type": "event"
    },
    {
      "anonymous": false,
      "inputs": [
        {
          "indexed": true,
          "internalType": "address",
          "name": "from",
          "type": "address"
        },
        {
          "indexed": true,
          "internalType": "address",
          "name": "to",
          "type": "address"
        },
        {
          "indexed": true,
          "internalType": "uint256",
          "name": "tokenId",
          "type": "uint256"
        }
      ],
      "name": "Transfer",
      "type": "event"
    },
    {
      "inputs": [
        {
          "internalType": "address",
          "name": "to",
          "type": "address"
        },
        {
          "internalType": "uint256",
          "name": "tokenId",
          "type": "uint256"
        }
      ],
      "name": "approve",
      "outputs": [],
      "stateMutability": "nonpayable",
      "type": "function"
    },
    {
      "inputs": [
        {
          "internalType": "address",
          "name": "owner",
          "type": "address"
        }
      ],
      "name": "balanceOf",
      "outputs": [
        {
          "internalType": "uint256",
          "name": "",
          "type": "uint256"
        }
      ],
      "stateMutability": "view",
      "type": "function"
    },
    {
      "inputs": [
        {
          "internalType": "uint256",
          "name": "tokenId",
          "type": "uint256"
        }
      ],
      "name": "getApproved",
      "outputs": [
        {
          "internalType": "address",
          "name": "",
          "type": "address"
        }
      ],
      "stateMutability": "view",
      "type": "function"
    },
    {
      "inputs": [
        {
          "internalType": "address",
          "name": "owner",
          "type": "address"
        },
        {
          "internalType": "address",
          "name": "operator",
          "type": "address"
        }
      ],
      "name": "isApprovedForAll",
      "outputs": [
        {
          "internalType": "bool",
          "name": "",
          "type": "bool"
        }
      ],
      "stateMutability": "view",
      "type": "function"
    },
    {
      "inputs": [
        {
          "internalType": "address",
          "name": "to",
          "type": "address"
        },
        {
          "internalType": "uint256",
          "name": "id",
          "type": "uint256"
        },
        {
          "internalType": "string",
          "name": "uri",
          "type": "string"
        }
      ],
      "name": "mint",
      "outputs": [],
      "stateMutability": "nonpayable",
      "type": "function"
    },
    {
      "inputs": [],
      "name": "name",
      "outputs": [
        {
          "internalType": "string",
          "name": "",
          "type": "string"
        }
      ],
      "stateMutability": "view",
      "type": "function"
    },
    {
      "inputs": [
        {
          "internalType": "uint256",
          "name": "tokenId",
          "type": "uint256"
        }
      ],
      "name": "ownerOf",
      "outputs": [
        {
          "internalType": "address",
          "name": "",
          "type": "address"
        }
      ],
      "stateMutability": "view",
      "type": "function"
    },
    {
      "inputs": [
        {
          "internalType": "address",
          "name": "from",
          "type": "address"
        },
        {
          "internalType": "address",
          "name": "to",
          "type": "address"
        },
        {
          "internalType": "uint256",
          "name": "tokenId",
          "type": "uint256"
        }
      ],
      "name": "safeTransferFrom",
      "outputs": [],
      "stateMutability": "nonpayable",
      "type": "function"
    },
    {
      "inputs": [
        {
          "internalType": "address",
          "name": "from",
          "type": "address"
        },
        {
          "internalType": "address",
          "name": "to",
          "type": "address"
        },
        {
          "internalType": "uint256",
          "name": "tokenId",
          "type": "uint256"
        },
        {
          "internalType": "bytes",
          "name": "_data",
          "type": "bytes"
        }
      ],
      "name": "safeTransferFrom",
      "outputs": [],
      "stateMutability": "nonpayable",
      "type": "function"
    },
    {
      "inputs": [
        {
          "internalType": "address",
          "name": "operator",
          "type": "address"
        },
        {
          "internalType": "bool",
          "name": "approved",
          "type": "bool"
        }
      ],
      "name": "setApprovalForAll",
      "outputs": [],
      "stateMutability": "nonpayable",
      "type": "function"
    },
    {
      "inputs": [
        {
          "internalType": "bytes4",
          "name": "interfaceId",
          "type": "bytes4"
        }
      ],
      "name": "supportsInterface",
      "outputs": [
        {
          "internalType": "bool",
          "name": "",
          "type": "bool"
        }
      ],
      "stateMutability": "view",
      "type": "function"
    },
    {
      "inputs": [],
      "name": "symbol",
      "outputs": [
        {
          "internalType": "string",
          "name": "",
          "type": "string"
        }
      ],
      "stateMutability": "view",
      "type": "function"
    },
    {
      "inputs": [
        {
          "internalType": "uint256",
          "name": "tokenId",
          "type": "uint256"
        }
      ],
      "name": "tokenURI",
      "outputs": [
        {
          "internalType": "string",
          "name": "",
          "type": "string"
        }
      ],
      "stateMutability": "view",
      "type": "function"
    },
    {
      "inputs": [
        {
          "internalType": "address",
          "name": "from",
          "type": "address"
        },
        {
          "internalType": "address",
          "name": "to",
          "type": "address"
        },
        {
          "internalType": "uint256",
          "name": "tokenId",
          "type": "uint256"
        }
      ],
      "name": "transferFrom",
      "outputs": [],
      "stateMutability": "nonpayable",
      "type": "function"
    }
  ],
  "bytecode": "0x60806040523480156200001157600080fd5b506040518060400160405280600781526020017f4d6f636b373231000000000000000000000000000000000000000000000000008152506040518060400160405280600781526020017f4d6f636b37323100000000000000000000000000000000000000000000000000815250816000908051906020019062000096929190620000ef565b508060019080519060200190620000af929190620000ef565b505050620000e67f5485ca9249bb63debb0b3dc115ab984e9eb23c589eb92cb1df727fd57a3baf2060001b620000ec60201b60201c565b62000204565b50565b828054620000fd906200019f565b90600052602060002090601f0160209004810192826200012157600085556200016d565b82601f106200013c57805160ff19168380011785556200016d565b828001600101855582156200016d579182015b828111156200016c5782518255916020019190600101906200014f565b5b5090506200017c919062000180565b5090565b5b808211156200019b57600081600090555060010162000181565b5090565b60006002820490506001821680620001b857607f821691505b60208210811415620001cf57620001ce620001d5565b5b50919050565b7f4e487b7100000000000000000000000000000000000000000000000000000000600052602260045260246000fd5b612c3080620002146000396000f3fe608060405234801561001057600080fd5b50600436106100ea5760003560e01c806370a082311161008c578063b88d4fde11610066578063b88d4fde1461025b578063c87b56dd14610277578063d3fc9864146102a7578063e985e9c5146102c3576100ea565b806370a08231146101f157806395d89b4114610221578063a22cb4651461023f576100ea565b8063095ea7b3116100c8578063095ea7b31461016d57806323b872dd1461018957806342842e0e146101a55780636352211e146101c1576100ea565b806301ffc9a7146100ef57806306fdde031461011f578063081812fc1461013d575b600080fd5b61010960048036038101906101049190611d0e565b6102f3565b6040516101169190612114565b60405180910390f35b6101276103d5565b604051610134919061212f565b60405180910390f35b61015760048036038101906101529190611d60565b610467565b60405161016491906120ad565b60405180910390f35b61018760048036038101906101829190611c66565b6104ec565b005b6101a3600480360381019061019e9190611b60565b610604565b005b6101bf60048036038101906101ba9190611b60565b610664565b005b6101db60048036038101906101d69190611d60565b610684565b6040516101e891906120ad565b60405180910390f35b61020b60048036038101906102069190611afb565b610736565b6040516102189190612351565b60405180910390f35b6102296107ee565b604051610236919061212f565b60405180910390f35b61025960048036038101906102549190611c2a565b610880565b005b61027560048036038101906102709190611baf565b610896565b005b610291600480360381019061028c9190611d60565b6108f8565b60405161029e919061212f565b60405180910390f35b6102c160048036038101906102bc9190611ca2565b610a4a565b005b6102dd60048036038101906102d89190611b24565b610b84565b6040516102ea9190612114565b60405180910390f35b60007f80ac58cd000000000000000000000000000000000000000000000000000000007bffffffffffffffffffffffffffffffffffffffffffffffffffffffff1916827bffffffffffffffffffffffffffffffffffffffffffffffffffffffff191614806103be57507f5b5e139f000000000000000000000000000000000000000000000000000000007bffffffffffffffffffffffffffffffffffffffffffffffffffffffff1916827bffffffffffffffffffffffffffffffffffffffffffffffffffffffff1916145b806103ce57506103cd82610c18565b5b9050919050565b6060600080546103e490612576565b80601f016020809104026020016040519081016040528092919081815260200182805461041090612576565b801561045d5780601f106104325761010080835404028352916020019161045d565b820191906000526020600020905b81548152906001019060200180831161044057829003601f168201915b5050505050905090565b600061047282610c82565b6104b1576040517f08c379a00000000000000000000000000000000000000000000000000000000081526004016104a8906122d1565b60405180910390fd5b6004600083815260200190815260200160002060009054906101000a900473ffffffffffffffffffffffffffffffffffffffff169050919050565b60006104f782610684565b90508073ffffffffffffffffffffffffffffffffffffffff168373ffffffffffffffffffffffffffffffffffffffff161415610568576040517f08c379a000000000000000000000000000000000000000000000000000000000815260040161055f90612311565b60405180910390fd5b8073ffffffffffffffffffffffffffffffffffffffff16610587610cee565b73ffffffffffffffffffffffffffffffffffffffff1614806105b657506105b5816105b0610cee565b610b84565b5b6105f5576040517f08c379a00000000000000000000000000000000000000000000000000000000081526004016105ec90612211565b60405180910390fd5b6105ff8383610cf6565b505050565b61061561060f610cee565b82610daf565b610654576040517f08c379a000000000000000000000000000000000000000000000000000000000815260040161064b90612331565b60405180910390fd5b61065f838383610e8d565b505050565b61067f83838360405180602001604052806000815250610896565b505050565b6000806002600084815260200190815260200160002060009054906101000a900473ffffffffffffffffffffffffffffffffffffffff169050600073ffffffffffffffffffffffffffffffffffffffff168173ffffffffffffffffffffffffffffffffffffffff16141561072d576040517f08c379a000000000000000000000000000000000000000000000000000000000815260040161072490612251565b60405180910390fd5b80915050919050565b60008073ffffffffffffffffffffffffffffffffffffffff168273ffffffffffffffffffffffffffffffffffffffff1614156107a7576040517f08c379a000000000000000000000000000000000000000000000000000000000815260040161079e90612231565b60405180910390fd5b600360008373ffffffffffffffffffffffffffffffffffffffff1673ffffffffffffffffffffffffffffffffffffffff168152602001908152602001600020549050919050565b6060600180546107fd90612576565b80601f016020809104026020016040519081016040528092919081815260200182805461082990612576565b80156108765780601f1061084b57610100808354040283529160200191610876565b820191906000526020600020905b81548152906001019060200180831161085957829003601f168201915b5050505050905090565b61089261088b610cee565b83836110f4565b5050565b6108a76108a1610cee565b83610daf565b6108e6576040517f08c379a00000000000000000000000000000000000000000000000000000000081526004016108dd90612331565b60405180910390fd5b6108f284848484611261565b50505050565b606061090382610c82565b610942576040517f08c379a0000000000000000000000000000000000000000000000000000000008152600401610939906122b1565b60405180910390fd5b600060066000848152602001908152602001600020805461096290612576565b80601f016020809104026020016040519081016040528092919081815260200182805461098e90612576565b80156109db5780601f106109b0576101008083540402835291602001916109db565b820191906000526020600020905b8154815290600101906020018083116109be57829003601f168201915b5050505050905060006109ec6112bd565b9050600081511415610a02578192505050610a45565b600082511115610a37578082604051602001610a1f929190612089565b60405160208183030381529060405292505050610a45565b610a40846112d4565b925050505b919050565b610a767f88c243050be3b86225c011f313becc167fce33d859ca75cacd773ee6b1e895b860001b61137b565b610aa27ff030f4ae1e202bcba0687b9fd747a9ab634fcfb2bd6e83279af3c151531a277860001b61137b565b610ace7f04fa87bc7c4c8a5e042fce589cc9ccfa635a9af14f29c606e55ee8a9736a0f2d60001b61137b565b610ad8848461137e565b610b047f8228f72f078ac60df755057a527481a6412a9a18867fd73a94a49e2177c8201b60001b61137b565b610b307fa44f787d60cd4ac8f71a5a342a74a8063d189b8a92892f0fbf2b34514f9a9e6160001b61137b565b610b7e8383838080601f016020809104026020016040519081016040528093929190818152602001838380828437600081840152601f19601f82011690508083019250505050505050611558565b50505050565b6000600560008473ffffffffffffffffffffffffffffffffffffffff1673ffffffffffffffffffffffffffffffffffffffff16815260200190815260200160002060008373ffffffffffffffffffffffffffffffffffffffff1673ffffffffffffffffffffffffffffffffffffffff16815260200190815260200160002060009054906101000a900460ff16905092915050565b60007f01ffc9a7000000000000000000000000000000000000000000000000000000007bffffffffffffffffffffffffffffffffffffffffffffffffffffffff1916827bffffffffffffffffffffffffffffffffffffffffffffffffffffffff1916149050919050565b60008073ffffffffffffffffffffffffffffffffffffffff166002600084815260200190815260200160002060009054906101000a900473ffffffffffffffffffffffffffffffffffffffff1673ffffffffffffffffffffffffffffffffffffffff1614159050919050565b600033905090565b816004600083815260200190815260200160002060006101000a81548173ffffffffffffffffffffffffffffffffffffffff021916908373ffffffffffffffffffffffffffffffffffffffff160217905550808273ffffffffffffffffffffffffffffffffffffffff16610d6983610684565b73ffffffffffffffffffffffffffffffffffffffff167f8c5be1e5ebec7d5bd14f71427d1e84f3dd0314c0f7b2291e5b200ac8c7c3b92560405160405180910390a45050565b6000610dba82610c82565b610df9576040517f08c379a0000000000000000000000000000000000000000000000000000000008152600401610df0906121f1565b60405180910390fd5b6000610e0483610684565b90508073ffffffffffffffffffffffffffffffffffffffff168473ffffffffffffffffffffffffffffffffffffffff161480610e7357508373ffffffffffffffffffffffffffffffffffffffff16610e5b84610467565b73ffffffffffffffffffffffffffffffffffffffff16145b80610e845750610e838185610b84565b5b91505092915050565b8273ffffffffffffffffffffffffffffffffffffffff16610ead82610684565b73ffffffffffffffffffffffffffffffffffffffff1614610f03576040517f08c379a0000000000000000000000000000000000000000000000000000000008152600401610efa90612171565b60405180910390fd5b600073ffffffffffffffffffffffffffffffffffffffff168273ffffffffffffffffffffffffffffffffffffffff161415610f73576040517f08c379a0000000000000000000000000000000000000000000000000000000008152600401610f6a906121b1565b60405180910390fd5b610f7e8383836115cc565b610f89600082610cf6565b6001600360008573ffffffffffffffffffffffffffffffffffffffff1673ffffffffffffffffffffffffffffffffffffffff1681526020019081526020016000206000828254610fd9919061248c565b925050819055506001600360008473ffffffffffffffffffffffffffffffffffffffff1673ffffffffffffffffffffffffffffffffffffffff16815260200190815260200160002060008282546110309190612405565b92505081905550816002600083815260200190815260200160002060006101000a81548173ffffffffffffffffffffffffffffffffffffffff021916908373ffffffffffffffffffffffffffffffffffffffff160217905550808273ffffffffffffffffffffffffffffffffffffffff168473ffffffffffffffffffffffffffffffffffffffff167fddf252ad1be2c89b69c2b068fc378daa952ba7f163c4a11628f55a4df523b3ef60405160405180910390a46110ef8383836115d1565b505050565b8173ffffffffffffffffffffffffffffffffffffffff168373ffffffffffffffffffffffffffffffffffffffff161415611163576040517f08c379a000000000000000000000000000000000000000000000000000000000815260040161115a906121d1565b60405180910390fd5b80600560008573ffffffffffffffffffffffffffffffffffffffff1673ffffffffffffffffffffffffffffffffffffffff16815260200190815260200160002060008473ffffffffffffffffffffffffffffffffffffffff1673ffffffffffffffffffffffffffffffffffffffff16815260200190815260200160002060006101000a81548160ff0219169083151502179055508173ffffffffffffffffffffffffffffffffffffffff168373ffffffffffffffffffffffffffffffffffffffff167f17307eab39ab6107e8899845ad3d59bd9653f200f220920489ca2b5937696c31836040516112549190612114565b60405180910390a3505050565b61126c848484610e8d565b611278848484846115d6565b6112b7576040517f08c379a00000000000000000000000000000000000000000000000000000000081526004016112ae90612151565b60405180910390fd5b50505050565b606060405180602001604052806000815250905090565b60606112df82610c82565b61131e576040517f08c379a0000000000000000000000000000000000000000000000000000000008152600401611315906122f1565b60405180910390fd5b60006113286112bd565b905060008151116113485760405180602001604052806000815250611373565b806113528461176d565b604051602001611363929190612089565b6040516020818303038152906040525b915050919050565b50565b600073ffffffffffffffffffffffffffffffffffffffff168273ffffffffffffffffffffffffffffffffffffffff1614156113ee576040517f08c379a00000000000000000000000000000000000000000000000000000000081526004016113e590612291565b60405180910390fd5b6113f781610c82565b15611437576040517f08c379a000000000000000000000000000000000000000000000000000000000815260040161142e90612191565b60405180910390fd5b611443600083836115cc565b6001600360008473ffffffffffffffffffffffffffffffffffffffff1673ffffffffffffffffffffffffffffffffffffffff16815260200190815260200160002060008282546114939190612405565b92505081905550816002600083815260200190815260200160002060006101000a81548173ffffffffffffffffffffffffffffffffffffffff021916908373ffffffffffffffffffffffffffffffffffffffff160217905550808273ffffffffffffffffffffffffffffffffffffffff16600073ffffffffffffffffffffffffffffffffffffffff167fddf252ad1be2c89b69c2b068fc378daa952ba7f163c4a11628f55a4df523b3ef60405160405180910390a4611554600083836115d1565b5050565b61156182610c82565b6115a0576040517f08c379a000000000000000000000000000000000000000000000000000000000815260040161159790612271565b60405180910390fd5b806006600084815260200190815260200160002090805190602001906115c792919061193d565b505050565b505050565b505050565b60006115f78473ffffffffffffffffffffffffffffffffffffffff1661191a565b15611760578373ffffffffffffffffffffffffffffffffffffffff1663150b7a02611620610cee565b8786866040518563ffffffff1660e01b815260040161164294939291906120c8565b602060405180830381600087803b15801561165c57600080fd5b505af192505050801561168d57506040513d601f19601f8201168201806040525081019061168a9190611d37565b60015b611710573d80600081146116bd576040519150601f19603f3d011682016040523d82523d6000602084013e6116c2565b606091505b50600081511415611708576040517f08c379a00000000000000000000000000000000000000000000000000000000081526004016116ff90612151565b60405180910390fd5b805181602001fd5b63150b7a0260e01b7bffffffffffffffffffffffffffffffffffffffffffffffffffffffff1916817bffffffffffffffffffffffffffffffffffffffffffffffffffffffff191614915050611765565b600190505b949350505050565b606060008214156117b5576040518060400160405280600181526020017f30000000000000000000000000000000000000000000000000000000000000008152509050611915565b600082905060005b600082146117e75780806117d0906125d9565b915050600a826117e0919061245b565b91506117bd565b60008167ffffffffffffffff811115611829577f4e487b7100000000000000000000000000000000000000000000000000000000600052604160045260246000fd5b6040519080825280601f01601f19166020018201604052801561185b5781602001600182028036833780820191505090505b5090505b6000851461190e57600182611874919061248c565b9150600a856118839190612622565b603061188f9190612405565b60f81b8183815181106118cb577f4e487b7100000000000000000000000000000000000000000000000000000000600052603260045260246000fd5b60200101907effffffffffffffffffffffffffffffffffffffffffffffffffffffffffffff1916908160001a905350600a85611907919061245b565b945061185f565b8093505050505b919050565b6000808273ffffffffffffffffffffffffffffffffffffffff163b119050919050565b82805461194990612576565b90600052602060002090601f01602090048101928261196b57600085556119b2565b82601f1061198457805160ff19168380011785556119b2565b828001600101855582156119b2579182015b828111156119b1578251825591602001919060010190611996565b5b5090506119bf91906119c3565b5090565b5b808211156119dc5760008160009055506001016119c4565b5090565b60006119f36119ee84612391565b61236c565b905082815260208101848484011115611a0b57600080fd5b611a16848285612534565b509392505050565b600081359050611a2d81612b9e565b92915050565b600081359050611a4281612bb5565b92915050565b600081359050611a5781612bcc565b92915050565b600081519050611a6c81612bcc565b92915050565b600082601f830112611a8357600080fd5b8135611a938482602086016119e0565b91505092915050565b60008083601f840112611aae57600080fd5b8235905067ffffffffffffffff811115611ac757600080fd5b602083019150836001820283011115611adf57600080fd5b9250929050565b600081359050611af581612be3565b92915050565b600060208284031215611b0d57600080fd5b6000611b1b84828501611a1e565b91505092915050565b60008060408385031215611b3757600080fd5b6000611b4585828601611a1e565b9250506020611b5685828601611a1e565b9150509250929050565b600080600060608486031215611b7557600080fd5b6000611b8386828701611a1e565b9350506020611b9486828701611a1e565b9250506040611ba586828701611ae6565b9150509250925092565b60008060008060808587031215611bc557600080fd5b6000611bd387828801611a1e565b9450506020611be487828801611a1e565b9350506040611bf587828801611ae6565b925050606085013567ffffffffffffffff811115611c1257600080fd5b611c1e87828801611a72565b91505092959194509250565b60008060408385031215611c3d57600080fd5b6000611c4b85828601611a1e565b9250506020611c5c85828601611a33565b9150509250929050565b60008060408385031215611c7957600080fd5b6000611c8785828601611a1e565b9250506020611c9885828601611ae6565b9150509250929050565b60008060008060608587031215611cb857600080fd5b6000611cc687828801611a1e565b9450506020611cd787828801611ae6565b935050604085013567ffffffffffffffff811115611cf457600080fd5b611d0087828801611a9c565b925092505092959194509250565b600060208284031215611d2057600080fd5b6000611d2e84828501611a48565b91505092915050565b600060208284031215611d4957600080fd5b6000611d5784828501611a5d565b91505092915050565b600060208284031215611d7257600080fd5b6000611d8084828501611ae6565b91505092915050565b611d92816124c0565b82525050565b611da1816124d2565b82525050565b6000611db2826123c2565b611dbc81856123d8565b9350611dcc818560208601612543565b611dd58161270f565b840191505092915050565b6000611deb826123cd565b611df581856123e9565b9350611e05818560208601612543565b611e0e8161270f565b840191505092915050565b6000611e24826123cd565b611e2e81856123fa565b9350611e3e818560208601612543565b80840191505092915050565b6000611e576032836123e9565b9150611e6282612720565b604082019050919050565b6000611e7a6025836123e9565b9150611e858261276f565b604082019050919050565b6000611e9d601c836123e9565b9150611ea8826127be565b602082019050919050565b6000611ec06024836123e9565b9150611ecb826127e7565b604082019050919050565b6000611ee36019836123e9565b9150611eee82612836565b602082019050919050565b6000611f06602c836123e9565b9150611f118261285f565b604082019050919050565b6000611f296038836123e9565b9150611f34826128ae565b604082019050919050565b6000611f4c602a836123e9565b9150611f57826128fd565b604082019050919050565b6000611f6f6029836123e9565b9150611f7a8261294c565b604082019050919050565b6000611f92602e836123e9565b9150611f9d8261299b565b604082019050919050565b6000611fb56020836123e9565b9150611fc0826129ea565b602082019050919050565b6000611fd86031836123e9565b9150611fe382612a13565b604082019050919050565b6000611ffb602c836123e9565b915061200682612a62565b604082019050919050565b600061201e602f836123e9565b915061202982612ab1565b604082019050919050565b60006120416021836123e9565b915061204c82612b00565b604082019050919050565b60006120646031836123e9565b915061206f82612b4f565b604082019050919050565b6120838161252a565b82525050565b60006120958285611e19565b91506120a18284611e19565b91508190509392505050565b60006020820190506120c26000830184611d89565b92915050565b60006080820190506120dd6000830187611d89565b6120ea6020830186611d89565b6120f7604083018561207a565b81810360608301526121098184611da7565b905095945050505050565b60006020820190506121296000830184611d98565b92915050565b600060208201905081810360008301526121498184611de0565b905092915050565b6000602082019050818103600083015261216a81611e4a565b9050919050565b6000602082019050818103600083015261218a81611e6d565b9050919050565b600060208201905081810360008301526121aa81611e90565b9050919050565b600060208201905081810360008301526121ca81611eb3565b9050919050565b600060208201905081810360008301526121ea81611ed6565b9050919050565b6000602082019050818103600083015261220a81611ef9565b9050919050565b6000602082019050818103600083015261222a81611f1c565b9050919050565b6000602082019050818103600083015261224a81611f3f565b9050919050565b6000602082019050818103600083015261226a81611f62565b9050919050565b6000602082019050818103600083015261228a81611f85565b9050919050565b600060208201905081810360008301526122aa81611fa8565b9050919050565b600060208201905081810360008301526122ca81611fcb565b9050919050565b600060208201905081810360008301526122ea81611fee565b9050919050565b6000602082019050818103600083015261230a81612011565b9050919050565b6000602082019050818103600083015261232a81612034565b9050919050565b6000602082019050818103600083015261234a81612057565b9050919050565b6000602082019050612366600083018461207a565b92915050565b6000612376612387565b905061238282826125a8565b919050565b6000604051905090565b600067ffffffffffffffff8211156123ac576123ab6126e0565b5b6123b58261270f565b9050602081019050919050565b600081519050919050565b600081519050919050565b600082825260208201905092915050565b600082825260208201905092915050565b600081905092915050565b60006124108261252a565b915061241b8361252a565b9250827fffffffffffffffffffffffffffffffffffffffffffffffffffffffffffffffff038211156124505761244f612653565b5b828201905092915050565b60006124668261252a565b91506124718361252a565b92508261248157612480612682565b5b828204905092915050565b60006124978261252a565b91506124a28361252a565b9250828210156124b5576124b4612653565b5b828203905092915050565b60006124cb8261250a565b9050919050565b60008115159050919050565b60007fffffffff0000000000000000000000000000000000000000000000000000000082169050919050565b600073ffffffffffffffffffffffffffffffffffffffff82169050919050565b6000819050919050565b82818337600083830152505050565b60005b83811015612561578082015181840152602081019050612546565b83811115612570576000848401525b50505050565b6000600282049050600182168061258e57607f821691505b602082108114156125a2576125a16126b1565b5b50919050565b6125b18261270f565b810181811067ffffffffffffffff821117156125d0576125cf6126e0565b5b80604052505050565b60006125e48261252a565b91507fffffffffffffffffffffffffffffffffffffffffffffffffffffffffffffffff82141561261757612616612653565b5b600182019050919050565b600061262d8261252a565b91506126388361252a565b92508261264857612647612682565b5b828206905092915050565b7f4e487b7100000000000000000000000000000000000000000000000000000000600052601160045260246000fd5b7f4e487b7100000000000000000000000000000000000000000000000000000000600052601260045260246000fd5b7f4e487b7100000000000000000000000000000000000000000000000000000000600052602260045260246000fd5b7f4e487b7100000000000000000000000000000000000000000000000000000000600052604160045260246000fd5b6000601f19601f8301169050919050565b7f4552433732313a207472616e7366657220746f206e6f6e20455243373231526560008201527f63656976657220696d706c656d656e7465720000000000000000000000000000602082015250565b7f4552433732313a207472616e736665722066726f6d20696e636f72726563742060008201527f6f776e6572000000000000000000000000000000000000000000000000000000602082015250565b7f4552433732313a20746f6b656e20616c7265616479206d696e74656400000000600082015250565b7f4552433732313a207472616e7366657220746f20746865207a65726f2061646460008201527f7265737300000000000000000000000000000000000000000000000000000000602082015250565b7f4552433732313a20617070726f766520746f2063616c6c657200000000000000600082015250565b7f4552433732313a206f70657261746f7220717565727920666f72206e6f6e657860008201527f697374656e7420746f6b656e0000000000000000000000000000000000000000602082015250565b7f4552433732313a20617070726f76652063616c6c6572206973206e6f74206f7760008201527f6e6572206e6f7220617070726f76656420666f7220616c6c0000000000000000602082015250565b7f4552433732313a2062616c616e636520717565727920666f7220746865207a6560008201527f726f206164647265737300000000000000000000000000000000000000000000602082015250565b7f4552433732313a206f776e657220717565727920666f72206e6f6e657869737460008201527f656e7420746f6b656e0000000000000000000000000000000000000000000000602082015250565b7f45524337323155524953746f726167653a2055524920736574206f66206e6f6e60008201527f6578697374656e7420746f6b656e000000000000000000000000000000000000602082015250565b7f4552433732313a206d696e7420746f20746865207a65726f2061646472657373600082015250565b7f45524337323155524953746f726167653a2055524920717565727920666f722060008201527f6e6f6e6578697374656e7420746f6b656e000000000000000000000000000000602082015250565b7f4552433732313a20617070726f76656420717565727920666f72206e6f6e657860008201527f697374656e7420746f6b656e0000000000000000000000000000000000000000602082015250565b7f4552433732314d657461646174613a2055524920717565727920666f72206e6f60008201527f6e6578697374656e7420746f6b656e0000000000000000000000000000000000602082015250565b7f4552433732313a20617070726f76616c20746f2063757272656e74206f776e6560008201527f7200000000000000000000000000000000000000000000000000000000000000602082015250565b7f4552433732313a207472616e736665722063616c6c6572206973206e6f74206f60008201527f776e6572206e6f7220617070726f766564000000000000000000000000000000602082015250565b612ba7816124c0565b8114612bb257600080fd5b50565b612bbe816124d2565b8114612bc957600080fd5b50565b612bd5816124de565b8114612be057600080fd5b50565b612bec8161252a565b8114612bf757600080fd5b5056fea2646970667358221220466d27ee90b3b3a4419c36ebb459eb96941da2f33b806707834504db86f619c564736f6c63430008040033",
  "linkReferences": {},
  "deployedLinkReferences": {}
}