{
  "_format": "hh-sol-artifact-1",
  "contractName": "DiscountManager",
  "sourceName": "contracts/DiscountManager.sol",
  "abi": [
    {
      "inputs": [
        {
          "internalType": "address",
          "name": "treasury_",
          "type": "address"
        },
        {
          "internalType": "uint256",
          "name": "flatFee_",
          "type": "uint256"
        }
      ],
      "stateMutability": "nonpayable",
      "type": "constructor"
    },
    {
      "inputs": [
        {
          "internalType": "enum DiscountManager.ErrorCode",
          "name": "code",
          "type": "uint8"
        }
      ],
      "name": "DiscountManagerError",
      "type": "error"
    },
    {
      "anonymous": false,
      "inputs": [
        {
          "indexed": false,
          "internalType": "uint256",
          "name": "id",
          "type": "uint256"
        }
      ],
      "name": "DiscountAdded",
      "type": "event"
    },
    {
      "anonymous": false,
      "inputs": [
        {
          "indexed": false,
          "internalType": "uint256",
          "name": "id",
          "type": "uint256"
        }
      ],
      "name": "DiscountRemoved",
      "type": "event"
    },
    {
      "anonymous": false,
      "inputs": [
        {
          "indexed": false,
          "internalType": "uint256",
          "name": "flatFee",
          "type": "uint256"
        }
      ],
      "name": "FlatFeeUpdated",
      "type": "event"
    },
    {
      "anonymous": false,
      "inputs": [
        {
          "indexed": true,
          "internalType": "address",
          "name": "previousOwner",
          "type": "address"
        },
        {
          "indexed": true,
          "internalType": "address",
          "name": "newOwner",
          "type": "address"
        }
      ],
      "name": "OwnershipTransferred",
      "type": "event"
    },
    {
      "anonymous": false,
      "inputs": [
        {
          "indexed": false,
          "internalType": "address",
          "name": "treasury",
          "type": "address"
        }
      ],
      "name": "TreasuryUpdated",
      "type": "event"
    },
    {
      "inputs": [
        {
          "internalType": "address[]",
          "name": "tokens",
          "type": "address[]"
        },
        {
          "internalType": "uint256[]",
          "name": "tokenAmounts",
          "type": "uint256[]"
        },
        {
          "internalType": "uint256[]",
          "name": "tokenIds",
          "type": "uint256[]"
        },
        {
          "internalType": "uint256",
          "name": "percentage",
          "type": "uint256"
        },
        {
          "internalType": "uint256",
          "name": "startTime",
          "type": "uint256"
        },
        {
          "internalType": "uint256",
          "name": "endTime",
          "type": "uint256"
        }
      ],
      "name": "addDiscount",
      "outputs": [],
      "stateMutability": "nonpayable",
      "type": "function"
    },
    {
      "inputs": [
        {
          "internalType": "uint256",
          "name": "",
          "type": "uint256"
        }
      ],
      "name": "discounts",
      "outputs": [
        {
          "internalType": "uint256",
          "name": "percentage",
          "type": "uint256"
        },
        {
          "internalType": "uint256",
          "name": "startTime",
          "type": "uint256"
        },
        {
          "internalType": "uint256",
          "name": "endTime",
          "type": "uint256"
        }
      ],
      "stateMutability": "view",
      "type": "function"
    },
    {
      "inputs": [
        {
          "internalType": "address",
          "name": "user",
          "type": "address"
        },
        {
          "internalType": "uint256",
          "name": "id",
          "type": "uint256"
        }
      ],
      "name": "feeAmount",
      "outputs": [
        {
          "internalType": "uint256",
          "name": "amount",
          "type": "uint256"
        }
      ],
      "stateMutability": "view",
      "type": "function"
    },
    {
      "inputs": [],
      "name": "flatFee",
      "outputs": [
        {
          "internalType": "uint256",
          "name": "",
          "type": "uint256"
        }
      ],
      "stateMutability": "view",
      "type": "function"
    },
    {
      "inputs": [
        {
          "internalType": "address",
          "name": "user",
          "type": "address"
        }
      ],
      "name": "getAllDiscounts",
      "outputs": [
        {
          "components": [
            {
              "internalType": "address[]",
              "name": "tokens",
              "type": "address[]"
            },
            {
              "internalType": "uint256[]",
              "name": "tokenAmounts",
              "type": "uint256[]"
            },
            {
              "internalType": "uint256[]",
              "name": "tokenIds",
              "type": "uint256[]"
            },
            {
              "internalType": "uint256",
              "name": "percentage",
              "type": "uint256"
            },
            {
              "internalType": "uint256",
              "name": "startTime",
              "type": "uint256"
            },
            {
              "internalType": "uint256",
              "name": "endTime",
              "type": "uint256"
            }
          ],
          "internalType": "struct DiscountManager.Discount[]",
          "name": "list",
          "type": "tuple[]"
        },
        {
          "internalType": "enum DiscountManager.ErrorCode[]",
          "name": "validity",
          "type": "uint8[]"
        }
      ],
      "stateMutability": "view",
      "type": "function"
    },
    {
      "inputs": [
        {
          "internalType": "uint256",
          "name": "id",
          "type": "uint256"
        }
      ],
      "name": "getDiscount",
      "outputs": [
        {
          "components": [
            {
              "internalType": "address[]",
              "name": "tokens",
              "type": "address[]"
            },
            {
              "internalType": "uint256[]",
              "name": "tokenAmounts",
              "type": "uint256[]"
            },
            {
              "internalType": "uint256[]",
              "name": "tokenIds",
              "type": "uint256[]"
            },
            {
              "internalType": "uint256",
              "name": "percentage",
              "type": "uint256"
            },
            {
              "internalType": "uint256",
              "name": "startTime",
              "type": "uint256"
            },
            {
              "internalType": "uint256",
              "name": "endTime",
              "type": "uint256"
            }
          ],
          "internalType": "struct DiscountManager.Discount",
          "name": "",
          "type": "tuple"
        }
      ],
      "stateMutability": "view",
      "type": "function"
    },
    {
      "inputs": [],
      "name": "owner",
      "outputs": [
        {
          "internalType": "address",
          "name": "",
          "type": "address"
        }
      ],
      "stateMutability": "view",
      "type": "function"
    },
    {
      "inputs": [
        {
          "internalType": "uint256",
          "name": "id",
          "type": "uint256"
        }
      ],
      "name": "removeDiscount",
      "outputs": [],
      "stateMutability": "nonpayable",
      "type": "function"
    },
    {
      "inputs": [],
      "name": "renounceOwnership",
      "outputs": [],
      "stateMutability": "nonpayable",
      "type": "function"
    },
    {
      "inputs": [
        {
          "internalType": "address",
          "name": "newOwner",
          "type": "address"
        }
      ],
      "name": "transferOwnership",
      "outputs": [],
      "stateMutability": "nonpayable",
      "type": "function"
    },
    {
      "inputs": [],
      "name": "treasury",
      "outputs": [
        {
          "internalType": "address",
          "name": "",
          "type": "address"
        }
      ],
      "stateMutability": "view",
      "type": "function"
    },
    {
      "inputs": [
        {
          "internalType": "uint256",
          "name": "flatFee_",
          "type": "uint256"
        }
      ],
      "name": "updateFlatFee",
      "outputs": [],
      "stateMutability": "nonpayable",
      "type": "function"
    },
    {
      "inputs": [
        {
          "internalType": "address",
          "name": "treasury_",
          "type": "address"
        }
      ],
      "name": "updateTreasuryAddress",
      "outputs": [],
      "stateMutability": "nonpayable",
      "type": "function"
    }
  ],
  "bytecode": "0x60806040523480156200001157600080fd5b5060405162004cbf38038062004cbf833981810160405281019062000037919062000318565b620000576200004b6200021b60201b60201c565b6200022360201b60201c565b6200008b7f05b21032fbc2f4910210be3d2e82c10229378f5dc31a342367190035ea330a0e60001b620002e760201b60201c565b620000bf7f20b713ff001295f70a0f29974dceb4c368680e104d231120f4c677324d1801f360001b620002e760201b60201c565b620000f37f36f3a9d89824732cb52191ea61eafd56df7bed6e9ab19dc8e7f91d8f013f176d60001b620002e760201b60201c565b81600360006101000a81548173ffffffffffffffffffffffffffffffffffffffff021916908373ffffffffffffffffffffffffffffffffffffffff160217905550620001687fc7b805f637603dae25a01aa609fc9faf9ef8d4793a5cfa34820b8e121bffec7360001b620002e760201b60201c565b6200019c7fd6d9dcaa74aa95bfcfb7eed9a57f0ad7dcd35221524a365c16ca43cd6a4a7f5560001b620002e760201b60201c565b80600281905550620001d77f31ec0341f0f371b200c477eb4b2c539e816489b1531b49741e99d28c012313ad60001b620002e760201b60201c565b6200020b7ffc8a12660d4519531a1d49887afdf6258226fe9e7fcfa91a3fe8bc66ab5398e860001b620002e760201b60201c565b60016004819055505050620003cb565b600033905090565b60008060009054906101000a900473ffffffffffffffffffffffffffffffffffffffff169050816000806101000a81548173ffffffffffffffffffffffffffffffffffffffff021916908373ffffffffffffffffffffffffffffffffffffffff1602179055508173ffffffffffffffffffffffffffffffffffffffff168173ffffffffffffffffffffffffffffffffffffffff167f8be0079c531659141344cd1fd0a4f28419497f9722a3daafe3b4186f6b6457e060405160405180910390a35050565b50565b600081519050620002fb8162000397565b92915050565b6000815190506200031281620003b1565b92915050565b600080604083850312156200032c57600080fd5b60006200033c85828601620002ea565b92505060206200034f8582860162000301565b9150509250929050565b600062000366826200036d565b9050919050565b600073ffffffffffffffffffffffffffffffffffffffff82169050919050565b6000819050919050565b620003a28162000359565b8114620003ae57600080fd5b50565b620003bc816200038d565b8114620003c857600080fd5b50565b6148e480620003db6000396000f3fe608060405234801561001057600080fd5b50600436106100cf5760003560e01c8063841e45611161008c578063d9eb594711610066578063d9eb5947146101ec578063e496c3e21461020a578063f1f30dbf1461023a578063f2fde38b1461026b576100cf565b8063841e4561146101805780638da5cb5b1461019c578063bae6a690146101ba576100cf565b80631fe44931146100d45780632336dbe4146100f057806329d80f66146101205780634805a34a1461013c57806361d027b314610158578063715018a614610176575b600080fd5b6100ee60048036038101906100e99190613e2b565b610287565b005b61010a60048036038101906101059190613e2b565b610597565b604051610117919061437e565b60405180910390f35b61013a60048036038101906101359190613d23565b61093e565b005b61015660048036038101906101519190613e2b565b611439565b005b6101606115d4565b60405161016d919061428d565b60405180910390f35b61017e6115fa565b005b61019a60048036038101906101959190613c95565b611682565b005b6101a4611877565b6040516101b1919061428d565b60405180910390f35b6101d460048036038101906101cf9190613e2b565b6118a0565b6040516101e3939291906143bb565b60405180910390f35b6101f46118ca565b60405161020191906143a0565b60405180910390f35b610224600480360381019061021f9190613ce7565b6118d0565b60405161023191906143a0565b60405180910390f35b610254600480360381019061024f9190613c95565b611e37565b6040516102629291906142d1565b60405180910390f35b61028560048036038101906102809190613c95565b612a63565b005b61028f612b5b565b73ffffffffffffffffffffffffffffffffffffffff166102ad611877565b73ffffffffffffffffffffffffffffffffffffffff1614610303576040517f08c379a00000000000000000000000000000000000000000000000000000000081526004016102fa9061435e565b60405180910390fd5b61032f7f46061fc7b0e26fb7491867b7a3197e602df252a5d2e5b50da9f2ef2e2688d23a60001b612b63565b61035b7f4af59995ddbe9a74dca25b6e86516f52d5a3c80d7442f36e63fc40afde3cfb9960001b612b63565b6103877f0dfee78cde2b031c51ccb5de6546f6df23f2c2ba11f809a02087fe2d6de8f8d060001b612b63565b60006001600083815260200190815260200160002090506103ca7f391acdd56fe1ee03fd6f5da291fecf017ab9c75e10ae048aa4ac05d868a80e0060001b612b63565b6103f67fb827c7353b7d1be1e0171d778070f355a741b757e94f77e9c6bb9b78c811ead760001b612b63565b60008160000180549050141561049c576104327fd498b3e4f95534ba94e66c27943b1fe5495489a2fe2ca0ed6dfedd78e2409b7e60001b612b63565b61045e7f690ca7466dcd03346b4b7591efe6eb7ddd68dd36c790bdc7e5e6cd7ff610fbd560001b612b63565b60016040517fb3ed8fcc0000000000000000000000000000000000000000000000000000000081526004016104939190614323565b60405180910390fd5b6104c87f799d6097710a584b80e65ca7b856df57ff52f63077d752301c4d123237ba187160001b612b63565b6104f47fc63185a7d120d203a0cfae7b70177196b00ee2af83cb9b9a6699fc3e7a88711860001b612b63565b8060000160006105049190613a37565b6105307f49a74908ef98f2c458756e41d19cc5690a366d8ad5414f91eb38603ace7374f460001b612b63565b61055c7ffefdf59f0746b202c05e2903deb7f52624e9c4279a2dad2c8f9074e17e63fed460001b612b63565b7ff456bb8bc043d21147240564bf0f9952a0b4abb189131b9cc6c45ab3ad30bda28260405161058b91906143a0565b60405180910390a15050565b61059f613a58565b6105cb7f0eff0b147b022c948f28a9d0aaf57cdafffe79e2ee0e3f777519e0111916b6de60001b612b63565b6105f77f4cc4c5fae1a390243f7ca9b09b2aa47f65ebb66936a7c10fa90d31ec4143daf460001b612b63565b6106237f179e117f93a02496d97421b3eda84c59b81fffc59c9a57bef3cbdf00d7df118c60001b612b63565b60006001600084815260200190815260200160002090506106667f073e1924f69cd74fa9836a43ffb34dbe7263ba2239484976e5ac7210b72b530360001b612b63565b6106927ff4c9a4fdf44689caccd908937728cc9439a4780bc6ad518998939baf362ea30160001b612b63565b600081600001805490501415610738576106ce7ff94a21675e9584583d044d3782d1e4c1b6afba503b407b64ffc114e24eba113f60001b612b63565b6106fa7f69c7ed31c74e25faabd9599de8a95e1dc775ea7a3f7d4064460620a75795e8ad60001b612b63565b60016040517fb3ed8fcc00000000000000000000000000000000000000000000000000000000815260040161072f9190614323565b60405180910390fd5b6107647ff1be9cedae9dcc6ac16e72702a98293d06190e01904e3a27d626489dd07440f460001b612b63565b6107907fa02e4ef610ac442afd78fd012d5266feaf98140763c00be6afb5529323e2b86b60001b612b63565b6107bc7f2b1067c64a0db87d9a56bd1d6ad645e534e38620e025fc1d666ee3a244a07fd460001b612b63565b600160008481526020019081526020016000206040518060c00160405290816000820180548060200260200160405190810160405280929190818152602001828054801561085f57602002820191906000526020600020905b8160009054906101000a900473ffffffffffffffffffffffffffffffffffffffff1673ffffffffffffffffffffffffffffffffffffffff1681526020019060010190808311610815575b50505050508152602001600182018054806020026020016040519081016040528092919081815260200182805480156108b757602002820191906000526020600020905b8154815260200190600101908083116108a3575b505050505081526020016002820180548060200260200160405190810160405280929190818152602001828054801561090f57602002820191906000526020600020905b8154815260200190600101908083116108fb575b505050505081526020016003820154815260200160048201548152602001600582015481525050915050919050565b610946612b5b565b73ffffffffffffffffffffffffffffffffffffffff16610964611877565b73ffffffffffffffffffffffffffffffffffffffff16146109ba576040517f08c379a00000000000000000000000000000000000000000000000000000000081526004016109b19061435e565b60405180910390fd5b6109e67f6649aad21194316f84a1bd66fb99cad96389c4b7045ce089149b42a325fc0d2f60001b612b63565b610a127f3b3fe445bea5f9b588e531cd1dc9142a1fa049e6714f23d22bee3ed92c1d618d60001b612b63565b610a3e7ffc8a0386460e59d9a43acc4a2252b0f703374e51e0d4a541c35d4e3fe88d5dc760001b612b63565b6000898990501415610ae057610a767f3122d792fd45e697d97a135e74e30ca51e5f0cc239316bd1eacad09a8657b1f560001b612b63565b610aa27f47635c9b7c898c0a7b1f91776fa38b06f1aead806b17101bce77e62632154cb760001b612b63565b60076040517fb3ed8fcc000000000000000000000000000000000000000000000000000000008152600401610ad79190614323565b60405180910390fd5b610b0c7ffa3f14fff4a6f1833ac87f88b27342b8377c621759183a72f73c230010e0aba060001b612b63565b610b387f67f1cb56cf0f38db6a0383839e05476656e2bd9c651037cd8513709a0b66b42960001b612b63565b610b647f2aed7c0f5c777a4f83b6572f6944cae312546f078ded0a5256af108905fc2dc960001b612b63565b8686905089899050141580610b7f5750848490508989905014155b15610c1a57610bb07fa86bbb8166acd839e747d4fd1a2fbb8e05a552669d91dfcd3bf2c49e4c48f0d560001b612b63565b610bdc7f94ea6247c296dbdb22e99a504302fc449a08522e4c589e34cd11b577c1a200b160001b612b63565b60066040517fb3ed8fcc000000000000000000000000000000000000000000000000000000008152600401610c119190614323565b60405180910390fd5b610c467f574a53a2ec3b69fdf32f1fc7367556a242cb0c56f3e32fb653b913f344e9309560001b612b63565b610c727f4348f59a4072b3867075ff62a7ce020e448255afeca7c2a47884d33d486a3fcd60001b612b63565b610c9e7fea56f82981e13d27058b1a47c7ff2a226a4fcaa3b55014a07c94f871830b481260001b612b63565b620f4240831115610d3f57610cd57f1c13fb049f0a164019502047dad3144cd57f1a6972dbf37e93a9136479a9f32660001b612b63565b610d017fd25135499c64d7e30df7a836330d2838649909d67ced62d7d12b9959a08d292d60001b612b63565b60056040517fb3ed8fcc000000000000000000000000000000000000000000000000000000008152600401610d369190614323565b60405180910390fd5b610d6b7f7d182155b83b69ff041eae2e881832c7800ae290b9430f7f6cf78bca422661fb60001b612b63565b610d977f62e2c6cc139591e73227b76ccb6646dfa7c2b9a3b9b5b4f693bfa49c15a9075a60001b612b63565b610dc37f98765841f3736c3363437c03a1396bf4227dcaeae60130f47d5875aba2598ca460001b612b63565b60006001600060045481526020019081526020016000209050610e087f13b23be2f9e5b6347de434119bb88719eb1b705dc8c64c7988bb61bb570c709460001b612b63565b610e347f8b6831ca5460ce98640c64392c5fd79738c222ba11c4639f94f4a4daf4dec94b60001b612b63565b8989826000019190610e47929190613a8e565b50610e747f1aa023b96883f3ad01dda3d68252081cb21a6d7bf0c3488b3a199f130506aa2560001b612b63565b610ea07f5e7e10fd9ec966d5155bfe387ae10e27cea3fb15193fae227a08e2f8166d824860001b612b63565b8787826001019190610eb3929190613b2e565b50610ee07ff738a4c1d0afa8959d0912ffb7514a810dfbc4f7ecf586ce2622d89cb41914b160001b612b63565b610f0c7fe845f14313075706e06221699de37d1e39cbf0dceb1d24ead6dff2a771cfce7360001b612b63565b8585826002019190610f1f929190613b2e565b50610f4c7fc604205f37dae911810fa65077e25954ef1e8ab1e68663e9614c957f1d94316960001b612b63565b610f787ff1dcb2b5e00fbd0dd7a3191934d67f683ee1f610cdecdf583223f79a8b6016f060001b612b63565b600084111561101357610fad7f214b17616075c474d44a667550fc93091ce669f7f4eb93fb666e0c37f5e9e88160001b612b63565b610fd97f486d32224c6561d39306509fa2e3a6dde5a1f9dc4164fe3b2eaea147633f5e5c60001b612b63565b6110057fb821ff8a8b6a70b4be91ddb67e2a14180adda57fec04fbd6d988bec0a16fd77c60001b612b63565b838160030181905550611040565b61103f7f6114b7a8cd6849a45473a875bd98db4d790bb054795f46f8c26bd8eef925fd5260001b612b63565b5b61106c7f2fb6a15438aac1d0b19d7967b280217bf065765af91f4db70254c9636492f15460001b612b63565b6110987f2236358595bcd05cdac03f31a0b5b0075960e7420d53b7fe125c35e4e95791fe60001b612b63565b6000831115611133576110cd7fe328ec7b6c0bea5ac21e37c9c77def239d0966e292d94a8174b63490bbdccdf160001b612b63565b6110f97f4ec187c87ab868b76994d2f0b2ea38927c941895d370d1da2914cbdb7615302a60001b612b63565b6111257f3da937c43230c6b47eab5e0299a2fa1c3d8068113b5e7ebde37f17501424d22c60001b612b63565b828160040181905550611160565b61115f7f2d820bbb509fd2013ee5b823df4feb940b69d21c47de1321d21643fdaf2ccc2760001b612b63565b5b61118c7f47a3e05aeafc55975d1b8378f2c2ca56d56e8f6c21f879c8baf4e4ca3ede110c60001b612b63565b6111b87f100be499d567400c1ec00598c56b19c82448678fbf98cb6d62ed9d369db50c6460001b612b63565b6000821115611253576111ed7fb4062c05bf6a2262644f9172a38c93881be5c2e87db89816b374ef0cd849d73560001b612b63565b6112197fd78f48ad4c96a81b57ba5af327ef9de20ed5d2ca9db7ba38cfee58d3c9cb995660001b612b63565b6112457f75fbbea1cb6db2906ccaeee64f0ee956148c2b6d309006e974531bf613f9de4060001b612b63565b818160050181905550611301565b61127f7f8c2e67d55c4bafbc47f6ed887ee8720040cbe815e8f0c75ab9d2ab6ccaf30a2f60001b612b63565b6112ab7f46ee5d6de7060cbb7c90c9b581659b0487008238b7e1ac9155203eebfe1a7b8b60001b612b63565b6112d77fca140ef79dffb3679835649d97dd9114f6dd5996ab766f746cdd34015c75a32860001b612b63565b7fffffffffffffffffffffffffffffffffffffffffffffffffffffffffffffffff81600501819055505b61132d7f84f57e6e7199f0d62adf0bdf491bfe418c2e4fbba23a8665278866bef96975f460001b612b63565b6113597f0eca8ff888d11f5b072f803efd8bd7fca822e4f15b6998cf131f4e2d1e906b6b60001b612b63565b6000600454905061138c7f3ed895ed2df2a7fb9775ba3e8bbd7ebc63aeab4f95f0deb73542e52e40838dea60001b612b63565b60016004600082825401925050819055506113c97febb40d1595b328f12f1df2c3baee000333f6fdce2a94b11d95014ee3da98f0b560001b612b63565b6113f57fcce2a4e8157b16b8e8ba08fd05061c51d1dc3f5a6f351ee8407c6276c10a820b60001b612b63565b7fc6da1ddc33d02d6c58c0b2e6927b1022b0b33ea54a992552ee01c3c7fee8dd938160405161142491906143a0565b60405180910390a15050505050505050505050565b611441612b5b565b73ffffffffffffffffffffffffffffffffffffffff1661145f611877565b73ffffffffffffffffffffffffffffffffffffffff16146114b5576040517f08c379a00000000000000000000000000000000000000000000000000000000081526004016114ac9061435e565b60405180910390fd5b6114e17f101214c4d5a63252b53bcfc39076b035a268bf6371599098c809e24bf95dbc2a60001b612b63565b61150d7ff86d6c958dabec3b0764b43d1d0161c014aedea84d39eff18810039d147c6e6460001b612b63565b6115397f8aaf1cf35a2ac3d318d820185cafd6b45eee79d6d3735b4a49d873090cd11c2660001b612b63565b8060028190555061156c7ff0ad2d6677a0440f2fadcdb8e68e398c78d908805a4d34dfa03e9eb9c777d54a60001b612b63565b6115987ff72e60f308f2f708b23fd239ec1bdf645c3a63a85db3b9157e5e628259f0481060001b612b63565b7f2dfc898b3677e9a8db0ccd358b29e83d409f092f876498f4cf135d707165f85f6002546040516115c991906143a0565b60405180910390a150565b600360009054906101000a900473ffffffffffffffffffffffffffffffffffffffff1681565b611602612b5b565b73ffffffffffffffffffffffffffffffffffffffff16611620611877565b73ffffffffffffffffffffffffffffffffffffffff1614611676576040517f08c379a000000000000000000000000000000000000000000000000000000000815260040161166d9061435e565b60405180910390fd5b6116806000612b66565b565b61168a612b5b565b73ffffffffffffffffffffffffffffffffffffffff166116a8611877565b73ffffffffffffffffffffffffffffffffffffffff16146116fe576040517f08c379a00000000000000000000000000000000000000000000000000000000081526004016116f59061435e565b60405180910390fd5b61172a7f625e7d7ab5548cc5ffc9ed682bb2d67161260028324ab42c6872347c7afad50a60001b612b63565b6117567f77d5f5533e5ede2467efd836093fb7c98bffeaae67f8905a45d144755197e52160001b612b63565b6117827f405cb2ef4380f19b63a52137306739e04e0da4d43e79b1f689beb5c7f3c565d760001b612b63565b80600360006101000a81548173ffffffffffffffffffffffffffffffffffffffff021916908373ffffffffffffffffffffffffffffffffffffffff1602179055506117ef7fe3829c9abc820a405422308f4443b7c20104b970c42d980e1db59c7895de8b5160001b612b63565b61181b7f6891b9348d966e6c5b7c20f3906b58fd31dd5e138d87ac8291cd4af928c4e26760001b612b63565b7f7dae230f18360d76a040c81f050aa14eb9d6dc7901b20fc5d855e2a20fe814d1600360009054906101000a900473ffffffffffffffffffffffffffffffffffffffff1660405161186c919061428d565b60405180910390a150565b60008060009054906101000a900473ffffffffffffffffffffffffffffffffffffffff16905090565b60016020528060005260406000206000915090508060030154908060040154908060050154905083565b60025481565b60006118fe7f7d8a3d429521faf0df0ac1d37d395e2d469092f279d05234bfdb5193fafa0cb060001b612b63565b61192a7f85c5680bf978f2d0ddc08a1e66fd4ea84d1de0c5baf113af5c5ea3bd4588f12060001b612b63565b6119567f41be3bbb33ac8a73f68dd2343c6e421705a10896215fc45072f8b40baa4df19960001b612b63565b60025490506119877f54b1a746daca117651cdc141a031c3e024d1fbb87f8b5b433559974c547f890e60001b612b63565b6119b37f6aebb1a6f3001e03a04680a64cc02ae42f38b516f547d38380e01249a4f7e89960001b612b63565b6000821115611e04576119e87f14ef099cd134d8ee4ee3b0d4293b7eaaf12040c2848b735d67997c1af2cac7d360001b612b63565b611a147f62a9e1c5347ff90e9c5044ce53f3283d9ef82e217e822d3b61f8fb69eb8807ed60001b612b63565b611a407fcf73f2133f2355f33f1d365375966c55791c6a449f60a3463b6fd199d848997660001b612b63565b6000600160008481526020019081526020016000209050611a837f6c7756087acb7474196c3f5884e83c9e1649d8c3d948e57077d29c6c9bd6551160001b612b63565b611aaf7f61ec3fb49c59094449f9b175cd26fb922ffcb7d8b5f76e6cf375d6a3dd1a8ca060001b612b63565b600081600001805490501415611b5557611aeb7f1e2f956af6125e5be0bb427a3a438fa02dce8f64868219ee5929f17e4b69b54260001b612b63565b611b177f5fa2cf89168af5107eb33d6bb8dd4963568ce3500664c97c243e25bfb4cba8cc60001b612b63565b60016040517fb3ed8fcc000000000000000000000000000000000000000000000000000000008152600401611b4c9190614323565b60405180910390fd5b611b817f5e307b2f165cb114980c75af0730a3bfbd55ddddb7fac9d7b5d757286e4203f160001b612b63565b611bad7f3053fd05a9f586bf5d0573f30b852ebaa7071f46b683ac946b1e1a5944bec1d660001b612b63565b611bd97f994ea04657540456f70b6250cb0929c5f68430fc762d2b5a43e738b11e3ac80b60001b612b63565b6000611be58286612c2a565b9050611c137f01b12dd487a439f5445bd7140cb40976513d0e6b8e05f38def8a2e53f401f4e760001b612b63565b611c3f7fc36edd1723699fc42b6b0d0a4dc80c2c42ab50e18bb868ed767bb91b0dff633560001b612b63565b60006007811115611c79577f4e487b7100000000000000000000000000000000000000000000000000000000600052602160045260246000fd5b816007811115611cb2577f4e487b7100000000000000000000000000000000000000000000000000000000600052602160045260246000fd5b14611d4c57611ce37fa0c84a5c89068160cdf0bd9ec040caab309584f2f8e4b6937c15eed8abf2e8a360001b612b63565b611d0f7fb3be19efa84fd4ed7e52d13beaeb33aa293a41077128af019f39450cebc8e54060001b612b63565b806040517fb3ed8fcc000000000000000000000000000000000000000000000000000000008152600401611d439190614323565b60405180910390fd5b611d787f2c81d3c463e716821d182a4e5f9ab7428a9921713e76d5b104198677c909005560001b612b63565b611da47fc8b2c6b1e19118bd6278bccbd4f80634c4246af08368129d4b63eab229e77b5460001b612b63565b611dd07f4fdbf0408848309ceed9bc329f53ef4b3b4663af6560d3a91b9a9582d8b9c36d60001b612b63565b620f42408260030154600254611de69190614584565b611df09190614553565b83611dfb91906145de565b92505050611e31565b611e307fb6cab2ed08daf4f0acf750db48bb682a38983648758f6ea72651a6e83625b21960001b612b63565b5b92915050565b606080611e667f452b3d3b627c3ac730f4874dd9c26e8a8064021d28764425b6637516f12ef98960001b612b63565b611e927f278024af36160a93da2e8e2eedca276bfc13e99cfaabb982ce4a8330e0e09b6a60001b612b63565b611ebd7e0a159a9021c039ffb68585a60e8c640461cbd1b6bc9adb7450a433979dd9ff60001b612b63565b6000611eeb7fa4b6747d64c77b988d24d6f6ea2eb88bff47ecbab06cae0c9f81da2b2b1b011e60001b612b63565b611f177f902a737868caeecffae1eb5b9d0b970ff01f4b351856fff97080fbfd68555e4d60001b612b63565b60005b60045481101561207657611f507ff4bc7670b2a9b73527d87a8df724226829647e9cd721bb3308c5b9c61d81a8c960001b612b63565b611f7c7fed390090cc942d4766b93d27cfcc436c7d3ffc607c661d6c8ef9099355ebfa5060001b612b63565b60006001600083815260200190815260200160002060000180549050111561203657611fca7facc2b7fbf3355c18bd180fcaa70346715285195afdaa4d0d022845be04e4776c60001b612b63565b611ff67fce65e550696efb186a44e07f223d19fad4c98b5e6985d45f95ab8668c5375b6a60001b612b63565b6120227ff47a63a15d24843499e962af890b68862eea12e2217fd0b6e162f66bf83f91b260001b612b63565b60018261202f91906144fd565b9150612063565b6120627f355f1cc6aabe0f9178822209b9d06ed058887b0e2ef3018792d98fb32b9e768260001b612b63565b5b808061206e906146f0565b915050611f1a565b506120a37f06e983acd7f92460cdbb8d8c57ea26267ca465a73628bc89164e1448184effe060001b612b63565b6120cf7fa223e667a18641a23d60f6f1a9ba00518e0333d12c45bc32b16e904c7b25e5ea60001b612b63565b8067ffffffffffffffff81111561210f577f4e487b7100000000000000000000000000000000000000000000000000000000600052604160045260246000fd5b60405190808252806020026020018201604052801561214857816020015b612135613a58565b81526020019060019003908161212d5790505b5092506121777f678d1adfa690c9078a7c44bc04b8334496084c02d00e284e5ee2235b1b26c35560001b612b63565b6121a37fc790f8273c96a01518f8511581d015722ee0c4be668b2d012123505bb48fdfd260001b612b63565b8067ffffffffffffffff8111156121e3577f4e487b7100000000000000000000000000000000000000000000000000000000600052604160045260246000fd5b6040519080825280602002602001820160405280156122115781602001602082028036833780820191505090505b5091506122407f74499433f36cc76e0175abcbe7fa317f4fd6ed18c89dff345b46260611399a6f60001b612b63565b61226c7f7b399d5cdab8a46767150a3ed2777afeb69e8f87847aeb6020fc7e988da3fe3960001b612b63565b600061229a7f246a10af82588648305b916cb3f936654e007d51fb5437d997099660d15cee0160001b612b63565b6122c67fc0339e4196d922e062408df650d895ea7ef9628e7ab714322d3bae6d354e285460001b612b63565b6000821115612a2f576122fb7f770d493e3eeb1d373233237ae8d155f8923096273e50b6fafb3cc3cf3dcc99ff60001b612b63565b6123277f2906662c96a9acd79eaecd4b2e36fcfb2905c73446daa6725b73ea618eb15ac060001b612b63565b6123537f413060699c06643da97cb804f979ff09a9c984a93ca046171fb332850e2405e560001b612b63565b60005b600454811015612a295761238c7fe8db6f9cf4c03d3ce4aaa556a0ec54b16671fd66999a2b384f701ccf9ea8d7e760001b612b63565b6123b87f0801809bb491eec83805698d828b99c0adb11472334481e1c13d2dbc7c6369e860001b612b63565b60006001600083815260200190815260200160002090506123fb7f6f75ca713c673ae48baf950f30d1dcdb8b64ce91336beca6ac4293e9eb28498f60001b612b63565b6124277f42f141a45ed8ee056f1b5f7d8f288ceeb341f1a2d0b40fe32c684ad17b88ab2360001b612b63565b6000816000018054905011156129e8576124637f8a4ab6663651fba73edb84bd82332c7aee7fb9f151168d9e5ddc4c9153a45c5e60001b612b63565b61248f7f0320bcd49e2fcc165b8a1b956238ed8353f975f0535942633b24de2c8a8976cc60001b612b63565b6124bb7f33a46c9e1178201b51c7fa7751fbd47ce2299b518dbab5baed504cb283b8036360001b612b63565b806040518060c00160405290816000820180548060200260200160405190810160405280929190818152602001828054801561254c57602002820191906000526020600020905b8160009054906101000a900473ffffffffffffffffffffffffffffffffffffffff1673ffffffffffffffffffffffffffffffffffffffff1681526020019060010190808311612502575b50505050508152602001600182018054806020026020016040519081016040528092919081815260200182805480156125a457602002820191906000526020600020905b815481526020019060010190808311612590575b50505050508152602001600282018054806020026020016040519081016040528092919081815260200182805480156125fc57602002820191906000526020600020905b8154815260200190600101908083116125e8575b50505050508152602001600382015481526020016004820154815260200160058201548152505086848151811061265c577f4e487b7100000000000000000000000000000000000000000000000000000000600052603260045260246000fd5b60200260200101819052506126937f011026c8b4231bfd81695b5c36bcc2efb1f89b24f8855076373b8c1a00586e2160001b612b63565b6126bf7f3e18b00cd22cf0f495cd74fc79914d390345f085b5016e9db418ac58f7b3b76160001b612b63565b600073ffffffffffffffffffffffffffffffffffffffff168773ffffffffffffffffffffffffffffffffffffffff161415612836576127207f5eb7fc7f64ec6448b42f259110aeacb90c82fe9f60de370888233238bec853bf60001b612b63565b61274c7fee85e27243bb15c59a024e4edf91d37b197d0b6c5c82fdd312bf9c2e329ab0ab60001b612b63565b6127787f41df59c4a66e8021f3eda2eb63712fd17f06a96a908ded4bf1ceaf594d4f56bc60001b612b63565b60008584815181106127b3577f4e487b7100000000000000000000000000000000000000000000000000000000600052603260045260246000fd5b602002602001019060078111156127f3577f4e487b7100000000000000000000000000000000000000000000000000000000600052602160045260246000fd5b9081600781111561282d577f4e487b7100000000000000000000000000000000000000000000000000000000600052602160045260246000fd5b8152505061297c565b6128627f23052ddf3acc61dc397b3704ef14ac19decb08ab680a925e796834265861c24f60001b612b63565b61288e7f9aef34177f9ef348ae58c1325807b3ed0f398ea6d65f1ddbf518fe6544da89a760001b612b63565b6128ba7f37a5a8622735807d6be64eec8cd1246714c968a699d948d98002dfdabe43149360001b612b63565b6128c48188612c2a565b8584815181106128fd577f4e487b7100000000000000000000000000000000000000000000000000000000600052603260045260246000fd5b6020026020010190600781111561293d577f4e487b7100000000000000000000000000000000000000000000000000000000600052602160045260246000fd5b90816007811115612977577f4e487b7100000000000000000000000000000000000000000000000000000000600052602160045260246000fd5b815250505b6129a87f4e17de786ad907189ce3879cdc1a54754ba2795d918e7b59a5e0ac71c764f26260001b612b63565b6129d47f0d4e0f0e57ead7e227813281aed52d1e8fbc7206ddf02a449feb87a08e32b0fe60001b612b63565b6001836129e191906144fd565b9250612a15565b612a147f6f5e7728d0745ccea1926a76c656660f62af5b5813398cb96af6e75aa71fd21560001b612b63565b5b508080612a21906146f0565b915050612356565b50612a5c565b612a5b7fa7fd8d5d60594571f3435ad2288e4ee34ad2dab77e149e94ac05cc76b79c3cd260001b612b63565b5b5050915091565b612a6b612b5b565b73ffffffffffffffffffffffffffffffffffffffff16612a89611877565b73ffffffffffffffffffffffffffffffffffffffff1614612adf576040517f08c379a0000000000000000000000000000000000000000000000000000000008152600401612ad69061435e565b60405180910390fd5b600073ffffffffffffffffffffffffffffffffffffffff168173ffffffffffffffffffffffffffffffffffffffff161415612b4f576040517f08c379a0000000000000000000000000000000000000000000000000000000008152600401612b469061433e565b60405180910390fd5b612b5881612b66565b50565b600033905090565b50565b60008060009054906101000a900473ffffffffffffffffffffffffffffffffffffffff169050816000806101000a81548173ffffffffffffffffffffffffffffffffffffffff021916908373ffffffffffffffffffffffffffffffffffffffff1602179055508173ffffffffffffffffffffffffffffffffffffffff168173ffffffffffffffffffffffffffffffffffffffff167f8be0079c531659141344cd1fd0a4f28419497f9722a3daafe3b4186f6b6457e060405160405180910390a35050565b6000612c587f133260651be89fdaaf742a93aba16d6850fadd0986350228636c4ad5c785484160001b612b63565b612c847f89f548d99fa539e8f74e7866f4d31b3d1569081fc7bec3eb5ed1a39a07d0d73f60001b612b63565b612cb07f939e104793196335e46586914c51b9bb1d48d9869f80c168a5001343cfe80b1a60001b612b63565b8260040154421080612cc55750826005015442115b15612d5757612cf67fdd11bccfc05131ee95d9518824d88d0b5cb7de93aaf38602b980e031f7823b9460001b612b63565b612d227f59e5e0d0c4a5d556c4c22dd7b58248fcf3f91ed57b7d8dba5dd1eb96f9862e9e60001b612b63565b612d4e7f3bc8d36d5902b4d0ee067b0cc1daa6beb95debd7775b5d4dae28e528cfed59ec60001b612b63565b60029050613894565b612d837f91fac556802b4b1297812f334db416bdc208aa1644fa284273ae40b4fb3ef6ae60001b612b63565b612daf7ff6f2b7b35ab6f73c334263332f84d2f430adc0359a19c26cba0dcb7052a57a1960001b612b63565b612ddb7f54d44fa1264a55dc16a45d1fcfd5c34adae61af63186edb2ca25289fb13df5be60001b612b63565b6000836000019050612e0f7f8f8c65d7ac1008a39cefc12c2d916e9938ae511848dcf10e1c3be0380ed5d88c60001b612b63565b612e3b7fd0320312ce8a725a6e8fff54a69299111205ab19edd35405cf1f76d7dc01c3c760001b612b63565b60005b818054905081101561383557612e767f3eef364b3826e35800a769ad0ded208f03b73dcfc371dad6014a6b9a6ca8c98f60001b612b63565b612ea27fedbf0a6986fc6272bb0e9a7a0fdd32b3fb6c14d7ed6c82c79b75b96d481d68df60001b612b63565b6000828281548110612edd577f4e487b7100000000000000000000000000000000000000000000000000000000600052603260045260246000fd5b9060005260206000200160009054906101000a900473ffffffffffffffffffffffffffffffffffffffff169050612f367ffecc574e924ebe1f543ac2d0f22eed984561fce809181c79ee2a7c686162172f60001b612b63565b612f627f6338d1b2d00ce3e05199663db9287de9783aa172804ff256dc104fe5126ddede60001b612b63565b612fab7f80ac58cd000000000000000000000000000000000000000000000000000000008273ffffffffffffffffffffffffffffffffffffffff1661389a90919063ffffffff16565b1561332d57612fdc7f65c855a57131f4ce2b81c6de240586edfa77c3d50f56512b0282466649f62bf160001b612b63565b6130087f7f2a0b94363589caa63b6daf7c82b4ebdbd989d966e21a4c9f7c0723f09a149260001b612b63565b6130347fe0533801f8cdc36b2311a651a394386507a758e6fb319897d9f90a028627026f60001b612b63565b6000636352211e60e01b87600201848154811061307a577f4e487b7100000000000000000000000000000000000000000000000000000000600052603260045260246000fd5b906000526020600020015460405160240161309591906143a0565b604051602081830303815290604052907bffffffffffffffffffffffffffffffffffffffffffffffffffffffff19166020820180517bffffffffffffffffffffffffffffffffffffffffffffffffffffffff838183161783525050505090506131207f88fbb3e719cd18ddfbfec6ddaffe597d4c906d03a4066d7099eb491df5140e1860001b612b63565b61314c7f7e8333fa5a987248e9f710f379078504095f653de1bc1ec6139e2eb170b44ef760001b612b63565b6000808373ffffffffffffffffffffffffffffffffffffffff16617530846040516131779190614276565b6000604051808303818686fa925050503d80600081146131b3576040519150601f19603f3d011682016040523d82523d6000602084013e6131b8565b606091505b50915091506131e97fd6b7c1b939a7813cc3c44fcc24b5e54edb01454073c58d1e690101020ffdef6960001b612b63565b6132157f2b833096fd25540dd2771a8e0648b9f9013a209644b4156ee90b36d6a982bb5060001b612b63565b81158061326157508773ffffffffffffffffffffffffffffffffffffffff16818060200190518101906132489190613cbe565b73ffffffffffffffffffffffffffffffffffffffff1614155b156132f9576132927fa2ffd2034e0f27ec7189e88a9cdace1e52a69d75bbf88b189e315b31440704af60001b612b63565b6132be7fd6170d3ab5f7c426bab907454c5ae901d225cc7cf4207e193423c9d5a6c5210260001b612b63565b6132ea7f373613c470723e7f8f4c6628a07fb896b81e378cc842add594dab85628c7b74660001b612b63565b60039650505050505050613894565b6133257f55812f163e7895a7627dc7e800556850522db4d1fc3fad0d5b2c1530d47a454560001b612b63565b505050613821565b6133597f93ffec1fab2f12715952f3a01d4368dbbafec82f92ee9651d42c074079ac6d3c60001b612b63565b6133857fd139437fd8d96ed25c4271da22f147e9177a7a828a995fd0f9eafd30a672b40760001b612b63565b6133ce7fd9b67a26000000000000000000000000000000000000000000000000000000008273ffffffffffffffffffffffffffffffffffffffff1661389a90919063ffffffff16565b15613635576133ff7f656ff3e5ab92a91a93944ccad0af983a7e99df0998ad44c01880fd45c3f67b0c60001b612b63565b61342b7fdcbe07aff484adc301524640c1339cb128ad1cfe89b7e69979121fd5a1e7f35a60001b612b63565b6134577f8cc902fc67178a80bd18ccf7914cd8f177d8e4bddb8f4ffa6f6826cd01d4cf8d60001b612b63565b856001018281548110613493577f4e487b7100000000000000000000000000000000000000000000000000000000600052603260045260246000fd5b90600052602060002001548173ffffffffffffffffffffffffffffffffffffffff1662fdd58e878960020186815481106134f6577f4e487b7100000000000000000000000000000000000000000000000000000000600052603260045260246000fd5b90600052602060002001546040518363ffffffff1660e01b815260040161351e9291906142a8565b60206040518083038186803b15801561353657600080fd5b505afa15801561354a573d6000803e3d6000fd5b505050506040513d601f19601f8201168201806040525081019061356e9190613e54565b1015613604576135a07ff61795972461d40118d42a400ce745df5ac4649bcb04e1d0e4a1ceebe6e4953d60001b612b63565b6135cc7fc4367214a0fa02985f7a4f0ce12aee2bd81376338f9bcad37afa5bc43960426960001b612b63565b6135f87f6faccd853d7dd3326b4a2f28341ee7815b1cca80f4185d11a3f08c66f3330af160001b612b63565b60039350505050613894565b6136307fa4066cd2a910bf054d5ee918303a4f36264695ca6b5839ff22b08aefbe3d69bb60001b612b63565b613820565b6136617f1d8050140298c7903f4f86844da4a454b2dbb0a1c4e2c7103f4603cd2fc48b1860001b612b63565b61368d7fc1309009320ab64b7d1bac2741648e782e91abaff40e4baac0cfafb199d27fb160001b612b63565b8560010182815481106136c9577f4e487b7100000000000000000000000000000000000000000000000000000000600052603260045260246000fd5b90600052602060002001548173ffffffffffffffffffffffffffffffffffffffff166370a08231876040518263ffffffff1660e01b815260040161370d919061428d565b60206040518083038186803b15801561372557600080fd5b505afa158015613739573d6000803e3d6000fd5b505050506040513d601f19601f8201168201806040525081019061375d9190613e54565b10156137f35761378f7ffa49ac5de5b76077ff255ed186d2f73de33aeed46d9e84171a1e324503c5159460001b612b63565b6137bb7fb3496462284dd48b2f33bdc68582bf03bc50cbc00056ff89872f29a63108501760001b612b63565b6137e77fcd74c5660668fb3d14c1106e30baf38e32a4d6adfaccd8df42c291d6bd8a155960001b612b63565b60039350505050613894565b61381f7f2e7af1d60dcf58ddcf663119ecf996a85f227bd92dc99c7a3ed587282433bcd460001b612b63565b5b5b50808061382d906146f0565b915050612e3e565b50506138637f945a209d800a398298e8411965c8caf430fe4d7af112c8e7cea83c428ab570b160001b612b63565b61388f7fe7dd32f60d394831deabb9d816ce98ba6a18dffdd25a47de7d02d788a238811860001b612b63565b600090505b92915050565b60006138a5836138bf565b80156138b757506138b6838361390c565b5b905092915050565b60006138eb827f01ffc9a70000000000000000000000000000000000000000000000000000000061390c565b801561390557506139038263ffffffff60e01b61390c565b155b9050919050565b6000806301ffc9a760e01b836040516024016139289190614308565b604051602081830303815290604052907bffffffffffffffffffffffffffffffffffffffffffffffffffffffff19166020820180517bffffffffffffffffffffffffffffffffffffffffffffffffffffffff838183161783525050505090506000808573ffffffffffffffffffffffffffffffffffffffff16617530846040516139b29190614276565b6000604051808303818686fa925050503d80600081146139ee576040519150601f19603f3d011682016040523d82523d6000602084013e6139f3565b606091505b5091509150602081511015613a0e5760009350505050613a31565b818015613a2b575080806020019051810190613a2a9190613e02565b5b93505050505b92915050565b5080546000825590600052602060002090810190613a559190613b7b565b50565b6040518060c001604052806060815260200160608152602001606081526020016000815260200160008152602001600081525090565b828054828255906000526020600020908101928215613b1d579160200282015b82811115613b1c57823573ffffffffffffffffffffffffffffffffffffffff168260006101000a81548173ffffffffffffffffffffffffffffffffffffffff021916908373ffffffffffffffffffffffffffffffffffffffff16021790555091602001919060010190613aae565b5b509050613b2a9190613b7b565b5090565b828054828255906000526020600020908101928215613b6a579160200282015b82811115613b69578235825591602001919060010190613b4e565b5b509050613b779190613b7b565b5090565b5b80821115613b94576000816000905550600101613b7c565b5090565b600081359050613ba781614852565b92915050565b600081519050613bbc81614869565b92915050565b60008083601f840112613bd457600080fd5b8235905067ffffffffffffffff811115613bed57600080fd5b602083019150836020820283011115613c0557600080fd5b9250929050565b60008083601f840112613c1e57600080fd5b8235905067ffffffffffffffff811115613c3757600080fd5b602083019150836020820283011115613c4f57600080fd5b9250929050565b600081519050613c6581614880565b92915050565b600081359050613c7a81614897565b92915050565b600081519050613c8f81614897565b92915050565b600060208284031215613ca757600080fd5b6000613cb584828501613b98565b91505092915050565b600060208284031215613cd057600080fd5b6000613cde84828501613bad565b91505092915050565b60008060408385031215613cfa57600080fd5b6000613d0885828601613b98565b9250506020613d1985828601613c6b565b9150509250929050565b600080600080600080600080600060c08a8c031215613d4157600080fd5b60008a013567ffffffffffffffff811115613d5b57600080fd5b613d678c828d01613bc2565b995099505060208a013567ffffffffffffffff811115613d8657600080fd5b613d928c828d01613c0c565b975097505060408a013567ffffffffffffffff811115613db157600080fd5b613dbd8c828d01613c0c565b95509550506060613dd08c828d01613c6b565b9350506080613de18c828d01613c6b565b92505060a0613df28c828d01613c6b565b9150509295985092959850929598565b600060208284031215613e1457600080fd5b6000613e2284828501613c56565b91505092915050565b600060208284031215613e3d57600080fd5b6000613e4b84828501613c6b565b91505092915050565b600060208284031215613e6657600080fd5b6000613e7484828501613c80565b91505092915050565b6000613e898383613ed9565b60208301905092915050565b6000613ea183836140c6565b60208301905092915050565b6000613eb9838361412a565b905092915050565b6000613ecd8383614258565b60208301905092915050565b613ee281614612565b82525050565b613ef181614612565b82525050565b6000613f0282614432565b613f0c818561449d565b9350613f17836143f2565b8060005b83811015613f48578151613f2f8882613e7d565b9750613f3a83614469565b925050600181019050613f1b565b5085935050505092915050565b6000613f608261443d565b613f6a81856144d0565b9350613f7583614402565b8060005b83811015613fa6578151613f8d8882613e95565b9750613f9883614476565b925050600181019050613f79565b5085935050505092915050565b6000613fbe82614448565b613fc881856144ae565b935083602082028501613fda85614412565b8060005b858110156140165784840389528151613ff78582613ead565b945061400283614483565b925060208a01995050600181019050613fde565b50829750879550505050505092915050565b600061403382614453565b61403d81856144bf565b935061404883614422565b8060005b838110156140795781516140608882613ec1565b975061406b83614490565b92505060018101905061404c565b5085935050505092915050565b61408f81614642565b82525050565b60006140a08261445e565b6140aa81856144e1565b93506140ba8185602086016146bd565b80840191505092915050565b6140cf816146ab565b82525050565b6140de816146ab565b82525050565b60006140f16026836144ec565b91506140fc826147c6565b604082019050919050565b60006141146020836144ec565b915061411f82614815565b602082019050919050565b600060c08301600083015184820360008601526141478282613ef7565b915050602083015184820360208601526141618282614028565b9150506040830151848203604086015261417b8282614028565b91505060608301516141906060860182614258565b5060808301516141a36080860182614258565b5060a08301516141b660a0860182614258565b508091505092915050565b600060c08301600083015184820360008601526141de8282613ef7565b915050602083015184820360208601526141f88282614028565b915050604083015184820360408601526142128282614028565b91505060608301516142276060860182614258565b50608083015161423a6080860182614258565b5060a083015161424d60a0860182614258565b508091505092915050565b614261816146a1565b82525050565b614270816146a1565b82525050565b60006142828284614095565b915081905092915050565b60006020820190506142a26000830184613ee8565b92915050565b60006040820190506142bd6000830185613ee8565b6142ca6020830184614267565b9392505050565b600060408201905081810360008301526142eb8185613fb3565b905081810360208301526142ff8184613f55565b90509392505050565b600060208201905061431d6000830184614086565b92915050565b600060208201905061433860008301846140d5565b92915050565b60006020820190508181036000830152614357816140e4565b9050919050565b6000602082019050818103600083015261437781614107565b9050919050565b6000602082019050818103600083015261439881846141c1565b905092915050565b60006020820190506143b56000830184614267565b92915050565b60006060820190506143d06000830186614267565b6143dd6020830185614267565b6143ea6040830184614267565b949350505050565b6000819050602082019050919050565b6000819050602082019050919050565b6000819050602082019050919050565b6000819050602082019050919050565b600081519050919050565b600081519050919050565b600081519050919050565b600081519050919050565b600081519050919050565b6000602082019050919050565b6000602082019050919050565b6000602082019050919050565b6000602082019050919050565b600082825260208201905092915050565b600082825260208201905092915050565b600082825260208201905092915050565b600082825260208201905092915050565b600081905092915050565b600082825260208201905092915050565b6000614508826146a1565b9150614513836146a1565b9250827fffffffffffffffffffffffffffffffffffffffffffffffffffffffffffffffff0382111561454857614547614739565b5b828201905092915050565b600061455e826146a1565b9150614569836146a1565b92508261457957614578614768565b5b828204905092915050565b600061458f826146a1565b915061459a836146a1565b9250817fffffffffffffffffffffffffffffffffffffffffffffffffffffffffffffffff04831182151516156145d3576145d2614739565b5b828202905092915050565b60006145e9826146a1565b91506145f4836146a1565b92508282101561460757614606614739565b5b828203905092915050565b600061461d82614681565b9050919050565b600061462f82614681565b9050919050565b60008115159050919050565b60007fffffffff0000000000000000000000000000000000000000000000000000000082169050919050565b600081905061467c8261483e565b919050565b600073ffffffffffffffffffffffffffffffffffffffff82169050919050565b6000819050919050565b60006146b68261466e565b9050919050565b60005b838110156146db5780820151818401526020810190506146c0565b838111156146ea576000848401525b50505050565b60006146fb826146a1565b91507fffffffffffffffffffffffffffffffffffffffffffffffffffffffffffffffff82141561472e5761472d614739565b5b600182019050919050565b7f4e487b7100000000000000000000000000000000000000000000000000000000600052601160045260246000fd5b7f4e487b7100000000000000000000000000000000000000000000000000000000600052601260045260246000fd5b7f4e487b7100000000000000000000000000000000000000000000000000000000600052602160045260246000fd5b7f4f776e61626c653a206e6577206f776e657220697320746865207a65726f206160008201527f6464726573730000000000000000000000000000000000000000000000000000602082015250565b7f4f776e61626c653a2063616c6c6572206973206e6f7420746865206f776e6572600082015250565b6008811061484f5761484e614797565b5b50565b61485b81614612565b811461486657600080fd5b50565b61487281614624565b811461487d57600080fd5b50565b61488981614636565b811461489457600080fd5b50565b6148a0816146a1565b81146148ab57600080fd5b5056fea2646970667358221220fda56790f0c423b0a42437d49424dde5f8b33a30dd6877c18bdffa9a4c82b92164736f6c63430008040033",
  "linkReferences": {},
  "deployedLinkReferences": {}
}