{
  "_format": "hh-sol-artifact-1",
  "contractName": "BondlyBridgeChild",
  "sourceName": "contracts/BondlyBridgeChild.sol",
  "abi": [
    {
      "inputs": [
        {
          "internalType": "address",
          "name": "hubContract_",
          "type": "address"
        }
      ],
      "stateMutability": "nonpayable",
      "type": "constructor"
    },
    {
      "anonymous": false,
      "inputs": [
        {
          "indexed": true,
          "internalType": "address",
          "name": "account",
          "type": "address"
        },
        {
          "indexed": true,
          "internalType": "address",
          "name": "operator",
          "type": "address"
        },
        {
          "indexed": false,
          "internalType": "bool",
          "name": "approved",
          "type": "bool"
        }
      ],
      "name": "ApprovalForAll",
      "type": "event"
    },
    {
      "anonymous": false,
      "inputs": [
        {
          "indexed": true,
          "internalType": "address",
          "name": "previousOwner",
          "type": "address"
        },
        {
          "indexed": true,
          "internalType": "address",
          "name": "newOwner",
          "type": "address"
        }
      ],
      "name": "OwnershipTransferred",
      "type": "event"
    },
    {
      "anonymous": false,
      "inputs": [
        {
          "indexed": true,
          "internalType": "address",
          "name": "operator",
          "type": "address"
        },
        {
          "indexed": true,
          "internalType": "address",
          "name": "from",
          "type": "address"
        },
        {
          "indexed": true,
          "internalType": "address",
          "name": "to",
          "type": "address"
        },
        {
          "indexed": false,
          "internalType": "uint256[]",
          "name": "ids",
          "type": "uint256[]"
        },
        {
          "indexed": false,
          "internalType": "uint256[]",
          "name": "values",
          "type": "uint256[]"
        }
      ],
      "name": "TransferBatch",
      "type": "event"
    },
    {
      "anonymous": false,
      "inputs": [
        {
          "indexed": true,
          "internalType": "address",
          "name": "operator",
          "type": "address"
        },
        {
          "indexed": true,
          "internalType": "address",
          "name": "from",
          "type": "address"
        },
        {
          "indexed": true,
          "internalType": "address",
          "name": "to",
          "type": "address"
        },
        {
          "indexed": false,
          "internalType": "uint256",
          "name": "id",
          "type": "uint256"
        },
        {
          "indexed": false,
          "internalType": "uint256",
          "name": "value",
          "type": "uint256"
        }
      ],
      "name": "TransferSingle",
      "type": "event"
    },
    {
      "anonymous": false,
      "inputs": [
        {
          "indexed": false,
          "internalType": "string",
          "name": "value",
          "type": "string"
        },
        {
          "indexed": true,
          "internalType": "uint256",
          "name": "id",
          "type": "uint256"
        }
      ],
      "name": "URI",
      "type": "event"
    },
    {
      "inputs": [
        {
          "internalType": "address",
          "name": "account",
          "type": "address"
        },
        {
          "internalType": "uint256",
          "name": "id",
          "type": "uint256"
        }
      ],
      "name": "balanceOf",
      "outputs": [
        {
          "internalType": "uint256",
          "name": "",
          "type": "uint256"
        }
      ],
      "stateMutability": "view",
      "type": "function"
    },
    {
      "inputs": [
        {
          "internalType": "address[]",
          "name": "accounts",
          "type": "address[]"
        },
        {
          "internalType": "uint256[]",
          "name": "ids",
          "type": "uint256[]"
        }
      ],
      "name": "balanceOfBatch",
      "outputs": [
        {
          "internalType": "uint256[]",
          "name": "",
          "type": "uint256[]"
        }
      ],
      "stateMutability": "view",
      "type": "function"
    },
    {
      "inputs": [],
      "name": "currencySymbol",
      "outputs": [
        {
          "internalType": "uint256",
          "name": "",
          "type": "uint256"
        }
      ],
      "stateMutability": "view",
      "type": "function"
    },
    {
      "inputs": [],
      "name": "hubContract",
      "outputs": [
        {
          "internalType": "address",
          "name": "",
          "type": "address"
        }
      ],
      "stateMutability": "view",
      "type": "function"
    },
    {
      "inputs": [
        {
          "internalType": "address",
          "name": "account",
          "type": "address"
        },
        {
          "internalType": "address",
          "name": "operator",
          "type": "address"
        }
      ],
      "name": "isApprovedForAll",
      "outputs": [
        {
          "internalType": "bool",
          "name": "",
          "type": "bool"
        }
      ],
      "stateMutability": "view",
      "type": "function"
    },
    {
      "inputs": [
        {
          "internalType": "address",
          "name": "recipient",
          "type": "address"
        },
        {
          "internalType": "uint256",
          "name": "amount",
          "type": "uint256"
        },
        {
          "internalType": "bytes32",
          "name": "tokenName",
          "type": "bytes32"
        },
        {
          "internalType": "string",
          "name": "tokenUri",
          "type": "string"
        }
      ],
      "name": "mintToken",
      "outputs": [
        {
          "internalType": "uint256",
          "name": "tokenId",
          "type": "uint256"
        }
      ],
      "stateMutability": "nonpayable",
      "type": "function"
    },
    {
      "inputs": [],
      "name": "owner",
      "outputs": [
        {
          "internalType": "address",
          "name": "",
          "type": "address"
        }
      ],
      "stateMutability": "view",
      "type": "function"
    },
    {
      "inputs": [],
      "name": "renounceOwnership",
      "outputs": [],
      "stateMutability": "nonpayable",
      "type": "function"
    },
    {
      "inputs": [
        {
          "internalType": "uint256",
          "name": "id",
          "type": "uint256"
        },
        {
          "internalType": "string",
          "name": "recipient",
          "type": "string"
        },
        {
          "internalType": "uint256",
          "name": "amount",
          "type": "uint256"
        },
        {
          "internalType": "uint256",
          "name": "discountId",
          "type": "uint256"
        }
      ],
      "name": "returnForeignToken",
      "outputs": [],
      "stateMutability": "payable",
      "type": "function"
    },
    {
      "inputs": [
        {
          "internalType": "address",
          "name": "from",
          "type": "address"
        },
        {
          "internalType": "address",
          "name": "to",
          "type": "address"
        },
        {
          "internalType": "uint256[]",
          "name": "ids",
          "type": "uint256[]"
        },
        {
          "internalType": "uint256[]",
          "name": "amounts",
          "type": "uint256[]"
        },
        {
          "internalType": "bytes",
          "name": "data",
          "type": "bytes"
        }
      ],
      "name": "safeBatchTransferFrom",
      "outputs": [],
      "stateMutability": "nonpayable",
      "type": "function"
    },
    {
      "inputs": [
        {
          "internalType": "address",
          "name": "from",
          "type": "address"
        },
        {
          "internalType": "address",
          "name": "to",
          "type": "address"
        },
        {
          "internalType": "uint256",
          "name": "id",
          "type": "uint256"
        },
        {
          "internalType": "uint256",
          "name": "amount",
          "type": "uint256"
        },
        {
          "internalType": "bytes",
          "name": "data",
          "type": "bytes"
        }
      ],
      "name": "safeTransferFrom",
      "outputs": [],
      "stateMutability": "nonpayable",
      "type": "function"
    },
    {
      "inputs": [
        {
          "internalType": "address",
          "name": "operator",
          "type": "address"
        },
        {
          "internalType": "bool",
          "name": "approved",
          "type": "bool"
        }
      ],
      "name": "setApprovalForAll",
      "outputs": [],
      "stateMutability": "nonpayable",
      "type": "function"
    },
    {
      "inputs": [
        {
          "internalType": "uint256",
          "name": "currencySymbol_",
          "type": "uint256"
        }
      ],
      "name": "setCurrencySymbol",
      "outputs": [],
      "stateMutability": "nonpayable",
      "type": "function"
    },
    {
      "inputs": [
        {
          "internalType": "bytes4",
          "name": "interfaceId",
          "type": "bytes4"
        }
      ],
      "name": "supportsInterface",
      "outputs": [
        {
          "internalType": "bool",
          "name": "",
          "type": "bool"
        }
      ],
      "stateMutability": "view",
      "type": "function"
    },
    {
      "inputs": [
        {
          "internalType": "uint256",
          "name": "",
          "type": "uint256"
        }
      ],
      "name": "tokenNames",
      "outputs": [
        {
          "internalType": "bytes32",
          "name": "",
          "type": "bytes32"
        }
      ],
      "stateMutability": "view",
      "type": "function"
    },
    {
      "inputs": [
        {
          "internalType": "address",
          "name": "newOwner",
          "type": "address"
        }
      ],
      "name": "transferOwnership",
      "outputs": [],
      "stateMutability": "nonpayable",
      "type": "function"
    },
    {
      "inputs": [
        {
          "internalType": "uint256",
          "name": "tokenId",
          "type": "uint256"
        }
      ],
      "name": "uri",
      "outputs": [
        {
          "internalType": "string",
          "name": "",
          "type": "string"
        }
      ],
      "stateMutability": "view",
      "type": "function"
    },
    {
      "stateMutability": "payable",
      "type": "receive"
    }
  ],
  "bytecode": "0x60a06040523480156200001157600080fd5b50604051620052c1380380620052c183398181016040528101906200003791906200030f565b6040518060200160405280600081525062000058816200015b60201b60201c565b50620000796200006d6200017760201b60201c565b6200017f60201b60201c565b6001600481905550620000b57ffa251aa7e47b5a060ceedb56dc4480d7b87a261c0cd0b0ada665aea41401d3c560001b6200024560201b60201c565b620000e97f778132afb66ba94691ddcc8157dfb946fff48cd08476ba6b10fd23010e6131e360001b6200024560201b60201c565b6200011d7f8b6ce73a1e873512d492d8273a1099e3693ff3c469253ecdee09f035e7681aea60001b6200024560201b60201c565b8073ffffffffffffffffffffffffffffffffffffffff1660808173ffffffffffffffffffffffffffffffffffffffff1660601b8152505050620003ee565b80600290805190602001906200017392919062000248565b5050565b600033905090565b6000600360009054906101000a900473ffffffffffffffffffffffffffffffffffffffff16905081600360006101000a81548173ffffffffffffffffffffffffffffffffffffffff021916908373ffffffffffffffffffffffffffffffffffffffff1602179055508173ffffffffffffffffffffffffffffffffffffffff168173ffffffffffffffffffffffffffffffffffffffff167f8be0079c531659141344cd1fd0a4f28419497f9722a3daafe3b4186f6b6457e060405160405180910390a35050565b50565b82805462000256906200036f565b90600052602060002090601f0160209004810192826200027a5760008555620002c6565b82601f106200029557805160ff1916838001178555620002c6565b82800160010185558215620002c6579182015b82811115620002c5578251825591602001919060010190620002a8565b5b509050620002d59190620002d9565b5090565b5b80821115620002f4576000816000905550600101620002da565b5090565b6000815190506200030981620003d4565b92915050565b6000602082840312156200032257600080fd5b60006200033284828501620002f8565b91505092915050565b600062000348826200034f565b9050919050565b600073ffffffffffffffffffffffffffffffffffffffff82169050919050565b600060028204905060018216806200038857607f821691505b602082108114156200039f576200039e620003a5565b5b50919050565b7f4e487b7100000000000000000000000000000000000000000000000000000000600052602260045260246000fd5b620003df816200033b565b8114620003eb57600080fd5b50565b60805160601c614e8a62000437600039600081816108f201528181610bc50152818161128c0152818161145a0152818161153601528181612d4a0152612da10152614e8a6000f3fe6080604052600436106101015760003560e01c8063715018a611610095578063983d881a11610064578063983d881a14610344578063a22cb46514610381578063e985e9c5146103aa578063f242432a146103e7578063f2fde38b1461041057610108565b8063715018a6146102ac5780638da5cb5b146102c3578063934666e5146102ee578063968c42091461031957610108565b80632eb2c2d6116100d15780632eb2c2d6146101e0578063310495ab146102095780634e1273f41461024657806351bd146a1461028357610108565b8062fdd58e1461010d57806301ffc9a71461014a57806304fc5fcc146101875780630e89341c146101a357610108565b3661010857005b600080fd5b34801561011957600080fd5b50610134600480360381019061012f9190613795565b610439565b6040516101419190614302565b60405180910390f35b34801561015657600080fd5b50610171600480360381019061016c91906138bd565b610502565b60405161017e9190613fea565b60405180910390f35b6101a1600480360381019061019c9190613961565b6105e4565b005b3480156101af57600080fd5b506101ca60048036038101906101c5919061390f565b610e47565b6040516101d79190614020565b60405180910390f35b3480156101ec57600080fd5b506102076004803603810190610202919061360b565b610f70565b005b34801561021557600080fd5b50610230600480360381019061022b919061390f565b611011565b60405161023d9190614005565b60405180910390f35b34801561025257600080fd5b5061026d60048036038101906102689190613851565b611029565b60405161027a9190613f91565b60405180910390f35b34801561028f57600080fd5b506102aa60048036038101906102a5919061390f565b6111da565b005b3480156102b857600080fd5b506102c16113a6565b005b3480156102cf57600080fd5b506102d861142e565b6040516102e59190613e8b565b60405180910390f35b3480156102fa57600080fd5b50610303611458565b6040516103109190613e8b565b60405180910390f35b34801561032557600080fd5b5061032e61147c565b60405161033b9190614302565b60405180910390f35b34801561035057600080fd5b5061036b600480360381019061036691906137d1565b611482565b6040516103789190614302565b60405180910390f35b34801561038d57600080fd5b506103a860048036038101906103a39190613759565b6117ee565b005b3480156103b657600080fd5b506103d160048036038101906103cc91906135cf565b611804565b6040516103de9190613fea565b60405180910390f35b3480156103f357600080fd5b5061040e600480360381019061040991906136ca565b611898565b005b34801561041c57600080fd5b506104376004803603810190610432919061357d565b611939565b005b60008073ffffffffffffffffffffffffffffffffffffffff168373ffffffffffffffffffffffffffffffffffffffff1614156104aa576040517f08c379a00000000000000000000000000000000000000000000000000000000081526004016104a1906140a2565b60405180910390fd5b60008083815260200190815260200160002060008473ffffffffffffffffffffffffffffffffffffffff1673ffffffffffffffffffffffffffffffffffffffff16815260200190815260200160002054905092915050565b60007fd9b67a26000000000000000000000000000000000000000000000000000000007bffffffffffffffffffffffffffffffffffffffffffffffffffffffff1916827bffffffffffffffffffffffffffffffffffffffffffffffffffffffff191614806105cd57507f0e89341c000000000000000000000000000000000000000000000000000000007bffffffffffffffffffffffffffffffffffffffffffffffffffffffff1916827bffffffffffffffffffffffffffffffffffffffffffffffffffffffff1916145b806105dd57506105dc82611a31565b5b9050919050565b6002600454141561062a576040517f08c379a0000000000000000000000000000000000000000000000000000000008152600401610621906142e2565b60405180910390fd5b600260048190555061065e7fdbbd00f93fa4ae4bd0b8a570b92fe8f5d07ff7535a93f3aac2c06266e3e2235f60001b611a9b565b61068a7fc4cdc30a301a9ac6953ba2ef0ae1be50c58d79765342a9749db3036502e7a52a60001b611a9b565b6106b67fd46040c8020ab8a534211e2c8e8c0521a78d6551bf28682e1037b4c50a31fa3260001b611a9b565b6106e27f3bb8b5e2999663338365e0ac037448d9b6fcedd939ede7ccd31ba0d227acdcd260001b611a9b565b816106ed3387610439565b101561072e576040517f08c379a0000000000000000000000000000000000000000000000000000000008152600401610725906141c2565b60405180910390fd5b61075a7fc4149654c9adb4dfb37ab07a1843ec45f8afb10dcec26e787afcbde40f3f962660001b611a9b565b6107867f65bee03701af94220bf9cdda43aec987a583270ae26a80109a2ed1ac6c44746060001b611a9b565b6107b27f0bf180c6721b96c77c702c64520063f61045918fb5968cb8c62c5420c4cf887d60001b611a9b565b6107de7fd20579e46c85a2ebce505982c40425ee1b53a0a9f679bc16b37983b7fdfedb8a60001b611a9b565b61082b84848080601f016020809104026020016040519081016040528093929190818152602001838380828437600081840152601f19601f82011690508083019250505050505050611a9e565b61086a576040517f08c379a000000000000000000000000000000000000000000000000000000000815260040161086190614242565b60405180910390fd5b6108967f772707551c4f54edd6e3984cbd48f6d986563d6a8265874e24dc42a943accdfb60001b611a9b565b6108c27ffb169b37e3236f91f8eb7ae29bd3282a766975a1b717e16370b6d423273b393c60001b611a9b565b6108ee7f231753d2ae37ae245b54edacbae65aadb6e5b000e10b61b4a605bb14c5b7fc8f60001b611a9b565b60007f000000000000000000000000000000000000000000000000000000000000000073ffffffffffffffffffffffffffffffffffffffff16637ee87a276040518163ffffffff1660e01b815260040160206040518083038186803b15801561095657600080fd5b505afa15801561096a573d6000803e3d6000fd5b505050506040513d601f19601f8201168201806040525081019061098e91906135a6565b90506109bc7fefc62da37568ad634afcb3ccb5a080db5d0f306bdf6081faa6861af6b2d23c3960001b611a9b565b6109e87fd1f17ff9db56fa0d829909491b454b5c991f5932f828acb3a26b2db8ea6f22ed60001b611a9b565b60008173ffffffffffffffffffffffffffffffffffffffff1663e496c3e233856040518363ffffffff1660e01b8152600401610a25929190613f68565b60206040518083038186803b158015610a3d57600080fd5b505afa158015610a51573d6000803e3d6000fd5b505050506040513d601f19601f82011682018060405250810190610a759190613938565b9050610aa37f2c323f89a0b052de1740022d6952a5999d754dee22b6af3fd258b96b2f37037b60001b611a9b565b610acf7f55077ae36e79dc7c3f99295d7f76d314491ad6d344240eea82bc6ce16483c98560001b611a9b565b610afb7f7d888594c5b48b381c502c4f843e47f737c8ca278982076e72b4d4a2768b9b2460001b611a9b565b803414610b3d576040517f08c379a0000000000000000000000000000000000000000000000000000000008152600401610b3490614222565b60405180910390fd5b610b697fed03fba50fc6c04ede135afa38a205c2bc1da47333358286aa265236b2559e0660001b611a9b565b610b957f69e8d062d437a29bced221b6c77aea0bf14c5d519b327a34d098b69ae78f6b3860001b611a9b565b610bc17f3fe4d72c0f3ba7a5785a623093035081a3d116cb53cca7aa90dc264ad5af625460001b611a9b565b60007f000000000000000000000000000000000000000000000000000000000000000073ffffffffffffffffffffffffffffffffffffffff168289898989604051602401610c12949392919061431d565b6040516020818303038152906040527fad2cac08000000000000000000000000000000000000000000000000000000007bffffffffffffffffffffffffffffffffffffffffffffffffffffffff19166020820180517bffffffffffffffffffffffffffffffffffffffffffffffffffffffff8381831617835250505050604051610c9c9190613e74565b60006040518083038185875af1925050503d8060008114610cd9576040519150601f19603f3d011682016040523d82523d6000602084013e610cde565b606091505b50509050610d0e7f720e76035c8e7c6299bcb1b281d5b4413f1e996a8236faa22d2132ee09ab031f60001b611a9b565b610d3a7f3a6f3516e96d397cb355ba3919e4c5ca9b30bb0544786eb865da12d959adbe0260001b611a9b565b610d667f80836ad181058e483a305f70c1a70ceb90506f8e27c1aafcecc35c37e07960b360001b611a9b565b80610da6576040517f08c379a0000000000000000000000000000000000000000000000000000000008152600401610d9d90614082565b60405180910390fd5b610dd27fedda206429fb57b57085c18eb13e69f7a4bd9a720f63558b13bb9c7a1081df9360001b611a9b565b610dfe7f4a66cd511ebec063ab96c8e1bb6bbad7ebfa2d26c57bd657e2897675e8d0226660001b611a9b565b610e2a7f77f520dee869735a003886581815be5970daba83670b39c5edd48fc875871d1460001b611a9b565b610e35338987611bf6565b50505060016004819055505050505050565b6060610e757fd589866abaed57761086a20dfe9958ad036b920307cccc85d273babc2873073d60001b611a9b565b610ea17ffd943f49ee97c5834bc5d13edc8edd91f82bb06b1408a505ed2f4fe3b2b077e460001b611a9b565b610ecd7fc95c97b50ba1530c2cfd6a9e4283423c1ade593985f8676aa85386ce5321c11c60001b611a9b565b600860008381526020019081526020016000208054610eeb906145c6565b80601f0160208091040260200160405190810160405280929190818152602001828054610f17906145c6565b8015610f645780601f10610f3957610100808354040283529160200191610f64565b820191906000526020600020905b815481529060010190602001808311610f4757829003601f168201915b50505050509050919050565b610f78611e13565b73ffffffffffffffffffffffffffffffffffffffff168573ffffffffffffffffffffffffffffffffffffffff161480610fbe5750610fbd85610fb8611e13565b611804565b5b610ffd576040517f08c379a0000000000000000000000000000000000000000000000000000000008152600401610ff490614162565b60405180910390fd5b61100a8585858585611e1b565b5050505050565b60076020528060005260406000206000915090505481565b6060815183511461106f576040517f08c379a000000000000000000000000000000000000000000000000000000000815260040161106690614282565b60405180910390fd5b6000835167ffffffffffffffff8111156110b2577f4e487b7100000000000000000000000000000000000000000000000000000000600052604160045260246000fd5b6040519080825280602002602001820160405280156110e05781602001602082028036833780820191505090505b50905060005b84518110156111cf5761117985828151811061112b577f4e487b7100000000000000000000000000000000000000000000000000000000600052603260045260246000fd5b602002602001015185838151811061116c577f4e487b7100000000000000000000000000000000000000000000000000000000600052603260045260246000fd5b6020026020010151610439565b8282815181106111b2577f4e487b7100000000000000000000000000000000000000000000000000000000600052603260045260246000fd5b602002602001018181525050806111c890614629565b90506110e6565b508091505092915050565b6112067f4518b546a42533e44364860f718c276c04b82029816c1d1bd31069f06aedd10460001b611a9b565b6112327fbbe8870fbfbd208d8bda89643062ffb01062ac50e20399eb5da511972cc38b1360001b611a9b565b61125e7f2ed860cc92fd3282e8807cfa07b0e3b7b3fc10e887f4b9e72f427b40cc109ecd60001b611a9b565b61128a7f48df5fd851e950b3eb72cfd5ef098aa70fdfd0e6093364947917afc342e7087d60001b611a9b565b7f000000000000000000000000000000000000000000000000000000000000000073ffffffffffffffffffffffffffffffffffffffff163373ffffffffffffffffffffffffffffffffffffffff1614611318576040517f08c379a000000000000000000000000000000000000000000000000000000000815260040161130f90614202565b60405180910390fd5b6113447f433eb2b0205e669b3676ae11042f3ac8fafb7b7640c6af85c44ca9716137384e60001b611a9b565b6113707fe649c94c25a7be97b3fd5710835bf9db6e972612ab71d800e82cd9c4523afad960001b611a9b565b61139c7fe64de6b059a2bb3397cc34a700e75684ba619d523bab3f59ff7b76674733ce0360001b611a9b565b8060058190555050565b6113ae611e13565b73ffffffffffffffffffffffffffffffffffffffff166113cc61142e565b73ffffffffffffffffffffffffffffffffffffffff1614611422576040517f08c379a0000000000000000000000000000000000000000000000000000000008152600401611419906141e2565b60405180910390fd5b61142c600061217b565b565b6000600360009054906101000a900473ffffffffffffffffffffffffffffffffffffffff16905090565b7f000000000000000000000000000000000000000000000000000000000000000081565b60055481565b60006114b07fbe55c4ba09db0644e43c4b5c2ae5db54a27ad27ac7da9e6f2db441fdfc10efee60001b611a9b565b6114dc7f934b636a4ec3ae88be2eaaa66a687dc17f255b9f3d023777f93486844f09b49b60001b611a9b565b6115087f26ac627e8a1d4ccce8cf91631432736cb39f3ab6a5a6a02e4b5a41cf4a4a152460001b611a9b565b6115347f69f66d42e3b7683c70633e0d3d170ad67834a9d2d5c37620aa9698b5116b8b1160001b611a9b565b7f000000000000000000000000000000000000000000000000000000000000000073ffffffffffffffffffffffffffffffffffffffff163373ffffffffffffffffffffffffffffffffffffffff16146115c2576040517f08c379a00000000000000000000000000000000000000000000000000000000081526004016115b990614202565b60405180910390fd5b6115ee7ff8a6ec52a8e6ccc272aa9c778f708d6be62f6b4cf70222b11bf25996bf74430e60001b611a9b565b61161a7f7a7f48e096ef039bca7bf82636013773e50b2842a80dafafcf7776f5a0e6932e60001b611a9b565b6116467fb6cde52d69fbff7dcb10b120cb174740decd48ce2de3446e277ae48483d2db2360001b611a9b565b60065490506116777ff34c05857bd99a292b6bfbb0c245d2b536569a7f0141dd53691b4687326ac30660001b611a9b565b6116a37fdfb96a709db2aa5ac4d2a37c5cf70c573e0be752064d7584ed7722bcc22acbf160001b611a9b565b6116be86828760405180602001604052806000815250612241565b6116ea7f4d177b04b320c8e3dc6041e17cc92b6429aeec8087132c545a5f85eb17032cc660001b611a9b565b6117167f39252c145efd84076bcc32231dc8b0c306c5ca7a127bd45c6f1dee800c368afe60001b611a9b565b8360076000838152602001908152602001600020819055506117597ea04de021a64a3e6ed8441c741d367163f0ef9ca9f6a1172a5127560775eada60001b611a9b565b6117857f67f054508fad72134d94ad8bbd84764cacef23bb218e1e8cf2644bff2077addb60001b611a9b565b82826008600084815260200190815260200160002091906117a7929190613254565b506117d47fc988a7a724e12958d5f21eaa7c325e5a39cd0e8b2edcd5acf0f9524e3c73c83360001b611a9b565b600160066000828254019250508190555095945050505050565b6118006117f9611e13565b83836123d7565b5050565b6000600160008473ffffffffffffffffffffffffffffffffffffffff1673ffffffffffffffffffffffffffffffffffffffff16815260200190815260200160002060008373ffffffffffffffffffffffffffffffffffffffff1673ffffffffffffffffffffffffffffffffffffffff16815260200190815260200160002060009054906101000a900460ff16905092915050565b6118a0611e13565b73ffffffffffffffffffffffffffffffffffffffff168573ffffffffffffffffffffffffffffffffffffffff1614806118e657506118e5856118e0611e13565b611804565b5b611925576040517f08c379a000000000000000000000000000000000000000000000000000000000815260040161191c90614102565b60405180910390fd5b6119328585858585612544565b5050505050565b611941611e13565b73ffffffffffffffffffffffffffffffffffffffff1661195f61142e565b73ffffffffffffffffffffffffffffffffffffffff16146119b5576040517f08c379a00000000000000000000000000000000000000000000000000000000081526004016119ac906141e2565b60405180910390fd5b600073ffffffffffffffffffffffffffffffffffffffff168173ffffffffffffffffffffffffffffffffffffffff161415611a25576040517f08c379a0000000000000000000000000000000000000000000000000000000008152600401611a1c906140c2565b60405180910390fd5b611a2e8161217b565b50565b60007f01ffc9a7000000000000000000000000000000000000000000000000000000007bffffffffffffffffffffffffffffffffffffffffffffffffffffffff1916827bffffffffffffffffffffffffffffffffffffffffffffffffffffffff1916149050919050565b50565b6000611acc7f39ab63a19b05a7591c8684c1a8bdbcf6b4379cee2df23cd809e95d575a16cf6560001b6127c6565b611af87fbd5fe7c6c00a5aa9f8f1b147709a1c96e2854362b9ccb13459922c1cefc2958b60001b6127c6565b611b247f32a7300e383be71cb1069c711313102f1599405f8840af515c82eeebae2d506660001b6127c6565b611b63826040518060400160405280600381526020017f41653200000000000000000000000000000000000000000000000000000000008152506127c9565b80611ba95750611ba8826040518060400160405280600581526020017f44647a46460000000000000000000000000000000000000000000000000000008152506127c9565b5b80611bef5750611bee826040518060400160405280600581526020017f61646472310000000000000000000000000000000000000000000000000000008152506127c9565b5b9050919050565b600073ffffffffffffffffffffffffffffffffffffffff168373ffffffffffffffffffffffffffffffffffffffff161415611c66576040517f08c379a0000000000000000000000000000000000000000000000000000000008152600401611c5d90614182565b60405180910390fd5b6000611c70611e13565b9050611ca081856000611c8287612bd2565b611c8b87612bd2565b60405180602001604052806000815250612c98565b600080600085815260200190815260200160002060008673ffffffffffffffffffffffffffffffffffffffff1673ffffffffffffffffffffffffffffffffffffffff16815260200190815260200160002054905082811015611d37576040517f08c379a0000000000000000000000000000000000000000000000000000000008152600401611d2e906140e2565b60405180910390fd5b82810360008086815260200190815260200160002060008773ffffffffffffffffffffffffffffffffffffffff1673ffffffffffffffffffffffffffffffffffffffff16815260200190815260200160002081905550600073ffffffffffffffffffffffffffffffffffffffff168573ffffffffffffffffffffffffffffffffffffffff168373ffffffffffffffffffffffffffffffffffffffff167fc3d58168c5ae7397731d063d5bbf3d657854427343f4c083240f7aacaa2d0f628787604051611e0492919061435d565b60405180910390a45050505050565b600033905090565b8151835114611e5f576040517f08c379a0000000000000000000000000000000000000000000000000000000008152600401611e56906142a2565b60405180910390fd5b600073ffffffffffffffffffffffffffffffffffffffff168473ffffffffffffffffffffffffffffffffffffffff161415611ecf576040517f08c379a0000000000000000000000000000000000000000000000000000000008152600401611ec690614142565b60405180910390fd5b6000611ed9611e13565b9050611ee9818787878787612c98565b60005b84518110156120e6576000858281518110611f30577f4e487b7100000000000000000000000000000000000000000000000000000000600052603260045260246000fd5b602002602001015190506000858381518110611f75577f4e487b7100000000000000000000000000000000000000000000000000000000600052603260045260246000fd5b60200260200101519050600080600084815260200190815260200160002060008b73ffffffffffffffffffffffffffffffffffffffff1673ffffffffffffffffffffffffffffffffffffffff16815260200190815260200160002054905081811015612016576040517f08c379a000000000000000000000000000000000000000000000000000000000815260040161200d906141a2565b60405180910390fd5b81810360008085815260200190815260200160002060008c73ffffffffffffffffffffffffffffffffffffffff1673ffffffffffffffffffffffffffffffffffffffff168152602001908152602001600020819055508160008085815260200190815260200160002060008b73ffffffffffffffffffffffffffffffffffffffff1673ffffffffffffffffffffffffffffffffffffffff16815260200190815260200160002060008282546120cb91906144b0565b92505081905550505050806120df90614629565b9050611eec565b508473ffffffffffffffffffffffffffffffffffffffff168673ffffffffffffffffffffffffffffffffffffffff168273ffffffffffffffffffffffffffffffffffffffff167f4a39dc06d4c0dbc64b70af90fd698a233a518aa5d07e595d983b8c0526c8f7fb878760405161215d929190613fb3565b60405180910390a4612173818787878787612e63565b505050505050565b6000600360009054906101000a900473ffffffffffffffffffffffffffffffffffffffff16905081600360006101000a81548173ffffffffffffffffffffffffffffffffffffffff021916908373ffffffffffffffffffffffffffffffffffffffff1602179055508173ffffffffffffffffffffffffffffffffffffffff168173ffffffffffffffffffffffffffffffffffffffff167f8be0079c531659141344cd1fd0a4f28419497f9722a3daafe3b4186f6b6457e060405160405180910390a35050565b600073ffffffffffffffffffffffffffffffffffffffff168473ffffffffffffffffffffffffffffffffffffffff1614156122b1576040517f08c379a00000000000000000000000000000000000000000000000000000000081526004016122a8906142c2565b60405180910390fd5b60006122bb611e13565b90506122dc816000876122cd88612bd2565b6122d688612bd2565b87612c98565b8260008086815260200190815260200160002060008773ffffffffffffffffffffffffffffffffffffffff1673ffffffffffffffffffffffffffffffffffffffff168152602001908152602001600020600082825461233b91906144b0565b925050819055508473ffffffffffffffffffffffffffffffffffffffff16600073ffffffffffffffffffffffffffffffffffffffff168273ffffffffffffffffffffffffffffffffffffffff167fc3d58168c5ae7397731d063d5bbf3d657854427343f4c083240f7aacaa2d0f6287876040516123b992919061435d565b60405180910390a46123d08160008787878761304a565b5050505050565b8173ffffffffffffffffffffffffffffffffffffffff168373ffffffffffffffffffffffffffffffffffffffff161415612446576040517f08c379a000000000000000000000000000000000000000000000000000000000815260040161243d90614262565b60405180910390fd5b80600160008573ffffffffffffffffffffffffffffffffffffffff1673ffffffffffffffffffffffffffffffffffffffff16815260200190815260200160002060008473ffffffffffffffffffffffffffffffffffffffff1673ffffffffffffffffffffffffffffffffffffffff16815260200190815260200160002060006101000a81548160ff0219169083151502179055508173ffffffffffffffffffffffffffffffffffffffff168373ffffffffffffffffffffffffffffffffffffffff167f17307eab39ab6107e8899845ad3d59bd9653f200f220920489ca2b5937696c31836040516125379190613fea565b60405180910390a3505050565b600073ffffffffffffffffffffffffffffffffffffffff168473ffffffffffffffffffffffffffffffffffffffff1614156125b4576040517f08c379a00000000000000000000000000000000000000000000000000000000081526004016125ab90614142565b60405180910390fd5b60006125be611e13565b90506125de8187876125cf88612bd2565b6125d888612bd2565b87612c98565b600080600086815260200190815260200160002060008873ffffffffffffffffffffffffffffffffffffffff1673ffffffffffffffffffffffffffffffffffffffff16815260200190815260200160002054905083811015612675576040517f08c379a000000000000000000000000000000000000000000000000000000000815260040161266c906141a2565b60405180910390fd5b83810360008087815260200190815260200160002060008973ffffffffffffffffffffffffffffffffffffffff1673ffffffffffffffffffffffffffffffffffffffff168152602001908152602001600020819055508360008087815260200190815260200160002060008873ffffffffffffffffffffffffffffffffffffffff1673ffffffffffffffffffffffffffffffffffffffff168152602001908152602001600020600082825461272a91906144b0565b925050819055508573ffffffffffffffffffffffffffffffffffffffff168773ffffffffffffffffffffffffffffffffffffffff168373ffffffffffffffffffffffffffffffffffffffff167fc3d58168c5ae7397731d063d5bbf3d657854427343f4c083240f7aacaa2d0f6288886040516127a792919061435d565b60405180910390a46127bd82888888888861304a565b50505050505050565b50565b60006127f77fe7ea6d70eb0c6d57294ebfcab516c3c727a366a6a39331f61eade9b2476d68f960001b6127c6565b6128237face962ada1c90bc905f6b267625969739d617e994fb9d09e3c985a64cb80910260001b6127c6565b61284f7fe993cd890a1ccb812dc22b6cd9394b47a69f02c14341b5efc40bbe0bd97b622e60001b6127c6565b60008390506128807f4a7d83dc0aadbdaf8dde58b94c7aae8e93a20df92c4c781ebb793f9a0e2cd33260001b6127c6565b6128ac7f1ca3bb480fba256d395aa44629b9a82910cc02d3ff404a04a2e0e1b21e456a0860001b6127c6565b60008390506128dd7fbf76a35bb1e3ace9010dc2a78f0921c89cb16c269efccd0a47341d48cf62a6c560001b6127c6565b6129097fbcc67a9c8d30ea0ffa4341a7fc8d3218f15ec1e4f41b3334f51e9d8381fef19460001b6127c6565b60008151905061293b7f308b9bd90e2efa44d9c3f03a567abfab1aac65835fe0ceb6cce53f66ac010ec160001b6127c6565b6129677fdb54a97011a5ae9411513312a7f6e8b2cd76ed0b470a10088d5ecd95b2b3918160001b6127c6565b60005b81811015612b6b5761299e7f78f57127dd7b7a238efb672552183280087986f4d9aa03d7b573efa9b90d159360001b6127c6565b6129ca7f09efb17531137ef215e3ab5742944bc87ee27504c0eccf00513c67882ed56c5b60001b6127c6565b828181518110612a03577f4e487b7100000000000000000000000000000000000000000000000000000000600052603260045260246000fd5b602001015160f81c60f81b7effffffffffffffffffffffffffffffffffffffffffffffffffffffffffffff1916848281518110612a69577f4e487b7100000000000000000000000000000000000000000000000000000000600052603260045260246000fd5b602001015160f81c60f81b7effffffffffffffffffffffffffffffffffffffffffffffffffffffffffffff191614612b2c57612ac77ff558720caf597f9cc79cb706fb9553b9a3c614372b1c01d83f6ff34442594dc460001b6127c6565b612af37fa8541fdb2e798280995889e5c1c282ead9956595a4f91f97a7e91ca0cd4a800260001b6127c6565b612b1f7fb5a46e0bc0223e2d796479ba6e2ac421abb92f74d4726544627d54041afce64c60001b6127c6565b6000945050505050612bcc565b612b587fa98f02afe7c8f66ae3e4aa0ee7d57b6f78d5e15c619b1e7983e72679ad9a12b560001b6127c6565b8080612b6390614629565b91505061296a565b50612b987fcd7b69b3978f380d5bcc2ab55627588d7eda52bcc078baba69c8306f8a69942860001b6127c6565b612bc47f107edaa7fb887aeb66c02ef6ef03e5921454598e7af1f448781e5d4587087b6460001b6127c6565b600193505050505b92915050565b60606000600167ffffffffffffffff811115612c17577f4e487b7100000000000000000000000000000000000000000000000000000000600052604160045260246000fd5b604051908082528060200260200182016040528015612c455781602001602082028036833780820191505090505b5090508281600081518110612c83577f4e487b7100000000000000000000000000000000000000000000000000000000600052603260045260246000fd5b60200260200101818152505080915050919050565b612cc47fd8c7390008910b615f4cbdb035272066e95952306eb3961337d3e08c8feef8eb60001b611a9b565b612cf07f92dcfb77dd4f2bd65fe521d065bdd0a205626f229acd956a022bd6a0372951d760001b611a9b565b612d1c7f9294d7c1416cf94e83361bb07f2e65d14f8010687291b83bba419c4071dca8f660001b611a9b565b612d487f76b463fba0b1426d6c0b472bcc6abe95035ddbc2ebd0e532af80e71a0517a32860001b611a9b565b7f000000000000000000000000000000000000000000000000000000000000000073ffffffffffffffffffffffffffffffffffffffff168573ffffffffffffffffffffffffffffffffffffffff1614158015612df057507f000000000000000000000000000000000000000000000000000000000000000073ffffffffffffffffffffffffffffffffffffffff168473ffffffffffffffffffffffffffffffffffffffff1614155b612e2f576040517f08c379a0000000000000000000000000000000000000000000000000000000008152600401612e2690614122565b60405180910390fd5b612e5b7fa9643b4f5dc82c7c762fd9e2147b3c403ece0428097274c04751b7286fee992b60001b611a9b565b505050505050565b612e828473ffffffffffffffffffffffffffffffffffffffff16613231565b15613042578373ffffffffffffffffffffffffffffffffffffffff1663bc197c8187878686866040518663ffffffff1660e01b8152600401612ec8959493929190613ea6565b602060405180830381600087803b158015612ee257600080fd5b505af1925050508015612f1357506040513d601f19601f82011682018060405250810190612f1091906138e6565b60015b612fb957612f1f6146ff565b806308c379a01415612f7c5750612f34614d4b565b80612f3f5750612f7e565b806040517f08c379a0000000000000000000000000000000000000000000000000000000008152600401612f739190614020565b60405180910390fd5b505b6040517f08c379a0000000000000000000000000000000000000000000000000000000008152600401612fb090614042565b60405180910390fd5b63bc197c8160e01b7bffffffffffffffffffffffffffffffffffffffffffffffffffffffff1916817bffffffffffffffffffffffffffffffffffffffffffffffffffffffff191614613040576040517f08c379a000000000000000000000000000000000000000000000000000000000815260040161303790614062565b60405180910390fd5b505b505050505050565b6130698473ffffffffffffffffffffffffffffffffffffffff16613231565b15613229578373ffffffffffffffffffffffffffffffffffffffff1663f23a6e6187878686866040518663ffffffff1660e01b81526004016130af959493929190613f0e565b602060405180830381600087803b1580156130c957600080fd5b505af19250505080156130fa57506040513d601f19601f820116820180604052508101906130f791906138e6565b60015b6131a0576131066146ff565b806308c379a01415613163575061311b614d4b565b806131265750613165565b806040517f08c379a000000000000000000000000000000000000000000000000000000000815260040161315a9190614020565b60405180910390fd5b505b6040517f08c379a000000000000000000000000000000000000000000000000000000000815260040161319790614042565b60405180910390fd5b63f23a6e6160e01b7bffffffffffffffffffffffffffffffffffffffffffffffffffffffff1916817bffffffffffffffffffffffffffffffffffffffffffffffffffffffff191614613227576040517f08c379a000000000000000000000000000000000000000000000000000000000815260040161321e90614062565b60405180910390fd5b505b505050505050565b6000808273ffffffffffffffffffffffffffffffffffffffff163b119050919050565b828054613260906145c6565b90600052602060002090601f01602090048101928261328257600085556132c9565b82601f1061329b57803560ff19168380011785556132c9565b828001600101855582156132c9579182015b828111156132c85782358255916020019190600101906132ad565b5b5090506132d691906132da565b5090565b5b808211156132f35760008160009055506001016132db565b5090565b600061330a613305846143ab565b614386565b9050808382526020820190508285602086028201111561332957600080fd5b60005b85811015613359578161333f888261340d565b84526020840193506020830192505060018101905061332c565b5050509392505050565b6000613376613371846143d7565b614386565b9050808382526020820190508285602086028201111561339557600080fd5b60005b858110156133c557816133ab8882613553565b845260208401935060208301925050600181019050613398565b5050509392505050565b60006133e26133dd84614403565b614386565b9050828152602081018484840111156133fa57600080fd5b613405848285614584565b509392505050565b60008135905061341c81614de1565b92915050565b60008151905061343181614de1565b92915050565b600082601f83011261344857600080fd5b81356134588482602086016132f7565b91505092915050565b600082601f83011261347257600080fd5b8135613482848260208601613363565b91505092915050565b60008135905061349a81614df8565b92915050565b6000813590506134af81614e0f565b92915050565b6000813590506134c481614e26565b92915050565b6000815190506134d981614e26565b92915050565b600082601f8301126134f057600080fd5b81356135008482602086016133cf565b91505092915050565b60008083601f84011261351b57600080fd5b8235905067ffffffffffffffff81111561353457600080fd5b60208301915083600182028301111561354c57600080fd5b9250929050565b60008135905061356281614e3d565b92915050565b60008151905061357781614e3d565b92915050565b60006020828403121561358f57600080fd5b600061359d8482850161340d565b91505092915050565b6000602082840312156135b857600080fd5b60006135c684828501613422565b91505092915050565b600080604083850312156135e257600080fd5b60006135f08582860161340d565b92505060206136018582860161340d565b9150509250929050565b600080600080600060a0868803121561362357600080fd5b60006136318882890161340d565b95505060206136428882890161340d565b945050604086013567ffffffffffffffff81111561365f57600080fd5b61366b88828901613461565b935050606086013567ffffffffffffffff81111561368857600080fd5b61369488828901613461565b925050608086013567ffffffffffffffff8111156136b157600080fd5b6136bd888289016134df565b9150509295509295909350565b600080600080600060a086880312156136e257600080fd5b60006136f08882890161340d565b95505060206137018882890161340d565b945050604061371288828901613553565b935050606061372388828901613553565b925050608086013567ffffffffffffffff81111561374057600080fd5b61374c888289016134df565b9150509295509295909350565b6000806040838503121561376c57600080fd5b600061377a8582860161340d565b925050602061378b8582860161348b565b9150509250929050565b600080604083850312156137a857600080fd5b60006137b68582860161340d565b92505060206137c785828601613553565b9150509250929050565b6000806000806000608086880312156137e957600080fd5b60006137f78882890161340d565b955050602061380888828901613553565b9450506040613819888289016134a0565b935050606086013567ffffffffffffffff81111561383657600080fd5b61384288828901613509565b92509250509295509295909350565b6000806040838503121561386457600080fd5b600083013567ffffffffffffffff81111561387e57600080fd5b61388a85828601613437565b925050602083013567ffffffffffffffff8111156138a757600080fd5b6138b385828601613461565b9150509250929050565b6000602082840312156138cf57600080fd5b60006138dd848285016134b5565b91505092915050565b6000602082840312156138f857600080fd5b6000613906848285016134ca565b91505092915050565b60006020828403121561392157600080fd5b600061392f84828501613553565b91505092915050565b60006020828403121561394a57600080fd5b600061395884828501613568565b91505092915050565b60008060008060006080868803121561397957600080fd5b600061398788828901613553565b955050602086013567ffffffffffffffff8111156139a457600080fd5b6139b088828901613509565b945094505060406139c388828901613553565b92505060606139d488828901613553565b9150509295509295909350565b60006139ed8383613e56565b60208301905092915050565b613a0281614506565b82525050565b6000613a1382614444565b613a1d8185614472565b9350613a2883614434565b8060005b83811015613a59578151613a4088826139e1565b9750613a4b83614465565b925050600181019050613a2c565b5085935050505092915050565b613a6f81614518565b82525050565b613a7e81614524565b82525050565b6000613a8f8261444f565b613a998185614483565b9350613aa9818560208601614593565b613ab281614721565b840191505092915050565b6000613ac88261444f565b613ad28185614494565b9350613ae2818560208601614593565b80840191505092915050565b6000613afa838561449f565b9350613b07838584614584565b613b1083614721565b840190509392505050565b6000613b268261445a565b613b30818561449f565b9350613b40818560208601614593565b613b4981614721565b840191505092915050565b6000613b6160348361449f565b9150613b6c8261473f565b604082019050919050565b6000613b8460288361449f565b9150613b8f8261478e565b604082019050919050565b6000613ba7601e8361449f565b9150613bb2826147dd565b602082019050919050565b6000613bca602b8361449f565b9150613bd582614806565b604082019050919050565b6000613bed60268361449f565b9150613bf882614855565b604082019050919050565b6000613c1060248361449f565b9150613c1b826148a4565b604082019050919050565b6000613c3360298361449f565b9150613c3e826148f3565b604082019050919050565b6000613c56602c8361449f565b9150613c6182614942565b604082019050919050565b6000613c7960258361449f565b9150613c8482614991565b604082019050919050565b6000613c9c60328361449f565b9150613ca7826149e0565b604082019050919050565b6000613cbf60238361449f565b9150613cca82614a2f565b604082019050919050565b6000613ce2602a8361449f565b9150613ced82614a7e565b604082019050919050565b6000613d0560358361449f565b9150613d1082614acd565b604082019050919050565b6000613d2860208361449f565b9150613d3382614b1c565b602082019050919050565b6000613d4b601e8361449f565b9150613d5682614b45565b602082019050919050565b6000613d6e60218361449f565b9150613d7982614b6e565b604082019050919050565b6000613d91601e8361449f565b9150613d9c82614bbd565b602082019050919050565b6000613db460298361449f565b9150613dbf82614be6565b604082019050919050565b6000613dd760298361449f565b9150613de282614c35565b604082019050919050565b6000613dfa60288361449f565b9150613e0582614c84565b604082019050919050565b6000613e1d60218361449f565b9150613e2882614cd3565b604082019050919050565b6000613e40601f8361449f565b9150613e4b82614d22565b602082019050919050565b613e5f8161457a565b82525050565b613e6e8161457a565b82525050565b6000613e808284613abd565b915081905092915050565b6000602082019050613ea060008301846139f9565b92915050565b600060a082019050613ebb60008301886139f9565b613ec860208301876139f9565b8181036040830152613eda8186613a08565b90508181036060830152613eee8185613a08565b90508181036080830152613f028184613a84565b90509695505050505050565b600060a082019050613f2360008301886139f9565b613f3060208301876139f9565b613f3d6040830186613e65565b613f4a6060830185613e65565b8181036080830152613f5c8184613a84565b90509695505050505050565b6000604082019050613f7d60008301856139f9565b613f8a6020830184613e65565b9392505050565b60006020820190508181036000830152613fab8184613a08565b905092915050565b60006040820190508181036000830152613fcd8185613a08565b90508181036020830152613fe18184613a08565b90509392505050565b6000602082019050613fff6000830184613a66565b92915050565b600060208201905061401a6000830184613a75565b92915050565b6000602082019050818103600083015261403a8184613b1b565b905092915050565b6000602082019050818103600083015261405b81613b54565b9050919050565b6000602082019050818103600083015261407b81613b77565b9050919050565b6000602082019050818103600083015261409b81613b9a565b9050919050565b600060208201905081810360008301526140bb81613bbd565b9050919050565b600060208201905081810360008301526140db81613be0565b9050919050565b600060208201905081810360008301526140fb81613c03565b9050919050565b6000602082019050818103600083015261411b81613c26565b9050919050565b6000602082019050818103600083015261413b81613c49565b9050919050565b6000602082019050818103600083015261415b81613c6c565b9050919050565b6000602082019050818103600083015261417b81613c8f565b9050919050565b6000602082019050818103600083015261419b81613cb2565b9050919050565b600060208201905081810360008301526141bb81613cd5565b9050919050565b600060208201905081810360008301526141db81613cf8565b9050919050565b600060208201905081810360008301526141fb81613d1b565b9050919050565b6000602082019050818103600083015261421b81613d3e565b9050919050565b6000602082019050818103600083015261423b81613d61565b9050919050565b6000602082019050818103600083015261425b81613d84565b9050919050565b6000602082019050818103600083015261427b81613da7565b9050919050565b6000602082019050818103600083015261429b81613dca565b9050919050565b600060208201905081810360008301526142bb81613ded565b9050919050565b600060208201905081810360008301526142db81613e10565b9050919050565b600060208201905081810360008301526142fb81613e33565b9050919050565b60006020820190506143176000830184613e65565b92915050565b60006060820190506143326000830187613e65565b8181036020830152614345818587613aee565b90506143546040830184613e65565b95945050505050565b60006040820190506143726000830185613e65565b61437f6020830184613e65565b9392505050565b60006143906143a1565b905061439c82826145f8565b919050565b6000604051905090565b600067ffffffffffffffff8211156143c6576143c56146d0565b5b602082029050602081019050919050565b600067ffffffffffffffff8211156143f2576143f16146d0565b5b602082029050602081019050919050565b600067ffffffffffffffff82111561441e5761441d6146d0565b5b61442782614721565b9050602081019050919050565b6000819050602082019050919050565b600081519050919050565b600081519050919050565b600081519050919050565b6000602082019050919050565b600082825260208201905092915050565b600082825260208201905092915050565b600081905092915050565b600082825260208201905092915050565b60006144bb8261457a565b91506144c68361457a565b9250827fffffffffffffffffffffffffffffffffffffffffffffffffffffffffffffffff038211156144fb576144fa614672565b5b828201905092915050565b60006145118261455a565b9050919050565b60008115159050919050565b6000819050919050565b60007fffffffff0000000000000000000000000000000000000000000000000000000082169050919050565b600073ffffffffffffffffffffffffffffffffffffffff82169050919050565b6000819050919050565b82818337600083830152505050565b60005b838110156145b1578082015181840152602081019050614596565b838111156145c0576000848401525b50505050565b600060028204905060018216806145de57607f821691505b602082108114156145f2576145f16146a1565b5b50919050565b61460182614721565b810181811067ffffffffffffffff821117156146205761461f6146d0565b5b80604052505050565b60006146348261457a565b91507fffffffffffffffffffffffffffffffffffffffffffffffffffffffffffffffff82141561466757614666614672565b5b600182019050919050565b7f4e487b7100000000000000000000000000000000000000000000000000000000600052601160045260246000fd5b7f4e487b7100000000000000000000000000000000000000000000000000000000600052602260045260246000fd5b7f4e487b7100000000000000000000000000000000000000000000000000000000600052604160045260246000fd5b600060033d111561471e5760046000803e61471b600051614732565b90505b90565b6000601f19601f8301169050919050565b60008160e01c9050919050565b7f455243313135353a207472616e7366657220746f206e6f6e204552433131353560008201527f526563656976657220696d706c656d656e746572000000000000000000000000602082015250565b7f455243313135353a204552433131353552656365697665722072656a6563746560008201527f6420746f6b656e73000000000000000000000000000000000000000000000000602082015250565b7f4272696467654368696c643a206661696c656420746f20706179206665650000600082015250565b7f455243313135353a2062616c616e636520717565727920666f7220746865207a60008201527f65726f2061646472657373000000000000000000000000000000000000000000602082015250565b7f4f776e61626c653a206e6577206f776e657220697320746865207a65726f206160008201527f6464726573730000000000000000000000000000000000000000000000000000602082015250565b7f455243313135353a206275726e20616d6f756e7420657863656564732062616c60008201527f616e636500000000000000000000000000000000000000000000000000000000602082015250565b7f455243313135353a2063616c6c6572206973206e6f74206f776e6572206e6f7260008201527f20617070726f7665640000000000000000000000000000000000000000000000602082015250565b7f4272696467654368696c643a2063616e6e6f74207472616e7366657220746f2060008201527f68756220636f6e74726163740000000000000000000000000000000000000000602082015250565b7f455243313135353a207472616e7366657220746f20746865207a65726f20616460008201527f6472657373000000000000000000000000000000000000000000000000000000602082015250565b7f455243313135353a207472616e736665722063616c6c6572206973206e6f742060008201527f6f776e6572206e6f7220617070726f7665640000000000000000000000000000602082015250565b7f455243313135353a206275726e2066726f6d20746865207a65726f206164647260008201527f6573730000000000000000000000000000000000000000000000000000000000602082015250565b7f455243313135353a20696e73756666696369656e742062616c616e636520666f60008201527f72207472616e7366657200000000000000000000000000000000000000000000602082015250565b7f4272696467654368696c643a20696e73756666696369656e7420746f6b656e2060008201527f62616c616e6365206f66207468652063616c6c65720000000000000000000000602082015250565b7f4f776e61626c653a2063616c6c6572206973206e6f7420746865206f776e6572600082015250565b7f4272696467654368696c643a206f6e6c792068756220636f6e74726163740000600082015250565b7f4272696467654368696c643a2066656520616d6f756e74206e6f74206d61746360008201527f6800000000000000000000000000000000000000000000000000000000000000602082015250565b7f4272696467654368696c643a20696e76616c696420726563697069656e740000600082015250565b7f455243313135353a2073657474696e6720617070726f76616c2073746174757360008201527f20666f722073656c660000000000000000000000000000000000000000000000602082015250565b7f455243313135353a206163636f756e747320616e6420696473206c656e67746860008201527f206d69736d617463680000000000000000000000000000000000000000000000602082015250565b7f455243313135353a2069647320616e6420616d6f756e7473206c656e6774682060008201527f6d69736d61746368000000000000000000000000000000000000000000000000602082015250565b7f455243313135353a206d696e7420746f20746865207a65726f2061646472657360008201527f7300000000000000000000000000000000000000000000000000000000000000602082015250565b7f5265656e7472616e637947756172643a207265656e7472616e742063616c6c00600082015250565b600060443d1015614d5b57614dde565b614d636143a1565b60043d036004823e80513d602482011167ffffffffffffffff82111715614d8b575050614dde565b808201805167ffffffffffffffff811115614da95750505050614dde565b80602083010160043d038501811115614dc6575050505050614dde565b614dd5826020018501866145f8565b82955050505050505b90565b614dea81614506565b8114614df557600080fd5b50565b614e0181614518565b8114614e0c57600080fd5b50565b614e1881614524565b8114614e2357600080fd5b50565b614e2f8161452e565b8114614e3a57600080fd5b50565b614e468161457a565b8114614e5157600080fd5b5056fea2646970667358221220600bd0c4c16e89b7eeb80a090afa1d0cde03f23d249ccbd9026037bc2b0e96ac64736f6c63430008040033",
  "linkReferences": {},
  "deployedLinkReferences": {}
}