{
  "_format": "hh-sol-artifact-1",
  "contractName": "BondlyBridgeHub",
  "sourceName": "contracts/BondlyBridgeHub.sol",
  "abi": [
    {
      "inputs": [
        {
          "internalType": "bytes32",
          "name": "whitelistMerkleHash_",
          "type": "bytes32"
        },
        {
          "internalType": "address",
          "name": "discountManager_",
          "type": "address"
        },
        {
          "internalType": "address",
          "name": "proofSigner_",
          "type": "address"
        }
      ],
      "stateMutability": "nonpayable",
      "type": "constructor"
    },
    {
      "anonymous": false,
      "inputs": [
        {
          "indexed": true,
          "internalType": "address",
          "name": "recipient",
          "type": "address"
        },
        {
          "indexed": true,
          "internalType": "address",
          "name": "token",
          "type": "address"
        },
        {
          "indexed": false,
          "internalType": "uint256",
          "name": "tokenId",
          "type": "uint256"
        },
        {
          "indexed": false,
          "internalType": "uint256",
          "name": "amount",
          "type": "uint256"
        }
      ],
      "name": "Claim",
      "type": "event"
    },
    {
      "anonymous": false,
      "inputs": [
        {
          "indexed": false,
          "internalType": "address",
          "name": "user",
          "type": "address"
        },
        {
          "indexed": false,
          "internalType": "uint256",
          "name": "amount",
          "type": "uint256"
        }
      ],
      "name": "FeeWithdrawn",
      "type": "event"
    },
    {
      "anonymous": false,
      "inputs": [
        {
          "indexed": true,
          "internalType": "address",
          "name": "from",
          "type": "address"
        },
        {
          "indexed": true,
          "internalType": "uint256",
          "name": "depositIdTracker",
          "type": "uint256"
        },
        {
          "indexed": true,
          "internalType": "address",
          "name": "token",
          "type": "address"
        },
        {
          "indexed": false,
          "internalType": "uint256",
          "name": "tokenId",
          "type": "uint256"
        },
        {
          "indexed": false,
          "internalType": "uint256",
          "name": "amount",
          "type": "uint256"
        },
        {
          "indexed": false,
          "internalType": "string",
          "name": "recipient",
          "type": "string"
        }
      ],
      "name": "NativeTokenDeposited",
      "type": "event"
    },
    {
      "anonymous": false,
      "inputs": [
        {
          "indexed": true,
          "internalType": "address",
          "name": "previousOwner",
          "type": "address"
        },
        {
          "indexed": true,
          "internalType": "address",
          "name": "newOwner",
          "type": "address"
        }
      ],
      "name": "OwnershipTransferred",
      "type": "event"
    },
    {
      "anonymous": false,
      "inputs": [
        {
          "indexed": true,
          "internalType": "string",
          "name": "recipient",
          "type": "string"
        },
        {
          "indexed": true,
          "internalType": "uint256",
          "name": "currencySymbol",
          "type": "uint256"
        },
        {
          "indexed": false,
          "internalType": "uint256",
          "name": "tokenId",
          "type": "uint256"
        },
        {
          "indexed": false,
          "internalType": "bytes32",
          "name": "tokenName",
          "type": "bytes32"
        },
        {
          "indexed": false,
          "internalType": "uint256",
          "name": "amount",
          "type": "uint256"
        }
      ],
      "name": "ReturnForeignToken",
      "type": "event"
    },
    {
      "anonymous": false,
      "inputs": [
        {
          "indexed": true,
          "internalType": "string",
          "name": "recipient",
          "type": "string"
        },
        {
          "indexed": true,
          "internalType": "address",
          "name": "tokenAddress",
          "type": "address"
        },
        {
          "indexed": false,
          "internalType": "string",
          "name": "tokenName",
          "type": "string"
        },
        {
          "indexed": false,
          "internalType": "uint256",
          "name": "tokenId",
          "type": "uint256"
        },
        {
          "indexed": false,
          "internalType": "uint256",
          "name": "amount",
          "type": "uint256"
        },
        {
          "indexed": false,
          "internalType": "string",
          "name": "tokenMetaURI",
          "type": "string"
        }
      ],
      "name": "SendNativeToken",
      "type": "event"
    },
    {
      "inputs": [],
      "name": "childImpl",
      "outputs": [
        {
          "internalType": "address",
          "name": "",
          "type": "address"
        }
      ],
      "stateMutability": "view",
      "type": "function"
    },
    {
      "inputs": [
        {
          "internalType": "address",
          "name": "recipient",
          "type": "address"
        },
        {
          "internalType": "uint256",
          "name": "currencySymbol",
          "type": "uint256"
        },
        {
          "internalType": "bytes32",
          "name": "tokenName",
          "type": "bytes32"
        },
        {
          "internalType": "string",
          "name": "tokenUri",
          "type": "string"
        },
        {
          "internalType": "uint256",
          "name": "amount",
          "type": "uint256"
        },
        {
          "internalType": "bytes32",
          "name": "proofKey",
          "type": "bytes32"
        },
        {
          "internalType": "bytes",
          "name": "proof",
          "type": "bytes"
        }
      ],
      "name": "claimForeignToken",
      "outputs": [],
      "stateMutability": "nonpayable",
      "type": "function"
    },
    {
      "inputs": [
        {
          "internalType": "address",
          "name": "recipient",
          "type": "address"
        },
        {
          "internalType": "address",
          "name": "token",
          "type": "address"
        },
        {
          "internalType": "uint256",
          "name": "tokenId",
          "type": "uint256"
        },
        {
          "internalType": "uint256",
          "name": "amount",
          "type": "uint256"
        },
        {
          "internalType": "bytes32",
          "name": "proofKey",
          "type": "bytes32"
        },
        {
          "internalType": "bytes",
          "name": "proof",
          "type": "bytes"
        }
      ],
      "name": "claimNativeToken",
      "outputs": [],
      "stateMutability": "nonpayable",
      "type": "function"
    },
    {
      "inputs": [],
      "name": "depositIdTracker",
      "outputs": [
        {
          "internalType": "uint256",
          "name": "",
          "type": "uint256"
        }
      ],
      "stateMutability": "view",
      "type": "function"
    },
    {
      "inputs": [],
      "name": "discountManager",
      "outputs": [
        {
          "internalType": "address",
          "name": "",
          "type": "address"
        }
      ],
      "stateMutability": "view",
      "type": "function"
    },
    {
      "inputs": [],
      "name": "feeBalance",
      "outputs": [
        {
          "internalType": "uint256",
          "name": "",
          "type": "uint256"
        }
      ],
      "stateMutability": "view",
      "type": "function"
    },
    {
      "inputs": [
        {
          "internalType": "address",
          "name": "",
          "type": "address"
        },
        {
          "internalType": "address",
          "name": "",
          "type": "address"
        },
        {
          "internalType": "uint256[]",
          "name": "",
          "type": "uint256[]"
        },
        {
          "internalType": "uint256[]",
          "name": "",
          "type": "uint256[]"
        },
        {
          "internalType": "bytes",
          "name": "",
          "type": "bytes"
        }
      ],
      "name": "onERC1155BatchReceived",
      "outputs": [
        {
          "internalType": "bytes4",
          "name": "",
          "type": "bytes4"
        }
      ],
      "stateMutability": "pure",
      "type": "function"
    },
    {
      "inputs": [
        {
          "internalType": "address",
          "name": "",
          "type": "address"
        },
        {
          "internalType": "address",
          "name": "from",
          "type": "address"
        },
        {
          "internalType": "uint256",
          "name": "id",
          "type": "uint256"
        },
        {
          "internalType": "uint256",
          "name": "amount",
          "type": "uint256"
        },
        {
          "internalType": "bytes",
          "name": "data",
          "type": "bytes"
        }
      ],
      "name": "onERC1155Received",
      "outputs": [
        {
          "internalType": "bytes4",
          "name": "",
          "type": "bytes4"
        }
      ],
      "stateMutability": "nonpayable",
      "type": "function"
    },
    {
      "inputs": [
        {
          "internalType": "address",
          "name": "",
          "type": "address"
        },
        {
          "internalType": "address",
          "name": "from",
          "type": "address"
        },
        {
          "internalType": "uint256",
          "name": "id",
          "type": "uint256"
        },
        {
          "internalType": "bytes",
          "name": "data",
          "type": "bytes"
        }
      ],
      "name": "onERC721Received",
      "outputs": [
        {
          "internalType": "bytes4",
          "name": "",
          "type": "bytes4"
        }
      ],
      "stateMutability": "nonpayable",
      "type": "function"
    },
    {
      "inputs": [],
      "name": "owner",
      "outputs": [
        {
          "internalType": "address",
          "name": "",
          "type": "address"
        }
      ],
      "stateMutability": "view",
      "type": "function"
    },
    {
      "inputs": [
        {
          "internalType": "bytes32",
          "name": "",
          "type": "bytes32"
        }
      ],
      "name": "proofClaims",
      "outputs": [
        {
          "internalType": "bool",
          "name": "",
          "type": "bool"
        }
      ],
      "stateMutability": "view",
      "type": "function"
    },
    {
      "inputs": [],
      "name": "proofSigner",
      "outputs": [
        {
          "internalType": "address",
          "name": "",
          "type": "address"
        }
      ],
      "stateMutability": "view",
      "type": "function"
    },
    {
      "inputs": [],
      "name": "renounceOwnership",
      "outputs": [],
      "stateMutability": "nonpayable",
      "type": "function"
    },
    {
      "inputs": [
        {
          "internalType": "uint256",
          "name": "tokenId",
          "type": "uint256"
        },
        {
          "internalType": "string",
          "name": "recipient",
          "type": "string"
        },
        {
          "internalType": "uint256",
          "name": "amount",
          "type": "uint256"
        }
      ],
      "name": "returnForeignToken",
      "outputs": [],
      "stateMutability": "payable",
      "type": "function"
    },
    {
      "inputs": [
        {
          "internalType": "uint256",
          "name": "depositId",
          "type": "uint256"
        },
        {
          "internalType": "uint256",
          "name": "discountId",
          "type": "uint256"
        }
      ],
      "name": "sendNativeToken",
      "outputs": [],
      "stateMutability": "payable",
      "type": "function"
    },
    {
      "inputs": [
        {
          "internalType": "uint256",
          "name": "",
          "type": "uint256"
        }
      ],
      "name": "sendNativeTokenInfo",
      "outputs": [
        {
          "internalType": "address",
          "name": "token",
          "type": "address"
        },
        {
          "internalType": "uint256",
          "name": "tokenId",
          "type": "uint256"
        },
        {
          "internalType": "uint256",
          "name": "amount",
          "type": "uint256"
        },
        {
          "internalType": "string",
          "name": "recipient",
          "type": "string"
        }
      ],
      "stateMutability": "view",
      "type": "function"
    },
    {
      "inputs": [
        {
          "internalType": "address",
          "name": "childImpl_",
          "type": "address"
        }
      ],
      "name": "setChildImplementation",
      "outputs": [],
      "stateMutability": "nonpayable",
      "type": "function"
    },
    {
      "inputs": [
        {
          "internalType": "bytes4",
          "name": "interfaceId",
          "type": "bytes4"
        }
      ],
      "name": "supportsInterface",
      "outputs": [
        {
          "internalType": "bool",
          "name": "",
          "type": "bool"
        }
      ],
      "stateMutability": "pure",
      "type": "function"
    },
    {
      "inputs": [
        {
          "internalType": "address",
          "name": "newOwner",
          "type": "address"
        }
      ],
      "name": "transferOwnership",
      "outputs": [],
      "stateMutability": "nonpayable",
      "type": "function"
    },
    {
      "inputs": [
        {
          "internalType": "bytes32",
          "name": "whitelistHash",
          "type": "bytes32"
        }
      ],
      "name": "updateTreeHash",
      "outputs": [],
      "stateMutability": "nonpayable",
      "type": "function"
    },
    {
      "inputs": [],
      "name": "whitelistMerkleHash",
      "outputs": [
        {
          "internalType": "bytes32",
          "name": "",
          "type": "bytes32"
        }
      ],
      "stateMutability": "view",
      "type": "function"
    },
    {
      "inputs": [],
      "name": "withdrawFee",
      "outputs": [],
      "stateMutability": "nonpayable",
      "type": "function"
    },
    {
      "stateMutability": "payable",
      "type": "receive"
    }
  ],
  "bytecode": "0x60c06040523480156200001157600080fd5b50604051620072f5380380620072f5833981810160405281019062000037919062000345565b620000576200004b6200024860201b60201c565b6200025060201b60201c565b60018081905550620000927fef090d0ca6968d7a220596c62e4964170dc37e49933cfa2351adcec7a5d67d2760001b6200031460201b60201c565b620000c67f07cf45e6c3a1220ccf95c3d44af1bd81911bf6e8529474b73a1ef21c36cc580560001b6200031460201b60201c565b620000fa7fd7117a5e72a2eec3aeaec5a483ded3a0db91784ee3e90672cf348c9f48eac88560001b6200031460201b60201c565b82600281905550620001357fa06895c66bd208f6510e423fffcdf4556b75c3aac2020e6a9e065b46e949b70560001b6200031460201b60201c565b620001697f76f505451ee9c4f32ec9fb435078d523d9ae81c6da8a14aaf125f98bd550bfc360001b6200031460201b60201c565b8173ffffffffffffffffffffffffffffffffffffffff1660808173ffffffffffffffffffffffffffffffffffffffff1660601b81525050620001d47f350c6100bcdc39b3aa2c0a2169fd5bc2010eaa90e75e2b1f619f03d095cd7f9d60001b6200031460201b60201c565b620002087fcc045c8a3d5bcc9313a9eebb7112562ce8dcda15ed7a51f84b7c7ac4609542cf60001b6200031460201b60201c565b8073ffffffffffffffffffffffffffffffffffffffff1660a08173ffffffffffffffffffffffffffffffffffffffff1660601b815250505050506200040d565b600033905090565b60008060009054906101000a900473ffffffffffffffffffffffffffffffffffffffff169050816000806101000a81548173ffffffffffffffffffffffffffffffffffffffff021916908373ffffffffffffffffffffffffffffffffffffffff1602179055508173ffffffffffffffffffffffffffffffffffffffff168173ffffffffffffffffffffffffffffffffffffffff167f8be0079c531659141344cd1fd0a4f28419497f9722a3daafe3b4186f6b6457e060405160405180910390a35050565b50565b6000815190506200032881620003d9565b92915050565b6000815190506200033f81620003f3565b92915050565b6000806000606084860312156200035b57600080fd5b60006200036b868287016200032e565b93505060206200037e8682870162000317565b9250506040620003918682870162000317565b9150509250925092565b6000620003a882620003b9565b9050919050565b6000819050919050565b600073ffffffffffffffffffffffffffffffffffffffff82169050919050565b620003e4816200039b565b8114620003f057600080fd5b50565b620003fe81620003af565b81146200040a57600080fd5b50565b60805160601c60a05160601c616ea0620004556000396000818161169901528181612021015261268e015260008181610a770152818161281e015261334f0152616ea06000f3fe6080604052600436106101385760003560e01c8063715018a6116100ab578063ad2cac081161006f578063ad2cac0814610416578063bc197c8114610432578063d9a13db31461046f578063e941fa7814610498578063f23a6e61146104af578063f2fde38b146104ec5761013f565b8063715018a6146103555780637ee87a271461036c5780638da5cb5b14610397578063911df328146103c2578063945c012c146103eb5761013f565b80634432c609116100fd5780634432c60914610242578063477de9191461026b578063564490c41461029457806360b71d4e146102bf578063650d7cf2146102ea5780636ea98ad11461032a5761013f565b8062950fda1461014457806301ffc9a71461016f578063150b7a02146101ac57806319f80cf5146101e957806332ffe25f146102055761013f565b3661013f57005b600080fd5b34801561015057600080fd5b50610159610515565b604051610166919061603d565b60405180910390f35b34801561017b57600080fd5b5061019660048036038101906101919190615887565b61053b565b6040516101a391906161aa565b60405180910390f35b3480156101b857600080fd5b506101d360048036038101906101ce919061557d565b6106f9565b6040516101e09190616225565b60405180910390f35b61020360048036038101906101fe91906159af565b61083c565b005b34801561021157600080fd5b5061022c60048036038101906102279190615835565b611468565b60405161023991906161aa565b60405180910390f35b34801561024e57600080fd5b50610269600480360381019061026491906155fd565b611488565b005b34801561027757600080fd5b50610292600480360381019061028d9190615736565b611e10565b005b3480156102a057600080fd5b506102a961268c565b6040516102b6919061603d565b60405180910390f35b3480156102cb57600080fd5b506102d46126b0565b6040516102e19190616564565b60405180910390f35b3480156102f657600080fd5b50610311600480360381019061030c91906158f1565b6126b6565b604051610321949392919061615e565b60405180910390f35b34801561033657600080fd5b5061033f61278e565b60405161034c91906161c5565b60405180910390f35b34801561036157600080fd5b5061036a612794565b005b34801561037857600080fd5b5061038161281c565b60405161038e919061603d565b60405180910390f35b3480156103a357600080fd5b506103ac612840565b6040516103b9919061603d565b60405180910390f35b3480156103ce57600080fd5b506103e960048036038101906103e49190615835565b612869565b005b3480156103f757600080fd5b50610400612a69565b60405161040d9190616564565b60405180910390f35b610430600480360381019061042b9190615943565b612a6f565b005b34801561043e57600080fd5b50610459600480360381019061045491906154b1565b612f74565b6040516104669190616225565b60405180910390f35b34801561047b57600080fd5b506104966004803603810190610491919061545f565b613035565b005b3480156104a457600080fd5b506104ad613179565b005b3480156104bb57600080fd5b506104d660048036038101906104d191906156a4565b61360b565b6040516104e39190616225565b60405180910390f35b3480156104f857600080fd5b50610513600480360381019061050e919061545f565b61374e565b005b600360009054906101000a900473ffffffffffffffffffffffffffffffffffffffff1681565b60006105697f74508ee7f378a824c00a2183a2f6ac31f1f652506b8667d712675d98b39879e660001b613846565b6105957f033d7fe597cd10132d6b9b5a9a8a5d47fc4fec60c03a0d1b79fdd54f2e7145d560001b613846565b6105c17f2f87fe9e823aae51f236a8aac8b23d61b3ffb94bcc92f36eefb9c007e4ca01eb60001b613846565b7f01ffc9a7000000000000000000000000000000000000000000000000000000007bffffffffffffffffffffffffffffffffffffffffffffffffffffffff1916827bffffffffffffffffffffffffffffffffffffffffffffffffffffffff1916148061068a57507f150b7a02000000000000000000000000000000000000000000000000000000007bffffffffffffffffffffffffffffffffffffffffffffffffffffffff1916827bffffffffffffffffffffffffffffffffffffffffffffffffffffffff1916145b806106f257507f4e2312e0000000000000000000000000000000000000000000000000000000007bffffffffffffffffffffffffffffffffffffffffffffffffffffffff1916827bffffffffffffffffffffffffffffffffffffffffffffffffffffffff1916145b9050919050565b60006107277fe2e46252af759ad9b9938b1b585713e29599b64ae68658465ebf4e05107f9cc460001b613846565b6107537f903d7a664afed395f50763297c3e44ab7c1f31d037afabaa9e95ef405432b7fb60001b613846565b61077f7fd9c5732d897605523eedb06145901162f265b75e1c6ee1fe5968681d908cbdac60001b613846565b6107d1853386600187878080601f016020809104026020016040519081016040528093929190818152602001838380828437600081840152601f19601f82011690508083019250505050505050613849565b6107fd7f66b267b5bc50a0d13c5c565f6908e37c217b655bcfb0f14e8fafc5422562b2d860001b613846565b6108297fbf78f048bca099f14496e1874d1423b98e5b51c2269255fb825663627b6706ea60001b613846565b63150b7a0260e01b905095945050505050565b6108687f86ce4d829748a120ae91cbebbc45c436fc02a5b083ccb5294758a8034811bb6d60001b613846565b6108947f5427b04bd61918d045cad67dedaf67fce672a812c685c1f9f19d1c3c9c79c7dc60001b613846565b6108c07f75f1c5be9f2ff90354ba033e03a14a51a8693803eb8a048b8740d5d2c18eb2ad60001b613846565b60006007600084815260200190815260200160002090506109037ff7a3e9f16dce3d41fb4fcb03ca0b6fb19eb54a2df6bc5d85509204887ac02e7a60001b613846565b61092f7f13b274aa6accdce4fd7832411235c061d65a294c7d0ea43c55923d4c1c06568760001b613846565b61095b7fafa0b8d377799658a695f667a1a65915a0c6cb8252026ecead0b3cba57d136b460001b613846565b600073ffffffffffffffffffffffffffffffffffffffff168160000160009054906101000a900473ffffffffffffffffffffffffffffffffffffffff1673ffffffffffffffffffffffffffffffffffffffff1614156109ef576040517f08c379a00000000000000000000000000000000000000000000000000000000081526004016109e690616453565b60405180910390fd5b610a1b7fdfb7ea14a73e1a0a765fe3a5d0c4e9eae9c5d43bc5bb87773fcaf788efdbaf8760001b613846565b610a477f42d41fb82bd837b97814a883cbe9d675126b0e2d4459ed67ced3cddeb82e80dd60001b613846565b610a737f2853bc93415ec0a57ac63cfe13c2eeb89acd16da65448ed8a1ce3ef6ba7691cd60001b613846565b60007f00000000000000000000000000000000000000000000000000000000000000009050610ac47f0f0138ca55b9aa6157d7c5d9e9dd808c1c843cd0351e9970635ff0271b0022f060001b613846565b610af07fa7b45d7d35d5a3bfe3b8496b69d9420b0588cedf822ec1c047fa71137825501c60001b613846565b60008173ffffffffffffffffffffffffffffffffffffffff1663e496c3e233866040518363ffffffff1660e01b8152600401610b2d9291906160e7565b60206040518083038186803b158015610b4557600080fd5b505afa158015610b59573d6000803e3d6000fd5b505050506040513d601f19601f82011682018060405250810190610b7d919061591a565b9050610bab7fc974202127bf32ea70008b1d37373aae98b559eb4aeaec2ca2669e5382868b0360001b613846565b610bd77f521f2c301865ef2f533c13d696aa7e39c72b0e551ecb79a24829099e346331af60001b613846565b610c037f9a880586e8b4c35cf0d0fb484a42a231248ae89f176d6b04c04c9543dc220fff60001b613846565b803414610c45576040517f08c379a0000000000000000000000000000000000000000000000000000000008152600401610c3c906162f3565b60405180910390fd5b610c717ff753aee847a2dfe65876dcc2e365f1c65bef524207c1ad0b87a8d33b8a6d820360001b613846565b610c9d7fe4ff6b7b475ab2da87862ef9565a6bab7531a7150520d037a9f1e8123f72554b60001b613846565b610cc87ef70c8c206336b2f9dbe693983bc952ee5e3624d98db2304c3c6e1658933cea60001b613846565b6000811115610d3e57610cfd7fb341fb939741b009ff51881d3e95c3d3be2028cd792e69041d26553a1072d0a560001b613846565b610d297f48e1d4c070996b2d8efe99abae2a5d7ce52f0e5f1a5f9f2cf3ed8e04e2761dfe60001b613846565b80600560008282540192505081905550610d6b565b610d6a7fe8c425bffa7a1457551e85edfc62763557205c3466897bf8ea2ac1883e86251760001b613846565b5b610d977fe05e40ecaf908d1ae1b6b6d41425dc1ed4dc79fb27c5739d7bdcf2e1f73aaf1260001b613846565b610dc37f798fe97a3672f2dcba45cd9dfaa46e97e203b29840bbc9fc9f762e7c50f15abc60001b613846565b610e307f80ac58cd000000000000000000000000000000000000000000000000000000008460000160009054906101000a900473ffffffffffffffffffffffffffffffffffffffff1673ffffffffffffffffffffffffffffffffffffffff16613dea90919063ffffffff16565b156110af57610e617fa23c8e26d624ca72eab3af06d6923914984962d4d93b111b25a2d48a0c77d25360001b613846565b610e8d7f20835cac71f7405b11db7e4f995ace4d169899eff34862d492167e9b862bb2a060001b613846565b610eb97fcea47f06059ae834787e985231159c533e5c2cc2a0bc7d8212b5542a58ffeb4e60001b613846565b8260000160009054906101000a900473ffffffffffffffffffffffffffffffffffffffff1673ffffffffffffffffffffffffffffffffffffffff1683600301604051610f059190616011565b60405180910390207ff8a430986f656826442ac3fd26861582a3e9e9453a2657d7d95b4e5149405bb08560000160009054906101000a900473ffffffffffffffffffffffffffffffffffffffff1673ffffffffffffffffffffffffffffffffffffffff166306fdde036040518163ffffffff1660e01b815260040160006040518083038186803b158015610f9857600080fd5b505afa158015610fac573d6000803e3d6000fd5b505050506040513d6000823e3d601f19601f82011682018060405250810190610fd591906158b0565b866001015460018860000160009054906101000a900473ffffffffffffffffffffffffffffffffffffffff1673ffffffffffffffffffffffffffffffffffffffff1663c87b56dd8a600101546040518263ffffffff1660e01b815260040161103d9190616564565b60006040518083038186803b15801561105557600080fd5b505afa158015611069573d6000803e3d6000fd5b505050506040513d6000823e3d601f19601f8201168201806040525081019061109291906158b0565b6040516110a29493929190616240565b60405180910390a361140e565b6110db7f590bbbe07a8f4a0bb9efc838db112c256cd23911a5f11795ad648183ee572d1360001b613846565b6111077f5beebd4bd15cd5269038708d11623b25830e0add6813e5a0423e964dc45a758b60001b613846565b6111747fd9b67a26000000000000000000000000000000000000000000000000000000008460000160009054906101000a900473ffffffffffffffffffffffffffffffffffffffff1673ffffffffffffffffffffffffffffffffffffffff16613dea90919063ffffffff16565b1561134e576111a57fbf53ca4c663121f6f01bbd0a27ef9f2e0eba379fa24a6012f8425d994cfbb68560001b613846565b6111d17f094340220149addcb9580adb1675f17db891f4a9666362346d3535956c3b179960001b613846565b6111fd7f0f253e38abec4872e9e42be15d1a443c7d6c5aef7714282a88c83779b525845c60001b613846565b8260000160009054906101000a900473ffffffffffffffffffffffffffffffffffffffff1673ffffffffffffffffffffffffffffffffffffffff16836003016040516112499190616011565b60405180910390207ff8a430986f656826442ac3fd26861582a3e9e9453a2657d7d95b4e5149405bb0856001015486600201548760000160009054906101000a900473ffffffffffffffffffffffffffffffffffffffff1673ffffffffffffffffffffffffffffffffffffffff16630e89341c89600101546040518263ffffffff1660e01b81526004016112dd9190616564565b60006040518083038186803b1580156112f557600080fd5b505afa158015611309573d6000803e3d6000fd5b505050506040513d6000823e3d601f19601f8201168201806040525081019061133291906158b0565b604051611341939291906164d3565b60405180910390a361140d565b61137a7fd2291caf5eee2233f912c71bd03667f7fae478670441cbc804202d0560fec4d760001b613846565b6113a67fe8908c05b84285bc2c7f56d34cc4e91bf3888f174faefb49994483da71a6059360001b613846565b6113d27f7c784b70f5fb87a67cc4177e7d439fe2a8d9e635ea4d92a70f89d5df0c6a122e60001b613846565b6040517f08c379a0000000000000000000000000000000000000000000000000000000008152600401611404906164b3565b60405180910390fd5b5b61143a7fae3dc160739581e28d8e761e321bd5759833107c4b85818461b5fbabeb70cc4960001b613846565b8260000160006101000a81549073ffffffffffffffffffffffffffffffffffffffff02191690555050505050565b60066020528060005260406000206000915054906101000a900460ff1681565b600260015414156114ce576040517f08c379a00000000000000000000000000000000000000000000000000000000081526004016114c590616544565b60405180910390fd5b60026001819055506115027fa53c3db0b923f61d65f80f84040732d0bf446ec88959544b5e6bd95abb14696b60001b613846565b61152e7f778e45e5d52355ab8d17900fb26534eb190b4c0a232365c14b5a20de65f3246460001b613846565b61155a7f78530f1dbdae9af6839441114a071630f8f8200488216cdde6f97fc643ef335b60001b613846565b6115867ff0aef6555e117c859841ad0160b19b45ec097bd96ccbecc0238a123e41d8a7c960001b613846565b6006600084815260200190815260200160002060009054906101000a900460ff16156115e7576040517f08c379a00000000000000000000000000000000000000000000000000000000081526004016115de906162b3565b60405180910390fd5b6116137fbb82a6917a9823e576b7a68df2a51d7e6745df2263c154257f76366b932ad8f560001b613846565b61163f7f528e17039d88890bfb2396412b46330ff457a88f8bc1dcd506e5287d175e482860001b613846565b61166b7fca403faf4790d1577fa2008b3367ee9e8976d64b513a7a151b06a97b738db17460001b613846565b6116977f388bcf6927427bfb8772360853cbd43b2d1bed0c8d15f76dbdf030b139dc47a860001b613846565b7f000000000000000000000000000000000000000000000000000000000000000073ffffffffffffffffffffffffffffffffffffffff1661174a88888888886040516020016116ea959493929190615f14565b6040516020818303038152906040528051906020012084848080601f016020809104026020016040519081016040528093929190818152602001838380828437600081840152601f19601f82011690508083019250505050505050613e0f565b73ffffffffffffffffffffffffffffffffffffffff16146117a0576040517f08c379a000000000000000000000000000000000000000000000000000000000815260040161179790616433565b60405180910390fd5b6117cc7f2f06f8a946a1f14021ec6e81c11178d007ec285eb583cec062d0839fe8fedc8a60001b613846565b6117f87fc74bad638671bf31cdaf3deb904e3e8425a673361b8db88a420697655003385a60001b613846565b6118247fa1da5452317e2e435aa3ffc04267abe85b99589136d83d619c73e3c478cd809760001b613846565b60016006600085815260200190815260200160002060006101000a81548160ff02191690831515021790555061187c7f94baad318b406fe2b27dd1255af7f914279dc47fa27e9036a79a3810f05cfee860001b613846565b6118a87f3e9c9057cb343254ebffeadab5da742e06dd98829aa5d44c9350623888e0b14960001b613846565b6118f17f80ac58cd000000000000000000000000000000000000000000000000000000008773ffffffffffffffffffffffffffffffffffffffff16613dea90919063ffffffff16565b15611ae1576119227f6af54529ab5e8e621b2ad26bdc910da9553d429d5c0ce9808cc34cd6765b07c560001b613846565b61194e7f4502c86cb0c075c331e2db9f0089ef36c093bed9c0c86e26898352518177a4b760001b613846565b61197a7fa0df92eee1a7e239a694819ee07b8bb2385723c5f4444ef94dce0bc673d4274260001b613846565b6119a67fae47d98ecdb0b7ebb62da6cc0a0611efe558afc6946b15173a342d553a687a9560001b613846565b600184146119e9576040517f08c379a00000000000000000000000000000000000000000000000000000000081526004016119e0906163b3565b60405180910390fd5b611a157f7f72bd999f5532b351ff8d51f338ccc0bbd371a9f430d5a61d7fa93fdddf43bf60001b613846565b611a417f6ec99fa96f5daab645aea11f0db505cbbfc460f3ebd0c5cbc5a9cacd14b57fc060001b613846565b611a6d7f160827f1f0617d53d2023ab3b475a33b61e52c9f5ea025e5da0fa6fbee8e29f560001b613846565b8573ffffffffffffffffffffffffffffffffffffffff166342842e0e3089886040518463ffffffff1660e01b8152600401611aaa93929190616058565b600060405180830381600087803b158015611ac457600080fd5b505af1158015611ad8573d6000803e3d6000fd5b50505050611d41565b611b0d7ff3feea2340bbe2e42d0ba3ebb71bf0ce862d9077a5367f9f57b0292ab6715b0860001b613846565b611b397fd24112c6e0c1ceb1ecf4b04eff6d0232a91ad58031f5a7818780e4586b70e1ca60001b613846565b611b827fd9b67a26000000000000000000000000000000000000000000000000000000008773ffffffffffffffffffffffffffffffffffffffff16613dea90919063ffffffff16565b15611c8157611bb37fc0478e4cb15d7b21f81d44234a6671856d9541ef688a5d4a18786ac1d56b843760001b613846565b611bdf7fc76b69bbaea342a978828a63dd61e857065b04da67909c554aac6dffaf3e079e60001b613846565b611c0b7fea7acfe567293e2ce8f018adfed7660da34289de1f67497f49da866d2684566360001b613846565b8573ffffffffffffffffffffffffffffffffffffffff1663f242432a308988886040518563ffffffff1660e01b8152600401611c4a949392919061608f565b600060405180830381600087803b158015611c6457600080fd5b505af1158015611c78573d6000803e3d6000fd5b50505050611d40565b611cad7f4d0e0fcaa0312b9230d6aebdddb6328257c77d98ace1eaabe4da5d78df28f8a260001b613846565b611cd97f07cf4bd435edd09627ced058632b34b618bbfadc3e15e27a87023bdc2b5b2c0260001b613846565b611d057f653b96a6e32c833207a89124c0d93e7d063900e65d8565c5cddf4823b9cc66b160001b613846565b6040517f08c379a0000000000000000000000000000000000000000000000000000000008152600401611d37906164b3565b60405180910390fd5b5b611d6d7f5bea91af1144f69f9a9107f90c1ed5c30e37ef6297e128d76680d68863e42dfc60001b613846565b611d997ff6779a4afed4f8d3a7de8654a01e644125120d70dcd5098cf4be1b094165b00760001b613846565b8573ffffffffffffffffffffffffffffffffffffffff168773ffffffffffffffffffffffffffffffffffffffff167f865ca08d59f5cb456e85cd2f7ef63664ea4f73327414e9d8152c4158b0e946458787604051611df89291906165b6565b60405180910390a36001808190555050505050505050565b60026001541415611e56576040517f08c379a0000000000000000000000000000000000000000000000000000000008152600401611e4d90616544565b60405180910390fd5b6002600181905550611e8a7f664252e49d303a5683d5a68acddaca3b514a9aab31d1e0a4d7a060862f4afc3c60001b613846565b611eb67f336765ef4b57a879da748e2c4225af53804537cd3d9b4bf953dd1398d1736fa260001b613846565b611ee27fea269a3195bba27b98fd111f93d9e57075d25e9bf1f0b2d8a67147bd515482a860001b613846565b611f0e7fad5419d0197c2d2caf4d80610e81212a703219adc82f1634821ab6c853e1a12660001b613846565b6006600084815260200190815260200160002060009054906101000a900460ff1615611f6f576040517f08c379a0000000000000000000000000000000000000000000000000000000008152600401611f66906162b3565b60405180910390fd5b611f9b7f6b08f855f8c4420c1f52888e1d5f955af498abd7f666b53339a9f54ca80fc1f360001b613846565b611fc77fd8a4a1d84a7078767ec63c3a222bd61296d660ed8736acbcf918fa1e529c33b460001b613846565b611ff37f3eaf0c9aff9aef8f7550e6153cd6da46e5ca6f2cb9e8839b976d218670ae17db60001b613846565b61201f7f9f1ab9da91bc6cc2cfa7beafbc4dda76eb2b3171858387b837348c1c4a4756f460001b613846565b7f000000000000000000000000000000000000000000000000000000000000000073ffffffffffffffffffffffffffffffffffffffff166120d68a8a8a8a8a8a8a6040516020016120769796959493929190615f73565b6040516020818303038152906040528051906020012084848080601f016020809104026020016040519081016040528093929190818152602001838380828437600081840152601f19601f82011690508083019250505050505050613e0f565b73ffffffffffffffffffffffffffffffffffffffff161461212c576040517f08c379a000000000000000000000000000000000000000000000000000000000815260040161212390616433565b60405180910390fd5b6121587f6743b038118b762eb9165d0b430ed50d91a7387ee7200277aa12ac78b4142e7760001b613846565b6121847f0cc754ed0d822919c3479edb866eb1569370e40e28783f3a49b376b9383cca2960001b613846565b6121b07f3c5f9c45618857561ccc576e6d4d949b02bb9fc7292b1234ad580e79e3e9458d60001b613846565b60016006600085815260200190815260200160002060006101000a81548160ff0219169083151502179055506122087f6c037800ed862697b021ce7e6762f1f6b61e06b46a251c44d4a1b10e6407796f60001b613846565b6122347f0548740f708a9fbed035678bd3c04ae2e96965f682213289d6914eca8cfa2c7160001b613846565b60006122848960001b600360009054906101000a900473ffffffffffffffffffffffffffffffffffffffff1673ffffffffffffffffffffffffffffffffffffffff16613e3690919063ffffffff16565b90506122b27fa4f1113a6ee8297848dbbf01a3901649651d962d203ad0f59954f0e74bdd3b1460001b613846565b6122de7fb272ab1d57a977f10563645760dc098e6d5de1855b4c88837291a992fa4d4be860001b613846565b6122fd8173ffffffffffffffffffffffffffffffffffffffff16613e4b565b61249d5761232d7f29e63e4a365dc6cedc1cd3ef4ff3a86eecd5b644316990d1d76e6e7721e2174b60001b613846565b6123597f2fba2b650448d41238a031f74074e605f655f9f0e248e046f3c0cb6578935d3860001b613846565b6123857f04a1709c3eabe96f11cbe4520acc95b02da8fb3fa02ac873cf4084c47a0bcc4460001b613846565b6123d38960001b600360009054906101000a900473ffffffffffffffffffffffffffffffffffffffff1673ffffffffffffffffffffffffffffffffffffffff16613e6e90919063ffffffff16565b90506124017f9b51bedf8094891a963c19da890bdaf0bf69552760587b53e520e51625b850a460001b613846565b61242d7f1c359ad3e46dac009e20bd503dd7e9353c7ede19a6c65ce9b13152f88c08631c60001b613846565b8073ffffffffffffffffffffffffffffffffffffffff166351bd146a8a6040518263ffffffff1660e01b81526004016124669190616564565b600060405180830381600087803b15801561248057600080fd5b505af1158015612494573d6000803e3d6000fd5b505050506124ca565b6124c97fed12bf60a41c591612d2919211351c21416189377e37ac91399f831c129121dd60001b613846565b5b6124f67ff0f64a0e87ad3f43c6d341b73da172f68534df05d98786a555b1022726c5740e60001b613846565b6125227f53b667f1aa1312c119ca74bf319fee28abc2c6a9beabb1ed634c73bf9dfd84dc60001b613846565b60008173ffffffffffffffffffffffffffffffffffffffff1663983d881a8c888c8c8c6040518663ffffffff1660e01b8152600401612565959493929190616110565b602060405180830381600087803b15801561257f57600080fd5b505af1158015612593573d6000803e3d6000fd5b505050506040513d601f19601f820116820180604052508101906125b7919061591a565b90506125e57f28ace4e0dec9abac836596f0a52d676b32fc575dd4bc1fab7d922e9e23af1e6960001b613846565b6126117f31dd6e7551d0edda5af60fcb0ecd6854ac8b7eac4c2118807305e7aac6a3e1e760001b613846565b8173ffffffffffffffffffffffffffffffffffffffff168b73ffffffffffffffffffffffffffffffffffffffff167f865ca08d59f5cb456e85cd2f7ef63664ea4f73327414e9d8152c4158b0e9464583896040516126709291906165b6565b60405180910390a3505060018081905550505050505050505050565b7f000000000000000000000000000000000000000000000000000000000000000081565b60055481565b60076020528060005260406000206000915090508060000160009054906101000a900473ffffffffffffffffffffffffffffffffffffffff169080600101549080600201549080600301805461270b90616899565b80601f016020809104026020016040519081016040528092919081815260200182805461273790616899565b80156127845780601f1061275957610100808354040283529160200191612784565b820191906000526020600020905b81548152906001019060200180831161276757829003601f168201915b5050505050905084565b60025481565b61279c613f45565b73ffffffffffffffffffffffffffffffffffffffff166127ba612840565b73ffffffffffffffffffffffffffffffffffffffff1614612810576040517f08c379a000000000000000000000000000000000000000000000000000000000815260040161280790616473565b60405180910390fd5b61281a6000613f4d565b565b7f000000000000000000000000000000000000000000000000000000000000000081565b60008060009054906101000a900473ffffffffffffffffffffffffffffffffffffffff16905090565b612871613f45565b73ffffffffffffffffffffffffffffffffffffffff1661288f612840565b73ffffffffffffffffffffffffffffffffffffffff16146128e5576040517f08c379a00000000000000000000000000000000000000000000000000000000081526004016128dc90616473565b60405180910390fd5b6129117f4b5b134d38e9104a0a3a5dc50b1431917cc342281b029f8746447ec29ee042cb60001b613846565b61293d7f7670b7acb4821a611bd49b8660f9c9f94c99c4e5d59d188433b8c9747f7e28dd60001b613846565b6129697f7a748c35d2abb139e936ece3b88f30365df7e215bf419a23e46153e798dccccc60001b613846565b6129957fdff9fd0ccb6835c12fa16af3c8452620e124a8d31e204523341b1809cc15e3b460001b613846565b6000801b8114156129db576040517f08c379a00000000000000000000000000000000000000000000000000000000081526004016129d2906163d3565b60405180910390fd5b612a077f544c9d433563f90ccb9d71a998d256e6e7e5f839ecfa2b761f46ad7813a7a8e960001b613846565b612a337f334f0418c010d4d94a9bcee2e8854b7e85727ccb33cc85d2d96e0590965fc17260001b613846565b612a5f7f8ab5dbab16d5d8633e5253b992b467d87073e5ace52aec439fea6f229b83a7c260001b613846565b8060028190555050565b60045481565b612a9b7f7e03af24b591c0b0fb18d22a402af76fd01898b13ddd0017e87d78414185a85860001b613846565b612ac77f2b2ab00ef709e946e24720e3dead150ced02bfb4b32ee6e2244b1d5c278ecca660001b613846565b612af37f5fa9d765bf78b61f707d2cb0e4a7932612337e76e5ed00c19f3b722ffa514dac60001b613846565b6000339050612b247fb0d56416332678375c0454902931ab81879ba8d9347100df1773214d4760387660001b613846565b612b507f07f7ca9226ced04f3e0dd117ca77cda06eb92bcff9a7222b52a9980047f943de60001b613846565b60008173ffffffffffffffffffffffffffffffffffffffff1663968c42096040518163ffffffff1660e01b815260040160206040518083038186803b158015612b9857600080fd5b505afa158015612bac573d6000803e3d6000fd5b505050506040513d601f19601f82011682018060405250810190612bd0919061591a565b9050612bfe7f89623ec2c5ea9de545de026ce438d9646d9dee84cc412015526a61d1a26a58d360001b613846565b612c2a7f875492df393572837feb94d89d181adfd95b605dc0ea4dbdadfa5bf15347384b60001b613846565b612c567fdd04f8496e17bcb6aba0130ffe0cbe4e6566a5c07d942f5d6e311e7898b9573c60001b613846565b3373ffffffffffffffffffffffffffffffffffffffff16612cbb8260001b600360009054906101000a900473ffffffffffffffffffffffffffffffffffffffff1673ffffffffffffffffffffffffffffffffffffffff16613e3690919063ffffffff16565b73ffffffffffffffffffffffffffffffffffffffff1614612d11576040517f08c379a0000000000000000000000000000000000000000000000000000000008152600401612d0890616373565b60405180910390fd5b612d3d7fcf3d0c84e836547514cd67830547a8c65f2d9cf55a210a12bf8b36c36490633c60001b613846565b612d697f60e09b6d615b8b3f9e2c30bda985041f7fe0fdcecfa54697c1c11a69aa1fe48860001b613846565b612d957f9001d47b979123f2d40df11ffd31afe3d2fe2c164268197d7776f5cbf728d92d60001b613846565b6000341115612e0b57612dca7fe8b65869602f85889b81dda1355b5ca8b8bf128cc046fe86ffa774e74dafbe6960001b613846565b612df67ff3a312da0ef66a5d073bbd00a6f34806db8129485d61ca1883ca01ee22d1111260001b613846565b34600560008282540192505081905550612e38565b612e377fd3232c444086f854a4f4412b54ae03af0a0cbf6b02aefb7d2298f9f35ab9f97760001b613846565b5b612e647f6fa9a70732a8301f8108a5f0c1c5bf86181d75e766ec0cb3039554497498dd3760001b613846565b612e907fe2840ce82e27b2937aedb39d8dc43723c53c0e7cd46fb42794ce67060e6eaefb60001b613846565b808585604051612ea1929190615ff8565b60405180910390207faeb788a0cff8225096af90b05b0e94a7b6948722c5278b55ef560ba700146219888573ffffffffffffffffffffffffffffffffffffffff1663310495ab8b6040518263ffffffff1660e01b8152600401612f049190616564565b60206040518083038186803b158015612f1c57600080fd5b505afa158015612f30573d6000803e3d6000fd5b505050506040513d601f19601f82011682018060405250810190612f54919061585e565b87604051612f649392919061657f565b60405180910390a3505050505050565b6000612fa27f055fdda043a26e7bbefd4bd8202c475d7831ec2cf8668b7069d3d403e2a49bea60001b613846565b612fce7f4c0e0b526d7186d73645df631135f7ea26b314122a1201b4275d3d5f027cb6cd60001b613846565b612ffa7feb767b80c528bba201eedcd3d74611599262fdb6b78373d79ba3fb2d7899f48560001b613846565b6040517f08c379a000000000000000000000000000000000000000000000000000000000815260040161302c906163f3565b60405180910390fd5b61303d613f45565b73ffffffffffffffffffffffffffffffffffffffff1661305b612840565b73ffffffffffffffffffffffffffffffffffffffff16146130b1576040517f08c379a00000000000000000000000000000000000000000000000000000000081526004016130a890616473565b60405180910390fd5b6130dd7fe5ddce7d2326eab625f6d962f73308d0105d5a357c8b1b59c7074e65f010fcf460001b613846565b6131097f9f7d585bbc1d221dc39b5b83f38bcfe63af6a155635b51497396fe51f6ed8f2560001b613846565b6131357f683a5561570eedac40e41eb387f71f80ec06ff674dd3d44816ab25bfeeafa89160001b613846565b80600360006101000a81548173ffffffffffffffffffffffffffffffffffffffff021916908373ffffffffffffffffffffffffffffffffffffffff16021790555050565b6131a57fee2b05368a97a15e1de05afa00fd3daf03bd0c8c64f6a6484bfdae8f297f40a560001b613846565b6131d17fba6438378d55ee86f9cc6b5b6fcf0b8a56e36840fff2a10659ab6d6166bf72cf60001b613846565b6131fd7f2edbd73e2a78d36f5a2cdf0d54d98fd8ad98fe9330d59aa0ea1b6a5ab1eeb09260001b613846565b600060055490506132307fc66396840cf883930d81435f046bc9a2591d3c392b0a1df48538cd9a6c250fdc60001b613846565b61325c7fe7187bec56164cb1d26b5ca6787140fdc47b4e82b20cd822bbc03774b103586a60001b613846565b6000600554111561354a576132937f4c94ae15f91de053944ee4c47270dff968e9a0d33199f60f390a0680bddc66b560001b613846565b6132bf7fc0d8c1ff883feea7f3dcb2483ec5887b947cc4bee72f188e81e19ca2581a0ba860001b613846565b6132eb7f98ce6f2d82680fd573364493ca70edcaebab65f5cfc37ab2594e1e032b86929c60001b613846565b600060058190555061331f7f99ca656b82bc8a19cd3046625e5618b8aec744e20045af5a2add6c0602769ab560001b613846565b61334b7f6380d36efd41819f101033b492c3762918271a5e004ea9dec651f8d69eb51bde60001b613846565b60007f000000000000000000000000000000000000000000000000000000000000000073ffffffffffffffffffffffffffffffffffffffff166361d027b36040518163ffffffff1660e01b815260040160206040518083038186803b1580156133b357600080fd5b505afa1580156133c7573d6000803e3d6000fd5b505050506040513d601f19601f820116820180604052508101906133eb9190615488565b73ffffffffffffffffffffffffffffffffffffffff168260405161340e90616028565b60006040518083038185875af1925050503d806000811461344b576040519150601f19603f3d011682016040523d82523d6000602084013e613450565b606091505b505090506134807f737e090502b33bbf199e8ff819371ab3cf314e1356c6faeadce37a6d9df5a97e60001b613846565b6134ac7f72a77da3a11dbdac065659b614f4cf94bf026d14cc53d5cd916b3ee0d5cc130260001b613846565b6134d87fd404eb4d02bbc20aadd8fdcfef78a4cc050ce38e06a8e5288b5c2fcafe2aa44260001b613846565b80613518576040517f08c379a000000000000000000000000000000000000000000000000000000000815260040161350f90616524565b60405180910390fd5b6135447f4305730403996128990382305384e4112ad7597deb47820b6e36c1f1c3f2b19a60001b613846565b50613577565b6135767f9ed8fd5cfa7b95fab17cc847aad8c6b9f9d92ad602b903e9d6bbc9af12b6e47760001b613846565b5b6135a37ffc6c18100846101f5040dee5c09621362b796d2593ec90a60a1c31d74028d50660001b613846565b6135cf7f6d75ee7e79c963dc7f1809d6b56ca59d9b2d9c071165034d8c4af688169d6a1460001b613846565b7f78473f3f373f7673597f4f0fa5873cb4d375fea6d4339ad6b56dbd411513cb3f33826040516136009291906160e7565b60405180910390a150565b60006136397f66b2f0c47eff3d9f704961ffcb05c821d085233b4040925179fc21037a3c295c60001b613846565b6136657f2869e5a86e9ab2049b30e391fe4e474a55d80fb87313c0bb5323fbeeecda57e060001b613846565b6136917f6a62181ddfd2f99b7a92c11411c072a00a1ad5dafbe52fe3c5c44f3a565c90d760001b613846565b6136e28633878787878080601f016020809104026020016040519081016040528093929190818152602001838380828437600081840152601f19601f82011690508083019250505050505050613849565b61370e7f3ccdab34d9f74ac6ac0ddd39124fd0f95259c92411fed2a5db8fc3e212c059aa60001b613846565b61373a7fc68951aa60ce92507f9a8b2c6d0716c8eb772cfcf906b274451c0ed04362341560001b613846565b63f23a6e6160e01b90509695505050505050565b613756613f45565b73ffffffffffffffffffffffffffffffffffffffff16613774612840565b73ffffffffffffffffffffffffffffffffffffffff16146137ca576040517f08c379a00000000000000000000000000000000000000000000000000000000081526004016137c190616473565b60405180910390fd5b600073ffffffffffffffffffffffffffffffffffffffff168173ffffffffffffffffffffffffffffffffffffffff16141561383a576040517f08c379a000000000000000000000000000000000000000000000000000000000815260040161383190616313565b60405180910390fd5b61384381613f4d565b50565b50565b6138757fb0420cca29a8044de744723e70a5e09dd65f5b862b1521fa53b2f1d9a3dfaf3060001b613846565b6138a17f65bf79658b30befcc00918f14c029bece8893f7db7d95e2ced15ff9565b658a860001b613846565b6138cd7ff4b00862f8cedb3f5ab5006dce9779cfab0ebae10f1b158fba9b0c7ba6bc8e9960001b613846565b600081600081518110613909577f4e487b7100000000000000000000000000000000000000000000000000000000600052603260045260246000fd5b602001015160f81c60f81b60f81c60ff1690506139487fc28018241a005c9f3ccb5905129fedeb7f36bcf8fe62b9b573ce32b29e9549ba60001b613846565b6139747f615be89edbf3b95ef758401ea2f44cdc1aa39047429378c56a9c120afeaade1860001b613846565b60008167ffffffffffffffff8111156139b6577f4e487b7100000000000000000000000000000000000000000000000000000000600052604160045260246000fd5b6040519080825280602002602001820160405280156139e45781602001602082028036833780820191505090505b509050613a137fdc04e1b8ceac3fa739b60e8876027818c20912d533863eec686cba30645def3260001b613846565b613a3f7f49544ec01b7534cc1bd6fe1250f8e2cefcc27eed5ac8e11d15a86e7ab8f6b3b160001b613846565b6000602083613a4e919061672c565b6001613a5a91906166d6565b9050613a887ff8d210464ce846a1eb6905b91fb1b23c6b08db965d5fddc828fb410e0c67140860001b613846565b613ab47f17af19e284a68ca2fa8abe197958c0b476193ec593bf81436ad393633ef04e0c60001b613846565b6000818551613ac39190616786565b67ffffffffffffffff811115613b02577f4e487b7100000000000000000000000000000000000000000000000000000000600052604160045260246000fd5b6040519080825280601f01601f191660200182016040528015613b345781602001600182028036833780820191505090505b509050613b637f819d4f7a604e6c6642d934064609dceb69028f5850b6f490a06ee313639a8e3e60001b613846565b613b8f7f3a747d45d9b7115eb3ae489263cb29b6102ef60a73a0384457605fc13d2b62c560001b613846565b6000600190505b848111613bf157613bc97faf157cdb2a8bfe3f5a1e6e42c7cfbe16edbd41a326805e28e97dd8df1bf367d360001b613846565b8060200260018701018051808360200287015250508080613be9906168fc565b915050613b96565b50613c1e7fd312d19a4c55f010f51c8edd98b51ee48058eb09f34a71702fc74311472321f260001b613846565b613c4a7f9bda53209a924c5312e0605b45404754bc0cae9afd8e02398c47cb582dc9bb8960001b613846565b60005b8151811015613d7857613c827fb7c93b3b3bff9f2ca5074af8084d2ea5d9774ebb03495b01c3210bbb08aeaa5660001b613846565b613cae7f578ca22fd6b4b5ea3250556c570e6812080780d25f261c1b4d00f1c7075a296260001b613846565b858382613cbb91906166d6565b81518110613cf2577f4e487b7100000000000000000000000000000000000000000000000000000000600052603260045260246000fd5b602001015160f81c60f81b828281518110613d36577f4e487b7100000000000000000000000000000000000000000000000000000000600052603260045260246000fd5b60200101907effffffffffffffffffffffffffffffffffffffffffffffffffffffffffffff1916908160001a9053508080613d70906168fc565b915050613c4d565b50613da57f06d874c6b108b2e20ec110ee6753db7af3aaadc3e8edc3b4e032a8be326265db60001b613846565b613dd17fb8facb6e330da607f67cace0dd2ee7987b93353b50e55d0d1feb850e809628bc60001b613846565b613ddf898989898786614011565b505050505050505050565b6000613df583614480565b8015613e075750613e0683836144cd565b5b905092915050565b6000806000613e1e85856145f8565b91509150613e2b8161467b565b819250505092915050565b6000613e438383306149cc565b905092915050565b6000808273ffffffffffffffffffffffffffffffffffffffff163b119050919050565b60006040517f3d602d80600a3d3981f3363d3d373d3d3d363d7300000000000000000000000081528360601b60148201527f5af43d82803e903d91602b57fd5bf300000000000000000000000000000000006028820152826037826000f5915050600073ffffffffffffffffffffffffffffffffffffffff168173ffffffffffffffffffffffffffffffffffffffff161415613f3f576040517f08c379a0000000000000000000000000000000000000000000000000000000008152600401613f3690616353565b60405180910390fd5b92915050565b600033905090565b60008060009054906101000a900473ffffffffffffffffffffffffffffffffffffffff169050816000806101000a81548173ffffffffffffffffffffffffffffffffffffffff021916908373ffffffffffffffffffffffffffffffffffffffff1602179055508173ffffffffffffffffffffffffffffffffffffffff168173ffffffffffffffffffffffffffffffffffffffff167f8be0079c531659141344cd1fd0a4f28419497f9722a3daafe3b4186f6b6457e060405160405180910390a35050565b61403d7f61ab732cf8d804bbb15d266e2db58634569accb79498fbcca2b87115432b43bb60001b613846565b6140697fc2532ea42cb7f30d7cfbab70a2ae74eecd2974a2f8704da20e8457e14225251a60001b613846565b6140957faa2b88a41758aa67c2ae59a14fc0efbb55445a49417a52f24bda113c58ca247960001b613846565b6140c17fcb6c98023f1168b0978907be17b1397cbe546f362e0f0dc98d4390bfab4496e160001b613846565b6002546140f483876040516020016140d99190615ef9565b60405160208183030381529060405280519060200120614a4c565b14614134576040517f08c379a000000000000000000000000000000000000000000000000000000000815260040161412b90616493565b60405180910390fd5b6141607f94b497175dba7e84828a95b95c0347a0f7689c97e753d7dbe686feb0c7fdafe460001b613846565b61418c7fad7bbdee9c5aeb5ed216a73d1e614adf7f55843ae2184a0bc430293af48400fe60001b613846565b6141b87f863de92a8bd9aafc0bac05c63862cd738c5dc8ac5774197e7a1f8de260d0ee1860001b613846565b6141e47fa53b99c8d9ca4fa5648aec6d24ea3995ed6cae302a907f0aead0b71a59debd7d60001b613846565b6141ed81614ae7565b61422c576040517f08c379a000000000000000000000000000000000000000000000000000000000815260040161422390616333565b60405180910390fd5b6142587f496bf7d549940d2e4cd50a300f0e1a476c313a3bdab003d379cda81556343f7560001b613846565b6142847f5ed1cc6efca6090aeb9128b30dc918d9d0721ed9578093c5b0bdc2613e73da8560001b613846565b6142b07fbadd3863ea9ba92bae80c5ddbd961d04361da1ed74fc5115f27796827c0821ee60001b613846565b60405180608001604052808673ffffffffffffffffffffffffffffffffffffffff1681526020018581526020018481526020018281525060076000600454815260200190815260200160002060008201518160000160006101000a81548173ffffffffffffffffffffffffffffffffffffffff021916908373ffffffffffffffffffffffffffffffffffffffff160217905550602082015181600101556040820151816002015560608201518160030190805190602001906143739291906151ce565b509050506143a37fd8d9ea181860c7526247d2e8e9d6f60bd217506858dd2cee104d3346bfb05a7360001b613846565b6143cf7fa2a13f48006da287483e0e3e5f30b09f615d9440c38f82be8d58e47db795d44160001b613846565b8473ffffffffffffffffffffffffffffffffffffffff166004548773ffffffffffffffffffffffffffffffffffffffff167fa0ce9278af63ad80be01e421d9d287da54019b78b3a5c6eda65e3e785ef49205878786604051614433939291906165df565b60405180910390a46144677f35aa2c8dbd23b647c8aaf74b48ff0aa3f7489461af501096f90da750541ba6d860001b613846565b6001600460008282540192505081905550505050505050565b60006144ac827f01ffc9a7000000000000000000000000000000000000000000000000000000006144cd565b80156144c657506144c48263ffffffff60e01b6144cd565b155b9050919050565b6000806301ffc9a760e01b836040516024016144e99190616225565b604051602081830303815290604052907bffffffffffffffffffffffffffffffffffffffffffffffffffffffff19166020820180517bffffffffffffffffffffffffffffffffffffffffffffffffffffffff838183161783525050505090506000808573ffffffffffffffffffffffffffffffffffffffff16617530846040516145739190615fe1565b6000604051808303818686fa925050503d80600081146145af576040519150601f19603f3d011682016040523d82523d6000602084013e6145b4565b606091505b50915091506020815110156145cf57600093505050506145f2565b8180156145ec5750808060200190518101906145eb919061580c565b5b93505050505b92915050565b60008060418351141561463a5760008060006020860151925060408601519150606086015160001a905061462e87828585614c3f565b94509450505050614674565b60408351141561466b576000806020850151915060408501519050614660868383614d4c565b935093505050614674565b60006002915091505b9250929050565b600060048111156146b5577f4e487b7100000000000000000000000000000000000000000000000000000000600052602160045260246000fd5b8160048111156146ee577f4e487b7100000000000000000000000000000000000000000000000000000000600052602160045260246000fd5b14156146f9576149c9565b60016004811115614733577f4e487b7100000000000000000000000000000000000000000000000000000000600052602160045260246000fd5b81600481111561476c577f4e487b7100000000000000000000000000000000000000000000000000000000600052602160045260246000fd5b14156147ad576040517f08c379a00000000000000000000000000000000000000000000000000000000081526004016147a490616293565b60405180910390fd5b600260048111156147e7577f4e487b7100000000000000000000000000000000000000000000000000000000600052602160045260246000fd5b816004811115614820577f4e487b7100000000000000000000000000000000000000000000000000000000600052602160045260246000fd5b1415614861576040517f08c379a0000000000000000000000000000000000000000000000000000000008152600401614858906162d3565b60405180910390fd5b6003600481111561489b577f4e487b7100000000000000000000000000000000000000000000000000000000600052602160045260246000fd5b8160048111156148d4577f4e487b7100000000000000000000000000000000000000000000000000000000600052602160045260246000fd5b1415614915576040517f08c379a000000000000000000000000000000000000000000000000000000000815260040161490c90616393565b60405180910390fd5b60048081111561494e577f4e487b7100000000000000000000000000000000000000000000000000000000600052602160045260246000fd5b816004811115614987577f4e487b7100000000000000000000000000000000000000000000000000000000600052602160045260246000fd5b14156149c8576040517f08c379a00000000000000000000000000000000000000000000000000000000081526004016149bf90616413565b60405180910390fd5b5b50565b60006040517f3d602d80600a3d3981f3363d3d373d3d3d363d7300000000000000000000000081528460601b60148201527f5af43d82803e903d91602b57fd5bf3ff0000000000000000000000000000000060288201528260601b603882015283604c82015260378120606c820152605560378201209150509392505050565b60008082905060005b8451811015614adc576000858281518110614a99577f4e487b7100000000000000000000000000000000000000000000000000000000600052603260045260246000fd5b60200260200101519050808311614abb57614ab48382614dab565b9250614ac8565b614ac58184614dab565b92505b508080614ad4906168fc565b915050614a55565b508091505092915050565b6000614b157f39ab63a19b05a7591c8684c1a8bdbcf6b4379cee2df23cd809e95d575a16cf6560001b614dc2565b614b417fbd5fe7c6c00a5aa9f8f1b147709a1c96e2854362b9ccb13459922c1cefc2958b60001b614dc2565b614b6d7f32a7300e383be71cb1069c711313102f1599405f8840af515c82eeebae2d506660001b614dc2565b614bac826040518060400160405280600381526020017f4165320000000000000000000000000000000000000000000000000000000000815250614dc5565b80614bf25750614bf1826040518060400160405280600581526020017f44647a4646000000000000000000000000000000000000000000000000000000815250614dc5565b5b80614c385750614c37826040518060400160405280600581526020017f6164647231000000000000000000000000000000000000000000000000000000815250614dc5565b5b9050919050565b6000807f7fffffffffffffffffffffffffffffff5d576e7357a4501ddfe92f46681b20a08360001c1115614c7a576000600391509150614d43565b601b8560ff1614158015614c925750601c8560ff1614155b15614ca4576000600491509150614d43565b600060018787878760405160008152602001604052604051614cc994939291906161e0565b6020604051602081039080840390855afa158015614ceb573d6000803e3d6000fd5b505050602060405103519050600073ffffffffffffffffffffffffffffffffffffffff168173ffffffffffffffffffffffffffffffffffffffff161415614d3a57600060019250925050614d43565b80600092509250505b94509492505050565b60008060007f7fffffffffffffffffffffffffffffffffffffffffffffffffffffffffffffff60001b841690506000601b60ff8660001c901c614d8f91906166d6565b9050614d9d87828885614c3f565b935093505050935093915050565b600082600052816020526040600020905092915050565b50565b6000614df37fe7ea6d70eb0c6d57294ebfcab516c3c727a366a6a39331f61eade9b2476d68f960001b614dc2565b614e1f7face962ada1c90bc905f6b267625969739d617e994fb9d09e3c985a64cb80910260001b614dc2565b614e4b7fe993cd890a1ccb812dc22b6cd9394b47a69f02c14341b5efc40bbe0bd97b622e60001b614dc2565b6000839050614e7c7f4a7d83dc0aadbdaf8dde58b94c7aae8e93a20df92c4c781ebb793f9a0e2cd33260001b614dc2565b614ea87f1ca3bb480fba256d395aa44629b9a82910cc02d3ff404a04a2e0e1b21e456a0860001b614dc2565b6000839050614ed97fbf76a35bb1e3ace9010dc2a78f0921c89cb16c269efccd0a47341d48cf62a6c560001b614dc2565b614f057fbcc67a9c8d30ea0ffa4341a7fc8d3218f15ec1e4f41b3334f51e9d8381fef19460001b614dc2565b600081519050614f377f308b9bd90e2efa44d9c3f03a567abfab1aac65835fe0ceb6cce53f66ac010ec160001b614dc2565b614f637fdb54a97011a5ae9411513312a7f6e8b2cd76ed0b470a10088d5ecd95b2b3918160001b614dc2565b60005b8181101561516757614f9a7f78f57127dd7b7a238efb672552183280087986f4d9aa03d7b573efa9b90d159360001b614dc2565b614fc67f09efb17531137ef215e3ab5742944bc87ee27504c0eccf00513c67882ed56c5b60001b614dc2565b828181518110614fff577f4e487b7100000000000000000000000000000000000000000000000000000000600052603260045260246000fd5b602001015160f81c60f81b7effffffffffffffffffffffffffffffffffffffffffffffffffffffffffffff1916848281518110615065577f4e487b7100000000000000000000000000000000000000000000000000000000600052603260045260246000fd5b602001015160f81c60f81b7effffffffffffffffffffffffffffffffffffffffffffffffffffffffffffff191614615128576150c37ff558720caf597f9cc79cb706fb9553b9a3c614372b1c01d83f6ff34442594dc460001b614dc2565b6150ef7fa8541fdb2e798280995889e5c1c282ead9956595a4f91f97a7e91ca0cd4a800260001b614dc2565b61511b7fb5a46e0bc0223e2d796479ba6e2ac421abb92f74d4726544627d54041afce64c60001b614dc2565b60009450505050506151c8565b6151547fa98f02afe7c8f66ae3e4aa0ee7d57b6f78d5e15c619b1e7983e72679ad9a12b560001b614dc2565b808061515f906168fc565b915050614f66565b506151947fcd7b69b3978f380d5bcc2ab55627588d7eda52bcc078baba69c8306f8a69942860001b614dc2565b6151c07f107edaa7fb887aeb66c02ef6ef03e5921454598e7af1f448781e5d4587087b6460001b614dc2565b600193505050505b92915050565b8280546151da90616899565b90600052602060002090601f0160209004810192826151fc5760008555615243565b82601f1061521557805160ff1916838001178555615243565b82800160010185558215615243579182015b82811115615242578251825591602001919060010190615227565b5b5090506152509190615254565b5090565b5b8082111561526d576000816000905550600101615255565b5090565b600061528461527f84616642565b61661d565b90508281526020810184848401111561529c57600080fd5b6152a7848285616866565b509392505050565b6000813590506152be81616df7565b92915050565b6000815190506152d381616df7565b92915050565b60008083601f8401126152eb57600080fd5b8235905067ffffffffffffffff81111561530457600080fd5b60208301915083602082028301111561531c57600080fd5b9250929050565b60008151905061533281616e0e565b92915050565b60008135905061534781616e25565b92915050565b60008151905061535c81616e25565b92915050565b60008135905061537181616e3c565b92915050565b60008083601f84011261538957600080fd5b8235905067ffffffffffffffff8111156153a257600080fd5b6020830191508360018202830111156153ba57600080fd5b9250929050565b60008083601f8401126153d357600080fd5b8235905067ffffffffffffffff8111156153ec57600080fd5b60208301915083600182028301111561540457600080fd5b9250929050565b600082601f83011261541c57600080fd5b815161542c848260208601615271565b91505092915050565b60008135905061544481616e53565b92915050565b60008151905061545981616e53565b92915050565b60006020828403121561547157600080fd5b600061547f848285016152af565b91505092915050565b60006020828403121561549a57600080fd5b60006154a8848285016152c4565b91505092915050565b60008060008060008060008060a0898b0312156154cd57600080fd5b60006154db8b828c016152af565b98505060206154ec8b828c016152af565b975050604089013567ffffffffffffffff81111561550957600080fd5b6155158b828c016152d9565b9650965050606089013567ffffffffffffffff81111561553457600080fd5b6155408b828c016152d9565b9450945050608089013567ffffffffffffffff81111561555f57600080fd5b61556b8b828c01615377565b92509250509295985092959890939650565b60008060008060006080868803121561559557600080fd5b60006155a3888289016152af565b95505060206155b4888289016152af565b94505060406155c588828901615435565b935050606086013567ffffffffffffffff8111156155e257600080fd5b6155ee88828901615377565b92509250509295509295909350565b600080600080600080600060c0888a03121561561857600080fd5b60006156268a828b016152af565b97505060206156378a828b016152af565b96505060406156488a828b01615435565b95505060606156598a828b01615435565b945050608061566a8a828b01615338565b93505060a088013567ffffffffffffffff81111561568757600080fd5b6156938a828b01615377565b925092505092959891949750929550565b60008060008060008060a087890312156156bd57600080fd5b60006156cb89828a016152af565b96505060206156dc89828a016152af565b95505060406156ed89828a01615435565b94505060606156fe89828a01615435565b935050608087013567ffffffffffffffff81111561571b57600080fd5b61572789828a01615377565b92509250509295509295509295565b600080600080600080600080600060e08a8c03121561575457600080fd5b60006157628c828d016152af565b99505060206157738c828d01615435565b98505060406157848c828d01615338565b97505060608a013567ffffffffffffffff8111156157a157600080fd5b6157ad8c828d016153c1565b965096505060806157c08c828d01615435565b94505060a06157d18c828d01615338565b93505060c08a013567ffffffffffffffff8111156157ee57600080fd5b6157fa8c828d01615377565b92509250509295985092959850929598565b60006020828403121561581e57600080fd5b600061582c84828501615323565b91505092915050565b60006020828403121561584757600080fd5b600061585584828501615338565b91505092915050565b60006020828403121561587057600080fd5b600061587e8482850161534d565b91505092915050565b60006020828403121561589957600080fd5b60006158a784828501615362565b91505092915050565b6000602082840312156158c257600080fd5b600082015167ffffffffffffffff8111156158dc57600080fd5b6158e88482850161540b565b91505092915050565b60006020828403121561590357600080fd5b600061591184828501615435565b91505092915050565b60006020828403121561592c57600080fd5b600061593a8482850161544a565b91505092915050565b6000806000806060858703121561595957600080fd5b600061596787828801615435565b945050602085013567ffffffffffffffff81111561598457600080fd5b615990878288016153c1565b935093505060406159a387828801615435565b91505092959194509250565b600080604083850312156159c257600080fd5b60006159d085828601615435565b92505060206159e185828601615435565b9150509250929050565b6159f4816167ba565b82525050565b615a0b615a06826167ba565b616945565b82525050565b615a1a816167cc565b82525050565b615a29816167d8565b82525050565b615a40615a3b826167d8565b616957565b82525050565b615a4f816167e2565b82525050565b6000615a6082616688565b615a6a81856166af565b9350615a7a818560208601616866565b80840191505092915050565b615a8f81616845565b82525050565b6000615aa183856166ba565b9350615aae838584616857565b615ab783616a0a565b840190509392505050565b6000615ace83856166cb565b9350615adb838584616857565b82840190509392505050565b6000615af282616693565b615afc81856166ba565b9350615b0c818560208601616866565b615b1581616a0a565b840191505092915050565b60008154615b2d81616899565b615b3781866166cb565b94506001821660008114615b525760018114615b6357615b96565b60ff19831686528186019350615b96565b615b6c85616673565b60005b83811015615b8e57815481890152600182019150602081019050615b6f565b838801955050505b50505092915050565b6000615bac6018836166ba565b9150615bb782616a28565b602082019050919050565b6000615bcf6017836166ba565b9150615bda82616a51565b602082019050919050565b6000615bf2601f836166ba565b9150615bfd82616a7a565b602082019050919050565b6000615c15601c836166ba565b9150615c2082616aa3565b602082019050919050565b6000615c386026836166ba565b9150615c4382616acc565b604082019050919050565b6000615c5b601e836166ba565b9150615c6682616b1b565b602082019050919050565b6000615c7e6017836166ba565b9150615c8982616b44565b602082019050919050565b6000615ca16019836166ba565b9150615cac82616b6d565b602082019050919050565b6000615cc46022836166ba565b9150615ccf82616b96565b604082019050919050565b6000615ce76016836166ba565b9150615cf282616be5565b602082019050919050565b6000615d0a6014836166ba565b9150615d1582616c0e565b602082019050919050565b6000615d2d6021836166ba565b9150615d3882616c37565b604082019050919050565b6000615d506022836166ba565b9150615d5b82616c86565b604082019050919050565b6000615d73601e836166ba565b9150615d7e82616cd5565b602082019050919050565b6000615d96601a836166ba565b9150615da182616cfe565b602082019050919050565b6000615db96020836166ba565b9150615dc482616d27565b602082019050919050565b6000615ddc601d836166ba565b9150615de782616d50565b602082019050919050565b6000615dff601a836166ba565b9150615e0a82616d79565b602082019050919050565b6000615e2260008361669e565b9150615e2d82616da2565b600082019050919050565b6000615e456000836166af565b9150615e5082616da2565b600082019050919050565b6000615e686000836166ba565b9150615e7382616da2565b600082019050919050565b6000615e8b6019836166ba565b9150615e9682616da5565b602082019050919050565b6000615eae601f836166ba565b9150615eb982616dce565b602082019050919050565b615ecd8161682e565b82525050565b615ee4615edf8261682e565b616973565b82525050565b615ef381616838565b82525050565b6000615f0582846159fa565b60148201915081905092915050565b6000615f2082886159fa565b601482019150615f3082876159fa565b601482019150615f408286615ed3565b602082019150615f508285615ed3565b602082019150615f608284615a2f565b6020820191508190509695505050505050565b6000615f7f828a6159fa565b601482019150615f8f8289615ed3565b602082019150615f9f8288615a2f565b602082019150615fb0828688615ac2565b9150615fbc8285615ed3565b602082019150615fcc8284615a2f565b60208201915081905098975050505050505050565b6000615fed8284615a55565b915081905092915050565b6000616005828486615ac2565b91508190509392505050565b600061601d8284615b20565b915081905092915050565b600061603382615e38565b9150819050919050565b600060208201905061605260008301846159eb565b92915050565b600060608201905061606d60008301866159eb565b61607a60208301856159eb565b6160876040830184615ec4565b949350505050565b600060a0820190506160a460008301876159eb565b6160b160208301866159eb565b6160be6040830185615ec4565b6160cb6060830184615ec4565b81810360808301526160dc81615e15565b905095945050505050565b60006040820190506160fc60008301856159eb565b6161096020830184615ec4565b9392505050565b600060808201905061612560008301886159eb565b6161326020830187615ec4565b61613f6040830186615a20565b8181036060830152616152818486615a95565b90509695505050505050565b600060808201905061617360008301876159eb565b6161806020830186615ec4565b61618d6040830185615ec4565b818103606083015261619f8184615ae7565b905095945050505050565b60006020820190506161bf6000830184615a11565b92915050565b60006020820190506161da6000830184615a20565b92915050565b60006080820190506161f56000830187615a20565b6162026020830186615eea565b61620f6040830185615a20565b61621c6060830184615a20565b95945050505050565b600060208201905061623a6000830184615a46565b92915050565b6000608082019050818103600083015261625a8187615ae7565b90506162696020830186615ec4565b6162766040830185615a86565b81810360608301526162888184615ae7565b905095945050505050565b600060208201905081810360008301526162ac81615b9f565b9050919050565b600060208201905081810360008301526162cc81615bc2565b9050919050565b600060208201905081810360008301526162ec81615be5565b9050919050565b6000602082019050818103600083015261630c81615c08565b9050919050565b6000602082019050818103600083015261632c81615c2b565b9050919050565b6000602082019050818103600083015261634c81615c4e565b9050919050565b6000602082019050818103600083015261636c81615c71565b9050919050565b6000602082019050818103600083015261638c81615c94565b9050919050565b600060208201905081810360008301526163ac81615cb7565b9050919050565b600060208201905081810360008301526163cc81615cda565b9050919050565b600060208201905081810360008301526163ec81615cfd565b9050919050565b6000602082019050818103600083015261640c81615d20565b9050919050565b6000602082019050818103600083015261642c81615d43565b9050919050565b6000602082019050818103600083015261644c81615d66565b9050919050565b6000602082019050818103600083015261646c81615d89565b9050919050565b6000602082019050818103600083015261648c81615dac565b9050919050565b600060208201905081810360008301526164ac81615dcf565b9050919050565b600060208201905081810360008301526164cc81615df2565b9050919050565b600060808201905081810360008301526164ec81615e5b565b90506164fb6020830186615ec4565b6165086040830185615ec4565b818103606083015261651a8184615ae7565b9050949350505050565b6000602082019050818103600083015261653d81615e7e565b9050919050565b6000602082019050818103600083015261655d81615ea1565b9050919050565b60006020820190506165796000830184615ec4565b92915050565b60006060820190506165946000830186615ec4565b6165a16020830185615a20565b6165ae6040830184615ec4565b949350505050565b60006040820190506165cb6000830185615ec4565b6165d86020830184615ec4565b9392505050565b60006060820190506165f46000830186615ec4565b6166016020830185615ec4565b81810360408301526166138184615ae7565b9050949350505050565b6000616627616638565b905061663382826168cb565b919050565b6000604051905090565b600067ffffffffffffffff82111561665d5761665c6169db565b5b61666682616a0a565b9050602081019050919050565b60008190508160005260206000209050919050565b600081519050919050565b600081519050919050565b600082825260208201905092915050565b600081905092915050565b600082825260208201905092915050565b600081905092915050565b60006166e18261682e565b91506166ec8361682e565b9250827fffffffffffffffffffffffffffffffffffffffffffffffffffffffffffffffff038211156167215761672061697d565b5b828201905092915050565b60006167378261682e565b91506167428361682e565b9250817fffffffffffffffffffffffffffffffffffffffffffffffffffffffffffffffff048311821515161561677b5761677a61697d565b5b828202905092915050565b60006167918261682e565b915061679c8361682e565b9250828210156167af576167ae61697d565b5b828203905092915050565b60006167c58261680e565b9050919050565b60008115159050919050565b6000819050919050565b60007fffffffff0000000000000000000000000000000000000000000000000000000082169050919050565b600073ffffffffffffffffffffffffffffffffffffffff82169050919050565b6000819050919050565b600060ff82169050919050565b60006168508261682e565b9050919050565b82818337600083830152505050565b60005b83811015616884578082015181840152602081019050616869565b83811115616893576000848401525b50505050565b600060028204905060018216806168b157607f821691505b602082108114156168c5576168c46169ac565b5b50919050565b6168d482616a0a565b810181811067ffffffffffffffff821117156168f3576168f26169db565b5b80604052505050565b60006169078261682e565b91507fffffffffffffffffffffffffffffffffffffffffffffffffffffffffffffffff82141561693a5761693961697d565b5b600182019050919050565b600061695082616961565b9050919050565b6000819050919050565b600061696c82616a1b565b9050919050565b6000819050919050565b7f4e487b7100000000000000000000000000000000000000000000000000000000600052601160045260246000fd5b7f4e487b7100000000000000000000000000000000000000000000000000000000600052602260045260246000fd5b7f4e487b7100000000000000000000000000000000000000000000000000000000600052604160045260246000fd5b6000601f19601f8301169050919050565b60008160601b9050919050565b7f45434453413a20696e76616c6964207369676e61747572650000000000000000600082015250565b7f426f6e646c793a20616c726561647920636c61696d6564000000000000000000600082015250565b7f45434453413a20696e76616c6964207369676e6174757265206c656e67746800600082015250565b7f426f6e646c793a2066656520616d6f756e74206e6f74206d6174636800000000600082015250565b7f4f776e61626c653a206e6577206f776e657220697320746865207a65726f206160008201527f6464726573730000000000000000000000000000000000000000000000000000602082015250565b7f426f6e646c793a20696e76616c696420726563697069656e7420616464720000600082015250565b7f455243313136373a2063726561746532206661696c6564000000000000000000600082015250565b7f4272696467654875623a20696e76616c69642063616c6c657200000000000000600082015250565b7f45434453413a20696e76616c6964207369676e6174757265202773272076616c60008201527f7565000000000000000000000000000000000000000000000000000000000000602082015250565b7f426f6e646c793a20696e76616c696420616d6f756e7400000000000000000000600082015250565b7f426f6e646c793a20696e76616c69642068617368000000000000000000000000600082015250565b7f426f6e646c793a206261746368206465706f736974206e6f7420616c6c6f776560008201527f6400000000000000000000000000000000000000000000000000000000000000602082015250565b7f45434453413a20696e76616c6964207369676e6174757265202776272076616c60008201527f7565000000000000000000000000000000000000000000000000000000000000602082015250565b7f426f6e646c793a206661696c656420746f207665726966792070726f6f660000600082015250565b7f426f6e646c793a20696e76616c6964206465706f736974206964000000000000600082015250565b7f4f776e61626c653a2063616c6c6572206973206e6f7420746865206f776e6572600082015250565b7f426f6e646c793a20746f6b656e206e6f742077686974656c6973746564000000600082015250565b7f426f6e646c793a20696e76616c696420746f6b656e2074797065000000000000600082015250565b50565b7f426f6e646c793a206661696c656420746f207061792066656500000000000000600082015250565b7f5265656e7472616e637947756172643a207265656e7472616e742063616c6c00600082015250565b616e00816167ba565b8114616e0b57600080fd5b50565b616e17816167cc565b8114616e2257600080fd5b50565b616e2e816167d8565b8114616e3957600080fd5b50565b616e45816167e2565b8114616e5057600080fd5b50565b616e5c8161682e565b8114616e6757600080fd5b5056fea26469706673582212207674b031e7bc19d192049d38022b4837250931acc421cbd25e3e91e2c311533564736f6c63430008040033",
  "linkReferences": {},
  "deployedLinkReferences": {}
}