{
  "_format": "hh-sol-artifact-1",
  "contractName": "Mock1155",
  "sourceName": "contracts/mocks/Mock1155.sol",
  "abi": [
    {
      "inputs": [],
      "stateMutability": "nonpayable",
      "type": "constructor"
    },
    {
      "anonymous": false,
      "inputs": [
        {
          "indexed": true,
          "internalType": "address",
          "name": "account",
          "type": "address"
        },
        {
          "indexed": true,
          "internalType": "address",
          "name": "operator",
          "type": "address"
        },
        {
          "indexed": false,
          "internalType": "bool",
          "name": "approved",
          "type": "bool"
        }
      ],
      "name": "ApprovalForAll",
      "type": "event"
    },
    {
      "anonymous": false,
      "inputs": [
        {
          "indexed": true,
          "internalType": "address",
          "name": "operator",
          "type": "address"
        },
        {
          "indexed": true,
          "internalType": "address",
          "name": "from",
          "type": "address"
        },
        {
          "indexed": true,
          "internalType": "address",
          "name": "to",
          "type": "address"
        },
        {
          "indexed": false,
          "internalType": "uint256[]",
          "name": "ids",
          "type": "uint256[]"
        },
        {
          "indexed": false,
          "internalType": "uint256[]",
          "name": "values",
          "type": "uint256[]"
        }
      ],
      "name": "TransferBatch",
      "type": "event"
    },
    {
      "anonymous": false,
      "inputs": [
        {
          "indexed": true,
          "internalType": "address",
          "name": "operator",
          "type": "address"
        },
        {
          "indexed": true,
          "internalType": "address",
          "name": "from",
          "type": "address"
        },
        {
          "indexed": true,
          "internalType": "address",
          "name": "to",
          "type": "address"
        },
        {
          "indexed": false,
          "internalType": "uint256",
          "name": "id",
          "type": "uint256"
        },
        {
          "indexed": false,
          "internalType": "uint256",
          "name": "value",
          "type": "uint256"
        }
      ],
      "name": "TransferSingle",
      "type": "event"
    },
    {
      "anonymous": false,
      "inputs": [
        {
          "indexed": false,
          "internalType": "string",
          "name": "value",
          "type": "string"
        },
        {
          "indexed": true,
          "internalType": "uint256",
          "name": "id",
          "type": "uint256"
        }
      ],
      "name": "URI",
      "type": "event"
    },
    {
      "inputs": [
        {
          "internalType": "address",
          "name": "account",
          "type": "address"
        },
        {
          "internalType": "uint256",
          "name": "id",
          "type": "uint256"
        }
      ],
      "name": "balanceOf",
      "outputs": [
        {
          "internalType": "uint256",
          "name": "",
          "type": "uint256"
        }
      ],
      "stateMutability": "view",
      "type": "function"
    },
    {
      "inputs": [
        {
          "internalType": "address[]",
          "name": "accounts",
          "type": "address[]"
        },
        {
          "internalType": "uint256[]",
          "name": "ids",
          "type": "uint256[]"
        }
      ],
      "name": "balanceOfBatch",
      "outputs": [
        {
          "internalType": "uint256[]",
          "name": "",
          "type": "uint256[]"
        }
      ],
      "stateMutability": "view",
      "type": "function"
    },
    {
      "inputs": [
        {
          "internalType": "address",
          "name": "account",
          "type": "address"
        },
        {
          "internalType": "address",
          "name": "operator",
          "type": "address"
        }
      ],
      "name": "isApprovedForAll",
      "outputs": [
        {
          "internalType": "bool",
          "name": "",
          "type": "bool"
        }
      ],
      "stateMutability": "view",
      "type": "function"
    },
    {
      "inputs": [
        {
          "internalType": "address",
          "name": "to",
          "type": "address"
        },
        {
          "internalType": "uint256",
          "name": "id",
          "type": "uint256"
        },
        {
          "internalType": "uint256",
          "name": "amount",
          "type": "uint256"
        },
        {
          "internalType": "string",
          "name": "uri_",
          "type": "string"
        }
      ],
      "name": "mint",
      "outputs": [],
      "stateMutability": "nonpayable",
      "type": "function"
    },
    {
      "inputs": [
        {
          "internalType": "address",
          "name": "from",
          "type": "address"
        },
        {
          "internalType": "address",
          "name": "to",
          "type": "address"
        },
        {
          "internalType": "uint256[]",
          "name": "ids",
          "type": "uint256[]"
        },
        {
          "internalType": "uint256[]",
          "name": "amounts",
          "type": "uint256[]"
        },
        {
          "internalType": "bytes",
          "name": "data",
          "type": "bytes"
        }
      ],
      "name": "safeBatchTransferFrom",
      "outputs": [],
      "stateMutability": "nonpayable",
      "type": "function"
    },
    {
      "inputs": [
        {
          "internalType": "address",
          "name": "from",
          "type": "address"
        },
        {
          "internalType": "address",
          "name": "to",
          "type": "address"
        },
        {
          "internalType": "uint256",
          "name": "id",
          "type": "uint256"
        },
        {
          "internalType": "uint256",
          "name": "amount",
          "type": "uint256"
        },
        {
          "internalType": "bytes",
          "name": "data",
          "type": "bytes"
        }
      ],
      "name": "safeTransferFrom",
      "outputs": [],
      "stateMutability": "nonpayable",
      "type": "function"
    },
    {
      "inputs": [
        {
          "internalType": "address",
          "name": "operator",
          "type": "address"
        },
        {
          "internalType": "bool",
          "name": "approved",
          "type": "bool"
        }
      ],
      "name": "setApprovalForAll",
      "outputs": [],
      "stateMutability": "nonpayable",
      "type": "function"
    },
    {
      "inputs": [
        {
          "internalType": "bytes4",
          "name": "interfaceId",
          "type": "bytes4"
        }
      ],
      "name": "supportsInterface",
      "outputs": [
        {
          "internalType": "bool",
          "name": "",
          "type": "bool"
        }
      ],
      "stateMutability": "view",
      "type": "function"
    },
    {
      "inputs": [
        {
          "internalType": "uint256",
          "name": "id",
          "type": "uint256"
        }
      ],
      "name": "uri",
      "outputs": [
        {
          "internalType": "string",
          "name": "",
          "type": "string"
        }
      ],
      "stateMutability": "view",
      "type": "function"
    }
  ],
  "bytecode": "0x60806040523480156200001157600080fd5b506040518060200160405280600081525062000033816200006e60201b60201c565b50620000687f99e46fd71eb0aac686ee5f0dd01c866d5d2e83ae7ae7eec1d95a67b9f78e84df60001b6200008a60201b60201c565b620001a2565b8060029080519060200190620000869291906200008d565b5050565b50565b8280546200009b906200013d565b90600052602060002090601f016020900481019282620000bf57600085556200010b565b82601f10620000da57805160ff19168380011785556200010b565b828001600101855582156200010b579182015b828111156200010a578251825591602001919060010190620000ed565b5b5090506200011a91906200011e565b5090565b5b80821115620001395760008160009055506001016200011f565b5090565b600060028204905060018216806200015657607f821691505b602082108114156200016d576200016c62000173565b5b50919050565b7f4e487b7100000000000000000000000000000000000000000000000000000000600052602260045260246000fd5b612bc780620001b26000396000f3fe608060405234801561001057600080fd5b50600436106100925760003560e01c80634e1273f4116100665780634e1273f414610143578063a22cb46514610173578063bb7fde711461018f578063e985e9c5146101ab578063f242432a146101db57610092565b8062fdd58e1461009757806301ffc9a7146100c75780630e89341c146100f75780632eb2c2d614610127575b600080fd5b6100b160048036038101906100ac9190611c52565b6101f7565b6040516100be9190612352565b60405180910390f35b6100e160048036038101906100dc9190611d7a565b6102c0565b6040516100ee91906121b5565b60405180910390f35b610111600480360381019061010c9190611dcc565b6103a2565b60405161011e91906121d0565b60405180910390f35b610141600480360381019061013c9190611ac8565b6104cb565b005b61015d60048036038101906101589190611d0e565b61056c565b60405161016a919061215c565b60405180910390f35b61018d60048036038101906101889190611c16565b61071d565b005b6101a960048036038101906101a49190611c8e565b610733565b005b6101c560048036038101906101c09190611a8c565b610854565b6040516101d291906121b5565b60405180910390f35b6101f560048036038101906101f09190611b87565b6108e8565b005b60008073ffffffffffffffffffffffffffffffffffffffff168373ffffffffffffffffffffffffffffffffffffffff161415610268576040517f08c379a000000000000000000000000000000000000000000000000000000000815260040161025f90612232565b60405180910390fd5b60008083815260200190815260200160002060008473ffffffffffffffffffffffffffffffffffffffff1673ffffffffffffffffffffffffffffffffffffffff16815260200190815260200160002054905092915050565b60007fd9b67a26000000000000000000000000000000000000000000000000000000007bffffffffffffffffffffffffffffffffffffffffffffffffffffffff1916827bffffffffffffffffffffffffffffffffffffffffffffffffffffffff1916148061038b57507f0e89341c000000000000000000000000000000000000000000000000000000007bffffffffffffffffffffffffffffffffffffffffffffffffffffffff1916827bffffffffffffffffffffffffffffffffffffffffffffffffffffffff1916145b8061039b575061039a82610989565b5b9050919050565b60606103d07f88eecdbe1d73bc0cbe5b145e223bbe1cd1ec59471a409c32759ddc04478f221060001b6109f3565b6103fc7fedc7b055219693461b9140d402ac9b8a3f01a975dfd352149a6c93d333015d3160001b6109f3565b6104287fcbebb5e9401a1af724ab5715f6b2abcf045c7e4b2d9db7e54562e0eca7a14b7b60001b6109f3565b600360008381526020019081526020016000208054610446906125c1565b80601f0160208091040260200160405190810160405280929190818152602001828054610472906125c1565b80156104bf5780601f10610494576101008083540402835291602001916104bf565b820191906000526020600020905b8154815290600101906020018083116104a257829003601f168201915b50505050509050919050565b6104d36109f6565b73ffffffffffffffffffffffffffffffffffffffff168573ffffffffffffffffffffffffffffffffffffffff1614806105195750610518856105136109f6565b610854565b5b610558576040517f08c379a000000000000000000000000000000000000000000000000000000000815260040161054f90612292565b60405180910390fd5b61056585858585856109fe565b5050505050565b606081518351146105b2576040517f08c379a00000000000000000000000000000000000000000000000000000000081526004016105a9906122f2565b60405180910390fd5b6000835167ffffffffffffffff8111156105f5577f4e487b7100000000000000000000000000000000000000000000000000000000600052604160045260246000fd5b6040519080825280602002602001820160405280156106235781602001602082028036833780820191505090505b50905060005b8451811015610712576106bc85828151811061066e577f4e487b7100000000000000000000000000000000000000000000000000000000600052603260045260246000fd5b60200260200101518583815181106106af577f4e487b7100000000000000000000000000000000000000000000000000000000600052603260045260246000fd5b60200260200101516101f7565b8282815181106106f5577f4e487b7100000000000000000000000000000000000000000000000000000000600052603260045260246000fd5b6020026020010181815250508061070b90612624565b9050610629565b508091505092915050565b61072f6107286109f6565b8383610d5e565b5050565b61075f7fb4faa3767a681b70d60182a1ac90c3c41cb9b973d34cd5c8f376b7fa329ebb9160001b6109f3565b61078b7ff1aaa6c4d3afea13f8c3632f86fdb6363d5886bd54ca8a93f424109ed02ab04560001b6109f3565b6107b77fca1677d312e94ead61172d553255330f050b75a85d2c537fe23af0578e3c228f60001b6109f3565b6107d285858560405180602001604052806000815250610ecb565b6107fe7f27d27fbcef817a2a8ce648ca0d6babaa0d0cb1d05532edc5c34ee02be317324960001b6109f3565b61082a7f02671f4c3e6242c71a7e6e3ce14e82c8fe9cd46cd614460f89a66f888d37982f60001b6109f3565b818160036000878152602001908152602001600020919061084c9291906117a2565b505050505050565b6000600160008473ffffffffffffffffffffffffffffffffffffffff1673ffffffffffffffffffffffffffffffffffffffff16815260200190815260200160002060008373ffffffffffffffffffffffffffffffffffffffff1673ffffffffffffffffffffffffffffffffffffffff16815260200190815260200160002060009054906101000a900460ff16905092915050565b6108f06109f6565b73ffffffffffffffffffffffffffffffffffffffff168573ffffffffffffffffffffffffffffffffffffffff1614806109365750610935856109306109f6565b610854565b5b610975576040517f08c379a000000000000000000000000000000000000000000000000000000000815260040161096c90612252565b60405180910390fd5b6109828585858585611061565b5050505050565b60007f01ffc9a7000000000000000000000000000000000000000000000000000000007bffffffffffffffffffffffffffffffffffffffffffffffffffffffff1916827bffffffffffffffffffffffffffffffffffffffffffffffffffffffff1916149050919050565b50565b600033905090565b8151835114610a42576040517f08c379a0000000000000000000000000000000000000000000000000000000008152600401610a3990612312565b60405180910390fd5b600073ffffffffffffffffffffffffffffffffffffffff168473ffffffffffffffffffffffffffffffffffffffff161415610ab2576040517f08c379a0000000000000000000000000000000000000000000000000000000008152600401610aa990612272565b60405180910390fd5b6000610abc6109f6565b9050610acc8187878787876112e3565b60005b8451811015610cc9576000858281518110610b13577f4e487b7100000000000000000000000000000000000000000000000000000000600052603260045260246000fd5b602002602001015190506000858381518110610b58577f4e487b7100000000000000000000000000000000000000000000000000000000600052603260045260246000fd5b60200260200101519050600080600084815260200190815260200160002060008b73ffffffffffffffffffffffffffffffffffffffff1673ffffffffffffffffffffffffffffffffffffffff16815260200190815260200160002054905081811015610bf9576040517f08c379a0000000000000000000000000000000000000000000000000000000008152600401610bf0906122b2565b60405180910390fd5b81810360008085815260200190815260200160002060008c73ffffffffffffffffffffffffffffffffffffffff1673ffffffffffffffffffffffffffffffffffffffff168152602001908152602001600020819055508160008085815260200190815260200160002060008b73ffffffffffffffffffffffffffffffffffffffff1673ffffffffffffffffffffffffffffffffffffffff1681526020019081526020016000206000828254610cae91906124b5565b9250508190555050505080610cc290612624565b9050610acf565b508473ffffffffffffffffffffffffffffffffffffffff168673ffffffffffffffffffffffffffffffffffffffff168273ffffffffffffffffffffffffffffffffffffffff167f4a39dc06d4c0dbc64b70af90fd698a233a518aa5d07e595d983b8c0526c8f7fb8787604051610d4092919061217e565b60405180910390a4610d568187878787876112eb565b505050505050565b8173ffffffffffffffffffffffffffffffffffffffff168373ffffffffffffffffffffffffffffffffffffffff161415610dcd576040517f08c379a0000000000000000000000000000000000000000000000000000000008152600401610dc4906122d2565b60405180910390fd5b80600160008573ffffffffffffffffffffffffffffffffffffffff1673ffffffffffffffffffffffffffffffffffffffff16815260200190815260200160002060008473ffffffffffffffffffffffffffffffffffffffff1673ffffffffffffffffffffffffffffffffffffffff16815260200190815260200160002060006101000a81548160ff0219169083151502179055508173ffffffffffffffffffffffffffffffffffffffff168373ffffffffffffffffffffffffffffffffffffffff167f17307eab39ab6107e8899845ad3d59bd9653f200f220920489ca2b5937696c3183604051610ebe91906121b5565b60405180910390a3505050565b600073ffffffffffffffffffffffffffffffffffffffff168473ffffffffffffffffffffffffffffffffffffffff161415610f3b576040517f08c379a0000000000000000000000000000000000000000000000000000000008152600401610f3290612332565b60405180910390fd5b6000610f456109f6565b9050610f6681600087610f57886114d2565b610f60886114d2565b876112e3565b8260008086815260200190815260200160002060008773ffffffffffffffffffffffffffffffffffffffff1673ffffffffffffffffffffffffffffffffffffffff1681526020019081526020016000206000828254610fc591906124b5565b925050819055508473ffffffffffffffffffffffffffffffffffffffff16600073ffffffffffffffffffffffffffffffffffffffff168273ffffffffffffffffffffffffffffffffffffffff167fc3d58168c5ae7397731d063d5bbf3d657854427343f4c083240f7aacaa2d0f62878760405161104392919061236d565b60405180910390a461105a81600087878787611598565b5050505050565b600073ffffffffffffffffffffffffffffffffffffffff168473ffffffffffffffffffffffffffffffffffffffff1614156110d1576040517f08c379a00000000000000000000000000000000000000000000000000000000081526004016110c890612272565b60405180910390fd5b60006110db6109f6565b90506110fb8187876110ec886114d2565b6110f5886114d2565b876112e3565b600080600086815260200190815260200160002060008873ffffffffffffffffffffffffffffffffffffffff1673ffffffffffffffffffffffffffffffffffffffff16815260200190815260200160002054905083811015611192576040517f08c379a0000000000000000000000000000000000000000000000000000000008152600401611189906122b2565b60405180910390fd5b83810360008087815260200190815260200160002060008973ffffffffffffffffffffffffffffffffffffffff1673ffffffffffffffffffffffffffffffffffffffff168152602001908152602001600020819055508360008087815260200190815260200160002060008873ffffffffffffffffffffffffffffffffffffffff1673ffffffffffffffffffffffffffffffffffffffff168152602001908152602001600020600082825461124791906124b5565b925050819055508573ffffffffffffffffffffffffffffffffffffffff168773ffffffffffffffffffffffffffffffffffffffff168373ffffffffffffffffffffffffffffffffffffffff167fc3d58168c5ae7397731d063d5bbf3d657854427343f4c083240f7aacaa2d0f6288886040516112c492919061236d565b60405180910390a46112da828888888888611598565b50505050505050565b505050505050565b61130a8473ffffffffffffffffffffffffffffffffffffffff1661177f565b156114ca578373ffffffffffffffffffffffffffffffffffffffff1663bc197c8187878686866040518663ffffffff1660e01b815260040161135095949392919061209a565b602060405180830381600087803b15801561136a57600080fd5b505af192505050801561139b57506040513d601f19601f820116820180604052508101906113989190611da3565b60015b611441576113a76126fa565b806308c379a0141561140457506113bc612a9f565b806113c75750611406565b806040517f08c379a00000000000000000000000000000000000000000000000000000000081526004016113fb91906121d0565b60405180910390fd5b505b6040517f08c379a0000000000000000000000000000000000000000000000000000000008152600401611438906121f2565b60405180910390fd5b63bc197c8160e01b7bffffffffffffffffffffffffffffffffffffffffffffffffffffffff1916817bffffffffffffffffffffffffffffffffffffffffffffffffffffffff1916146114c8576040517f08c379a00000000000000000000000000000000000000000000000000000000081526004016114bf90612212565b60405180910390fd5b505b505050505050565b60606000600167ffffffffffffffff811115611517577f4e487b7100000000000000000000000000000000000000000000000000000000600052604160045260246000fd5b6040519080825280602002602001820160405280156115455781602001602082028036833780820191505090505b5090508281600081518110611583577f4e487b7100000000000000000000000000000000000000000000000000000000600052603260045260246000fd5b60200260200101818152505080915050919050565b6115b78473ffffffffffffffffffffffffffffffffffffffff1661177f565b15611777578373ffffffffffffffffffffffffffffffffffffffff1663f23a6e6187878686866040518663ffffffff1660e01b81526004016115fd959493929190612102565b602060405180830381600087803b15801561161757600080fd5b505af192505050801561164857506040513d601f19601f820116820180604052508101906116459190611da3565b60015b6116ee576116546126fa565b806308c379a014156116b15750611669612a9f565b8061167457506116b3565b806040517f08c379a00000000000000000000000000000000000000000000000000000000081526004016116a891906121d0565b60405180910390fd5b505b6040517f08c379a00000000000000000000000000000000000000000000000000000000081526004016116e5906121f2565b60405180910390fd5b63f23a6e6160e01b7bffffffffffffffffffffffffffffffffffffffffffffffffffffffff1916817bffffffffffffffffffffffffffffffffffffffffffffffffffffffff191614611775576040517f08c379a000000000000000000000000000000000000000000000000000000000815260040161176c90612212565b60405180910390fd5b505b505050505050565b6000808273ffffffffffffffffffffffffffffffffffffffff163b119050919050565b8280546117ae906125c1565b90600052602060002090601f0160209004810192826117d05760008555611817565b82601f106117e957803560ff1916838001178555611817565b82800160010185558215611817579182015b828111156118165782358255916020019190600101906117fb565b5b5090506118249190611828565b5090565b5b80821115611841576000816000905550600101611829565b5090565b6000611858611853846123bb565b612396565b9050808382526020820190508285602086028201111561187757600080fd5b60005b858110156118a7578161188d888261195b565b84526020840193506020830192505060018101905061187a565b5050509392505050565b60006118c46118bf846123e7565b612396565b905080838252602082019050828560208602820111156118e357600080fd5b60005b8581101561191357816118f98882611a77565b8452602084019350602083019250506001810190506118e6565b5050509392505050565b600061193061192b84612413565b612396565b90508281526020810184848401111561194857600080fd5b61195384828561257f565b509392505050565b60008135905061196a81612b35565b92915050565b600082601f83011261198157600080fd5b8135611991848260208601611845565b91505092915050565b600082601f8301126119ab57600080fd5b81356119bb8482602086016118b1565b91505092915050565b6000813590506119d381612b4c565b92915050565b6000813590506119e881612b63565b92915050565b6000815190506119fd81612b63565b92915050565b600082601f830112611a1457600080fd5b8135611a2484826020860161191d565b91505092915050565b60008083601f840112611a3f57600080fd5b8235905067ffffffffffffffff811115611a5857600080fd5b602083019150836001820283011115611a7057600080fd5b9250929050565b600081359050611a8681612b7a565b92915050565b60008060408385031215611a9f57600080fd5b6000611aad8582860161195b565b9250506020611abe8582860161195b565b9150509250929050565b600080600080600060a08688031215611ae057600080fd5b6000611aee8882890161195b565b9550506020611aff8882890161195b565b945050604086013567ffffffffffffffff811115611b1c57600080fd5b611b288882890161199a565b935050606086013567ffffffffffffffff811115611b4557600080fd5b611b518882890161199a565b925050608086013567ffffffffffffffff811115611b6e57600080fd5b611b7a88828901611a03565b9150509295509295909350565b600080600080600060a08688031215611b9f57600080fd5b6000611bad8882890161195b565b9550506020611bbe8882890161195b565b9450506040611bcf88828901611a77565b9350506060611be088828901611a77565b925050608086013567ffffffffffffffff811115611bfd57600080fd5b611c0988828901611a03565b9150509295509295909350565b60008060408385031215611c2957600080fd5b6000611c378582860161195b565b9250506020611c48858286016119c4565b9150509250929050565b60008060408385031215611c6557600080fd5b6000611c738582860161195b565b9250506020611c8485828601611a77565b9150509250929050565b600080600080600060808688031215611ca657600080fd5b6000611cb48882890161195b565b9550506020611cc588828901611a77565b9450506040611cd688828901611a77565b935050606086013567ffffffffffffffff811115611cf357600080fd5b611cff88828901611a2d565b92509250509295509295909350565b60008060408385031215611d2157600080fd5b600083013567ffffffffffffffff811115611d3b57600080fd5b611d4785828601611970565b925050602083013567ffffffffffffffff811115611d6457600080fd5b611d708582860161199a565b9150509250929050565b600060208284031215611d8c57600080fd5b6000611d9a848285016119d9565b91505092915050565b600060208284031215611db557600080fd5b6000611dc3848285016119ee565b91505092915050565b600060208284031215611dde57600080fd5b6000611dec84828501611a77565b91505092915050565b6000611e01838361207c565b60208301905092915050565b611e168161250b565b82525050565b6000611e2782612454565b611e318185612482565b9350611e3c83612444565b8060005b83811015611e6d578151611e548882611df5565b9750611e5f83612475565b925050600181019050611e40565b5085935050505092915050565b611e838161251d565b82525050565b6000611e948261245f565b611e9e8185612493565b9350611eae81856020860161258e565b611eb78161271c565b840191505092915050565b6000611ecd8261246a565b611ed781856124a4565b9350611ee781856020860161258e565b611ef08161271c565b840191505092915050565b6000611f086034836124a4565b9150611f138261273a565b604082019050919050565b6000611f2b6028836124a4565b9150611f3682612789565b604082019050919050565b6000611f4e602b836124a4565b9150611f59826127d8565b604082019050919050565b6000611f716029836124a4565b9150611f7c82612827565b604082019050919050565b6000611f946025836124a4565b9150611f9f82612876565b604082019050919050565b6000611fb76032836124a4565b9150611fc2826128c5565b604082019050919050565b6000611fda602a836124a4565b9150611fe582612914565b604082019050919050565b6000611ffd6029836124a4565b915061200882612963565b604082019050919050565b60006120206029836124a4565b915061202b826129b2565b604082019050919050565b60006120436028836124a4565b915061204e82612a01565b604082019050919050565b60006120666021836124a4565b915061207182612a50565b604082019050919050565b61208581612575565b82525050565b61209481612575565b82525050565b600060a0820190506120af6000830188611e0d565b6120bc6020830187611e0d565b81810360408301526120ce8186611e1c565b905081810360608301526120e28185611e1c565b905081810360808301526120f68184611e89565b90509695505050505050565b600060a0820190506121176000830188611e0d565b6121246020830187611e0d565b612131604083018661208b565b61213e606083018561208b565b81810360808301526121508184611e89565b90509695505050505050565b600060208201905081810360008301526121768184611e1c565b905092915050565b600060408201905081810360008301526121988185611e1c565b905081810360208301526121ac8184611e1c565b90509392505050565b60006020820190506121ca6000830184611e7a565b92915050565b600060208201905081810360008301526121ea8184611ec2565b905092915050565b6000602082019050818103600083015261220b81611efb565b9050919050565b6000602082019050818103600083015261222b81611f1e565b9050919050565b6000602082019050818103600083015261224b81611f41565b9050919050565b6000602082019050818103600083015261226b81611f64565b9050919050565b6000602082019050818103600083015261228b81611f87565b9050919050565b600060208201905081810360008301526122ab81611faa565b9050919050565b600060208201905081810360008301526122cb81611fcd565b9050919050565b600060208201905081810360008301526122eb81611ff0565b9050919050565b6000602082019050818103600083015261230b81612013565b9050919050565b6000602082019050818103600083015261232b81612036565b9050919050565b6000602082019050818103600083015261234b81612059565b9050919050565b6000602082019050612367600083018461208b565b92915050565b6000604082019050612382600083018561208b565b61238f602083018461208b565b9392505050565b60006123a06123b1565b90506123ac82826125f3565b919050565b6000604051905090565b600067ffffffffffffffff8211156123d6576123d56126cb565b5b602082029050602081019050919050565b600067ffffffffffffffff821115612402576124016126cb565b5b602082029050602081019050919050565b600067ffffffffffffffff82111561242e5761242d6126cb565b5b6124378261271c565b9050602081019050919050565b6000819050602082019050919050565b600081519050919050565b600081519050919050565b600081519050919050565b6000602082019050919050565b600082825260208201905092915050565b600082825260208201905092915050565b600082825260208201905092915050565b60006124c082612575565b91506124cb83612575565b9250827fffffffffffffffffffffffffffffffffffffffffffffffffffffffffffffffff03821115612500576124ff61266d565b5b828201905092915050565b600061251682612555565b9050919050565b60008115159050919050565b60007fffffffff0000000000000000000000000000000000000000000000000000000082169050919050565b600073ffffffffffffffffffffffffffffffffffffffff82169050919050565b6000819050919050565b82818337600083830152505050565b60005b838110156125ac578082015181840152602081019050612591565b838111156125bb576000848401525b50505050565b600060028204905060018216806125d957607f821691505b602082108114156125ed576125ec61269c565b5b50919050565b6125fc8261271c565b810181811067ffffffffffffffff8211171561261b5761261a6126cb565b5b80604052505050565b600061262f82612575565b91507fffffffffffffffffffffffffffffffffffffffffffffffffffffffffffffffff8214156126625761266161266d565b5b600182019050919050565b7f4e487b7100000000000000000000000000000000000000000000000000000000600052601160045260246000fd5b7f4e487b7100000000000000000000000000000000000000000000000000000000600052602260045260246000fd5b7f4e487b7100000000000000000000000000000000000000000000000000000000600052604160045260246000fd5b600060033d11156127195760046000803e61271660005161272d565b90505b90565b6000601f19601f8301169050919050565b60008160e01c9050919050565b7f455243313135353a207472616e7366657220746f206e6f6e204552433131353560008201527f526563656976657220696d706c656d656e746572000000000000000000000000602082015250565b7f455243313135353a204552433131353552656365697665722072656a6563746560008201527f6420746f6b656e73000000000000000000000000000000000000000000000000602082015250565b7f455243313135353a2062616c616e636520717565727920666f7220746865207a60008201527f65726f2061646472657373000000000000000000000000000000000000000000602082015250565b7f455243313135353a2063616c6c6572206973206e6f74206f776e6572206e6f7260008201527f20617070726f7665640000000000000000000000000000000000000000000000602082015250565b7f455243313135353a207472616e7366657220746f20746865207a65726f20616460008201527f6472657373000000000000000000000000000000000000000000000000000000602082015250565b7f455243313135353a207472616e736665722063616c6c6572206973206e6f742060008201527f6f776e6572206e6f7220617070726f7665640000000000000000000000000000602082015250565b7f455243313135353a20696e73756666696369656e742062616c616e636520666f60008201527f72207472616e7366657200000000000000000000000000000000000000000000602082015250565b7f455243313135353a2073657474696e6720617070726f76616c2073746174757360008201527f20666f722073656c660000000000000000000000000000000000000000000000602082015250565b7f455243313135353a206163636f756e747320616e6420696473206c656e67746860008201527f206d69736d617463680000000000000000000000000000000000000000000000602082015250565b7f455243313135353a2069647320616e6420616d6f756e7473206c656e6774682060008201527f6d69736d61746368000000000000000000000000000000000000000000000000602082015250565b7f455243313135353a206d696e7420746f20746865207a65726f2061646472657360008201527f7300000000000000000000000000000000000000000000000000000000000000602082015250565b600060443d1015612aaf57612b32565b612ab76123b1565b60043d036004823e80513d602482011167ffffffffffffffff82111715612adf575050612b32565b808201805167ffffffffffffffff811115612afd5750505050612b32565b80602083010160043d038501811115612b1a575050505050612b32565b612b29826020018501866125f3565b82955050505050505b90565b612b3e8161250b565b8114612b4957600080fd5b50565b612b558161251d565b8114612b6057600080fd5b50565b612b6c81612529565b8114612b7757600080fd5b50565b612b8381612575565b8114612b8e57600080fd5b5056fea2646970667358221220f2b26bd592a8604feebe2832f7f539128df508718998128c86f369772de22da764736f6c63430008040033",
  "linkReferences": {},
  "deployedLinkReferences": {}
}